S025000064776569733030335F70726F64723031305F6C616231305F70617274312E7372656303
S113000045C0000060C000005EC000005CC000008D
S11300105AC0000058C0000056C0000054C0000080
S113002052C0000050C000004EC000004CC0000090
S11300304AC000008DC0000046C0000044C000005B
S113004042C0000040C000003EC000003CC00000B0
S11300503AC0000038C0000036C0000034C00000C0
S113006032C0000030C000002EC000002CC00000D0
S11300702AC0000028C0000026C0000024C00000E0
S113008022C0000020C000001EC0000011241FBEBA
S1130090CFEFD0E4DEBFCDBF11E0A0E0B1E0EEE9E8
S11300A0F3E000E00BBF02C007900D92A430B1074B
S11300B0D9F721E0A4E0B1E001C01D92A032B2075B
S11300C0E1F7E7D06AC19CCF019731F410921A018D
S11300D012B880E090E0089581E080931A0182B91B
S11300E081E090E008956093000170930101809392
S11300F002019093030160931B0170931C01809390
S11301001D0190931E0108958BE0809381008DE77B
S113011090E0909389008093880082E080936F0040
S11301201092850010928400809100019091010149
S1130130A0910201B091030180931B0190931C01D3
S1130140A0931D01B0931E018FB780688FBF0895DF
S11301501F920F920FB60F9211248F939F93AF9318
S1130160BF9380911B0190911C01A0911D01B0913E
S11301701E010197A109B10980931B0190931C01F1
S1130180A0931D01B0931E01892B8A2B8B2B99F40C
S113019081E080931F018091000190910101A09161
S11301A00201B091030180931B0190931C01A09361
S11301B01D01B0931E01BF91AF919F918F910F903C
S11301C00FBE0F901F901895813081F0E1ECF0E0A4
S11301D0808188618083E2ECF0E0808186608083A6
S11301E083E38093C4001092C5000895E9ECF0E025
S11301F0808188618083EAECF0E08081866080837E
S113020083E38093CC001092CD000895613041F0D7
S1130210E0ECF0E0908195FFFDCF8093C600089557
S1130220E8ECF0E0908195FFFDCF8093CE00089537
S1130230CF93DF93009719F0019751F016C0809186
S1130240C00085FB882780F9C82F80E0D82F0FC015
S11302508091C000829586958695837091E0892768
S11302608170C82F80E0D82F02C0C0E0D0E0C13038
S1130270D10559F480911A01813021F460E08FEFA7
S1130280C5DF03C060E080E0C1DFCE01DF91CF9124
S11302900895CF93DF9300D000D0CDB7DEB78FEFB2
S11302A081B912B8AFE0B1E0BA83A983E4E0F1E028
S11302B0FC83EB838C9348EE53E060E070E011968E
S11302C04D935D936D937C93149715964D935D9325
S11302D06D937C93189724E630E01A963C932E9302
S11302E01997808381E090E0A0E0B0E0818392835D
S11302F0A383B48385839683A783B08788E191E041
S1130300928781876AE070E080E090E0ECDEFCDEBA
S113031080E05ADF7E0185E0E80EF11CDE011196D3
S11303206D01F601019111916F01D80115964D915E
S11303305D916D917C91189711968D919D910D9081
S1130340BC91A02D481759076A077B0781F4F8016F
S113035080810184F285E02D082E000C990B09950B
S1130360D8018C93F8011582168217821086F80141
S113037085819681A781B0850196A11DB11D8583D4
S11303809683A783B087CE14DF0459F680911F01AA
S11103908823E1F310921F01C1CFF894FFCF30
S107039E0100000056
S9030000FC
