S025000064776569733030335F70726F64723031305F6C616231305F70617274312E7372656303
S113000045C0000060C000005EC000005CC000008D
S11300105AC0000058C0000056C0000054C0000080
S113002052C0000050C000004EC000004CC0000090
S11300304AC000007EC0000046C0000044C000006A
S113004042C0000040C000003EC000003CC00000B0
S11300503AC0000038C0000036C0000034C00000C0
S113006032C0000030C000002EC000002CC00000D0
S11300702AC0000028C0000026C0000024C00000E0
S113008022C0000020C000001EC0000011241FBEBA
S1130090CFEFD0E4DEBFCDBF11E0A0E0B1E0E6E6F3
S11300A0F4E000E00BBF02C007900D92AA32B10742
S11300B0D9F721E0AAE2B1E001C01D92A634B2074B
S11300C0E1F746D1CEC19CCF60930001709301014A
S11300D08093020190930301609341017093420164
S11300E0809343019093440108958BE080938100B1
S11300F08DE790E0909389008093880082E080935C
S11301006F001092850010928400809100019091FC
S11301100101A0910201B0910301809341019093E8
S11301204201A0934301B09344018FB780688FBF0D
S113013008951F920F920FB60F9211248F939F93DD
S1130140AF93BF938091410190914201A0914301EB
S1130150B09144010197A109B109809341019093A1
S11301604201A0934301B0934401892B8A2B8B2B2A
S113017099F481E0809345018091000190910101FF
S1130180A0910201B0910301809341019093420137
S1130190A0934301B0934401BF91AF919F918F917C
S11301A00F900FBE0F901F901895181619065CF04B
S11301B00895000021503109E1F74F5F5F4F841724
S11301C0950719F4089540E050E027E033E0F1CFBB
S11301D05E9888B95F9A00005F9882E090E0E5CF6E
S11301E0089581E0F5CF0895813118F48158F0CF56
S11301F008958155EDCF089584E690E0D6DF88E335
S1130200E7DF86E0E5DF8FE0E3DF81E0E1DF8AE03E
S113021090E0CBCF08955E9A88B95F9A00005F980A
S113022081E090E0C2CF08950F931F93CF93DF93A3
S1130230182FEB01D6DF8881882351F001E0010FEC
S1130240812FD2DF8991E7DF102F88818111F6CFCA
S1130250DF91CF911F910F910895019751F410925E
S1130260400112B864E071E081E0DEDF80E090E0FC
S1130270089581E08093400182B968E171E0D4DFA0
S113028081E090E00895813081F0E1ECF0E080813C
S113029088618083E2ECF0E080818660808383E380
S11302A08093C4001092C5000895E9ECF0E08081C9
S11302B088618083EAECF0E080818660808383E358
S11302C08093CC001092CD000895613041F0E0ECB1
S11302D0F0E0908195FFFDCF8093C6000895E8EC8F
S11302E0F0E0908195FFFDCF8093CE000895CF93E9
S11302F0DF93009719F0019751F016C08091C00068
S113030085FB882780F9C82F80E0D82F0FC0809103
S1130310C000829586958695837091E089278170C7
S1130320C82F80E0D82F02C0C0E0D0E0C130D10592
S113033059F480914001813021F460E08FEFC5DFF2
S113034003C060E080E0C1DFCE01DF91CF9108956A
S1130350CF93DF9300D000D0CDB7DEB71FEF11B934
S113036012B817B918B81AB91BB846DFA5E3B1E03B
S1130370BA83A983EAE2F1E0FC83EB831C9348EEA1
S113038053E060E070E011964D935D936D937C9320
S1130390149715964D935D936D937C9318978DE206
S11303A091E01A969C938E931997108381E090E0C4
S11303B0A0E0B0E081839283A383B4838583968392
S11303C0A783B08787E791E0928781876AE070E02E
S11303D080E090E079DE89DE80E055DF7E0185E013
S11303E0E80EF11CDE0111966D01F60101911191E7
S11303F06F01D80115964D915D916D917C9118977F
S113040011968D919D910D90BC91A02D481759077F
S11304106A077B0781F4F80180810184F285E02D6D
S1130420082E000C990B0995D8018C93F8011582BC
S1130430168217821086F80185819681A781B0857E
S11304400196A11DB11D85839683A783B087CE1421
S1130450DF0459F6809145018823E1F310924501A8
S1090460C1CFF894FFCFA8
S11304660100000073797374656D206973206469F3
S11304767361726D6564210073797374656D2069A7
S10D0486732061726D6564210000AB
S9030000FC
