:1000000045C0000060C000005EC000005CC0000091
:100010005AC0000058C0000056C0000054C0000084
:1000200052C0000050C000004EC000004CC0000094
:100030004AC0000000C3000046C0000044C00000E9
:1000400042C0000040C000003EC000003CC00000B4
:100050003AC0000038C0000036C0000034C00000C4
:1000600032C0000030C000002EC000002CC00000D4
:100070002AC0000028C0000026C0000024C00000E4
:1000800022C0000020C000001EC0000011241FBEBE
:10009000CFEFD0E4DEBFCDBF11E0A0E0B1E0E6E1FC
:1000A000FDE000E00BBF02C007900D92AC3AB10733
:1000B000D9F727E0ACEAB1E001C01D92AB3EB20730
:1000C000E1F750D126C69CCFCF93DF93EC0106D445
:1000D0002091AC013091AD01C9018C0F9D1F8C3D69
:1000E00045E0940758F42817390758F4E901C25538
:1000F000DE4F9093AD018093AC0105C0C0E0D0E02D
:1001000002C0C0E0D0E0B1D4CE01DF91CF9108951C
:100110000895FC010396928381832FEF3FEF348390
:100120002383968385839087878310820895FC01BB
:10013000118610860895CF93DF93FC01DB012181A6
:100140003281E9018A819B8113969C938E93129749
:100150008181928115969C938E9314978A819B81BD
:10016000EC017D836C83E9017B836A837283618305
:100170001996FC93EE93189780818F5F8083DF91AF
:10018000CF910895CF93DF93EB01488159814F3F81
:100190002FEF520731F4DC011796ED91FC9118977F
:1001A00017C0FC013396DC0115962D913C911697F2
:1001B000D9012D913C914217530750F00280F381F1
:1001C000E02DA281B3812D913C9142175307B0F7E6
:1001D000A281B381BB83AA831596DC93CE93149737
:1001E000FD83EC83D383C28399878887FC012081B8
:1001F0002F5F2083DF91CF910895FC01A281B3810D
:100200008481958115969C938E931497A481B581D2
:100210008281938113969C938E931297A085B185CA
:1002200011968D919C911297E817F90731F484810A
:10023000958112969C938E931197118610868C91BE
:1002400081508C930895613041F0E0ECF0E09081B2
:1002500095FFFDCF8093C6000895E8ECF0E0908113
:1002600095FFFDCF8093CE000895181619065CF017
:100270000895000021503109E1F74F5F5F4F841767
:10028000950719F4089540E050E027E033E0F1CFFE
:100290005E9888B95F9A00005F9882E090E0E5CFB1
:1002A000089584E690E0E1DF88E3F2DF86E0F0DFA6
:1002B0008FE0EEDF81E0ECDF8AE090E0D6CF0895BA
:1002C0008091E707813021F460E080918A07BBDFED
:1002D0008091E707882319F08130A1F01AC080913E
:1002E000C00085FF18C080918B07813021F48FEF0B
:1002F00080938A0703C08FEF80938A0781E0809301
:10030000E70708958091C00086FF05C01092E707B7
:1003100008951092E70708951092E707D1DF8AE069
:1003200090E024D4FBCFAF92BF92CF92DF92EF92B6
:10033000FF920F93A12CB12CC12CD12CE12CF12CCC
:10034000082F20E030E045E550E062E071E08CE805
:1003500091E0A8D10F91FF90EF90DF90CF90BF90E8
:10036000AF90089580EF81B98FE082B98FEF87B9A0
:1003700018B88AB91BB884B915B893DF81E0D3DF08
:1003800084D280E090E0089531E1FC013083319720
:1003900022E220833197A3E3A083319760833197D2
:1003A000708331971082319760E8608331971082B3
:1003B000319762E06083319763E06083319764E056
:1003C0006083319765E06083319766E060833197A1
:1003D00067E06083319768E06083319769E060830C
:1003E000319760E1608331973083319732E1308318
:1003F000319733E13083319734E13083319735E100
:100400003083319736E13083319737E1308331974C
:1004100038E13083319739E13083319730E23083EE
:10042000319731E2308331972083319723E2208363
:100430003197408331975083319726E2208331975B
:1004400027E22083319728E22083319729E2208315
:10045000319720E32083319721E320838697089505
:10046000109289008CE7809388008BE08093810054
:10047000EFE6F0E0808182608083A091E407B09194
:10048000E507CD91CDBFDD91DEBFFF91EF91DF910B
:10049000CF91BF91AF919F918F917F916F915F911C
:1004A0004F913F912F911F910F91FF90EF90DF900F
:1004B000CF90BF90AF909F908F907F906F905F9004
:1004C0004F903F902F901F900F900FBE0F90089568
:1004D00081E008950F920FB6F8940F921F921124A5
:1004E0002F923F924F925F926F927F928F929F9244
:1004F000AF92BF92CF92DF92EF92FF920F931F9332
:100500002F933F934F935F936F937F938F939F931B
:10051000AF93BF93CF93DF93EF93FF93A091E40743
:10052000B091E5070DB60D920EB60D9270D3A09165
:10053000E407B091E507CD91CDBFDD91DEBFFF911E
:10054000EF91DF91CF91BF91AF919F918F917F916B
:100550006F915F914F913F912F911F910F91FF905C
:10056000EF90DF90CF90BF90AF909F908F907F9053
:100570006F905F904F903F902F901F900F900FBE05
:100580000F9008950F920FB6F8940F921F921124B6
:100590002F923F924F925F926F927F928F929F9293
:1005A000AF92BF92CF92DF92EF92FF920F931F9381
:1005B0002F933F934F935F936F937F938F939F936B
:1005C000AF93BF93CF93DF93EF93FF93A091E40793
:1005D000B091E5070DB60D920EB60D9285D117D3E9
:1005E000A091E407B091E507CD91CDBFDD91DEBFCD
:1005F000FF91EF91DF91CF91BF91AF919F918F913B
:100600007F916F915F914F913F912F911F910F912A
:10061000FF90EF90DF90CF90BF90AF909F908F9022
:100620007F906F905F904F903F902F901F900F9012
:100630000FBE0F900895A6DF1895CF93DF93EC01BE
:10064000E091E407F091E50793838283809194071A
:1006500090919507C817D90760F46091E4077091ED
:10066000E5078091AA079091AB076E5F7F4F8ADD07
:1006700016C06091E4077091E5078091AC079091F6
:10068000AD076E5F7F4F7EDD80910001909101018B
:10069000C817D90720F4D0930101C0930001DF915E
:1006A000CF9108954F925F926F927F928F929F9217
:1006B000AF92BF92CF92DF92EF92FF920F931F9370
:1006C000CF93DF935C014B013A01290181E290E075
:1006D000FBDCEC01892B09F4C6C0C114D10409F07C
:1006E000BEC0C301F1DC988F8F8B009719F4CE0147
:1006F0000FDDB9C0A30165EA70E0F5D29301215086
:1007000031098F89988D3C01620E731E48E050E0DC
:10071000B401CE014996EED218A2102F043008F091
:1007200013E01E8B6E0182E0C80ED11CC601FFDCF7
:10073000CE010C96FCDCD987C88784E090E0811B51
:1007400091099D878C87DB8BCA8BA201B501C30100
:100750001BDE99838883E114F10419F0F701D1833A
:10076000C0830FB6F8940F92809196078F5F8093A5
:1007700096078091E4079091E507892B69F5D0935E
:10078000E507C093E407809196078130A1F580ECDE
:1007900097E0BFDC89EC97E0BCDC82ED97E0B9DC48
:1007A0008BED97E0B6DC87EB97E0B3DC8EEA97E061
:1007B000B0DC81EA97E0ADDC88E997E0AADC87EB62
:1007C00097E09093AD078093AC078EEA97E0909303
:1007D000AB078093AA070FC08091910781110BC0CE
:1007E000E091E407F091E5078689081720F0D0939F
:1007F000E507C093E4078E8990919307981710F44A
:100800008093930790918C079F5F90938C079091B2
:100810009207981710F48093920790E09C01220FA2
:10082000331F220F331F220F331F820F931FB60176
:100830008054984F80DC0F900FBE809191078823E1
:1008400051F0E091E407F091E5078689801728F4DC
:1008500041DE81E009C081E007C081E005C0D88E9B
:10086000CF8AC60147CF8FEFDF91CF911F910F91B4
:10087000FF90EF90DF90CF90BF90AF909F908F90C0
:100880007F906F905F904F900895AF92BF92CF92FC
:10089000DF92EF92FF920F93A12CB12CC12CD12C9F
:1008A000E12CF12C00E020E030E045E550E066EA84
:1008B00071E081ED95E0F6DE813041F4F8948093AB
:1008C00091071092950710929407CADD0F91FF903F
:1008D000EF90DF90CF90BF90AF90089580919007F8
:1008E0008F5F8093900708950F931F93CF93DF93AB
:1008F000809190078111AFC08091940790919507E6
:100900000196909395078093940780919407909116
:100910009507892B99F58091AC079091AD072091AF
:10092000AA073091AB073093AD072093AC079093A3
:10093000AB078093AA0780918D078F5F80938D0707
:10094000E091AC07F091AD078081811107C08FEF76
:100950009FEF909301018093000110C0E091AC07DC
:10096000F091AD070580F681E02D0680F781E02D3E
:1009700082819381909301018093000120919407DB
:100980003091950780910001909101012817390756
:1009900008F466C0E091AC07F091AD078081882330
:1009A00099F0E091AC07F091AD070580F681E02D5C
:1009B000C681D7818A819B812091940730919507C8
:1009C00028173907F8F419C08FEF9FEF90930101B2
:1009D0008093000145C0E091AC07F091AD07058020
:1009E000F681E02DC681D7818A819B812091940771
:1009F000309195072817390728F4909301018093C7
:100A000000012EC08E010E5F1F4FC801F6DB8C89DE
:100A10009D89892B19F0CE010C96EFDB8E89909180
:100A20009207981710F48093920790E09C01220F90
:100A3000331F220F331F220F331F820F931FB80162
:100A40008054984F78DBE091AC07F091AD0780813E
:100A50008111C1CFB9CF80918F078F5F80938F07AE
:100A6000DF91CF911F910F910895CF92DF92EF9276
:100A7000FF920F931F93CF93DF930FB6F8940F92CB
:100A80008091900781508093900780919007811109
:100A90005FC08091960781112FC05DC0D701159668
:100AA000ED91FC911697C681D781CE010C96A5DBFE
:100AB0008E010E5F1F4FC801A0DB8E8990919207B7
:100AC000981710F48093920790E09C01220F331F37
:100AD000220F331F220F331F820F931FB801805440
:100AE000984F29DBE091E407F091E5079E8986891C
:100AF000981758F0DC2C09C0D12C0F2EF1EAEF2EFC
:100B0000F7E0FF2EF02DCC24C394F70180818111F2
:100B1000C5CF80918F07882379F080918F07882334
:100B200091F0E2DE80918F07815080938F07809152
:100B30008F078111F6CF07C0F1E0DF1621F0809119
:100B40008E07813039F410928E07C4DC81E003C037
:100B500080E001C080E00F900FBEDF91CF911F9128
:100B60000F91FF90EF90DF90CF900895CF93DF9398
:100B7000EC01892B91F0B2DE80919407909195075A
:100B8000C80FD91F8091E4079091E507029635DBE5
:100B9000CE0153DD6ADF811101C09CDCDF91CF9172
:100BA00008950F2EF8E9EF2EF7E0FF2EF02DC0ECA0
:100BB000D7E080919707882329F190DED7011C9117
:100BC00054DF1123F9F00FB6F8940F92D701159660
:100BD000ED91FC91169706811781C80102960DDBF5
:100BE0008091960781508093960780919707815056
:100BF000809397070F900FBEF8018789908D88DA50
:100C0000C80186DA88818230A0F264DCD2CF80917C
:100C10009007811113C08091920790E0FC01EE0FC4
:100C2000FF1FEE0FFF1FEE0FFF1F8E0F9F1FFC0118
:100C3000E054F84F8081882329F01BC081E0809325
:100C40008E0708958091920781508093920780913A
:100C5000920790E0FC01EE0FFF1FEE0FFF1FEE0F5B
:100C6000FF1F8E0F9F1FFC01E054F84F80818823E7
:100C700049F38091920790E09C01220F331F220FCD
:100C8000331F220F331F280F391FD901A054B84F2B
:100C90001196ED91FC9112970280F381E02D12964E
:100CA000FC93EE9311972D53384FE217F30729F475
:100CB00022813381FD0132832183FC01EE0FFF1F6E
:100CC000EE0FFF1FEE0FFF1F8E0F9F1FFC01E05462
:100CD000F84F0180F281E02D868197819093E5079E
:100CE0008093E4070895DC0101C06D9341505040AA
:100CF000E0F70895FB01DC014150504048F00190BD
:100D00000D920020C9F701C01D9241505040E0F7FC
:060D10000895F894FFCFE6
:100D1600FFFF5472616E735365635461736B0052C7
:100D260065635365635461736B0054656D705365F9
:100D3600635461736B002A2055736572205061738A
:100D460073776F7264206F7220232052616E646F16
:100D56006D2050617373776F72640054726970709E
:100D660065642053656E736F7228732900737973F7
:100D760074656D2069732061726D65642100456E2E
:100D86007465722034204E756D626572730052610F
:100D96006E646F6D20706173736B6579004D656E5F
:100DA600755365635461736B0053656E7365536564
:0C0DB600635461736B0049444C4500001D
:00000001FF
