S01D0000434849505F315F436F6E74726F6C5F53797374656D2E737265632F
S113000050C000006DC000006BC0000069C000005B
S113001067C0000065C0000063C0000061C000004C
S11300205FC000005DC000005BC0000059C000005C
S113003057C000000C94690B53C0000051C000006D
S11300404FC000004DC000004BC0000049C000007C
S113005047C0000045C0000043C0000041C000008C
S11300603FC000003DC000003BC0000039C000009C
S113007037C0000035C0000033C0000031C00000AC
S11300802FC000002DC000002BC00000BB05FB05E5
S1130090C2054A061F072C0744088707B407C1078F
S11300A0F50711241FBECFEFD0E4DEBFCDBF13E0B0
S11300B0A0E0B1E0E6EDFFE100E00BBF02C0079075
S11300C00D92A831B107D9F729E0A8E1B3E001C046
S11300D01D92AC36B207E1F70E94DD090C94E90FDA
S11300E08FCFCF93DF93EC010E94CC0C20911803A7
S11300F030911903C9018C0F9D1F8C3D45E0940775
S113010058F42817390758F4E901C65EDC4F909378
S113011019038093180305C0C0E0D0E002C0C0E01A
S1130120D0E00E94960DCE01DF91CF9108950895FD
S1130130FC010396928381832FEF3FEF3483238363
S1130140968385839087878310820895FC011186A6
S113015010860895CF93DF93FC01DB012181328166
S1130160E9018A819B8113969C938E9312978181D6
S1130170928115969C938E9314978A819B81EC01AE
S11301807D836C83E9017B836A837283618319961F
S1130190FC93EE93189780818F5F8083DF91CF91DA
S11301A00895CF93DF93EB01488159814F3F2FEF9F
S11301B0520731F4DC011796ED91FC91189717C0A2
S11301C0FC013396DC0115962D913C911697D901CB
S11301D02D913C914217530750F00280F381E02D9A
S11301E0A281B3812D913C9142175307B0F7A281AC
S11301F0B381BB83AA831596DC93CE931497FD83B6
S1130200EC83D383C28399878887FC0120812F5F85
S11302102083DF91CF910895FC01A281B381848171
S1130220958115969C938E931497A481B5818281B0
S1130230938113969C938E931297A085B185119602
S11302408D919C911297E817F90731F48481958177
S113025012969C938E931197118610868C918150DF
S11302608C930895813081F0E1ECF0E08081886125
S11302708083E2ECF0E080818660808383E3809376
S1130280C4001092C5000895E9ECF0E08081886113
S11302908083EAECF0E080818660808383E380934E
S11302A0CC001092CD000895813029F48091C800CB
S11302B0882374F008958091C00088238CF4A6EC00
S11302C0B0E0E0ECF0E08C9180818823E4F30895C1
S11302D0AEECB0E0E8ECF0E08C9180818823E4F3AC
S11302E00895613041F0E0ECF0E0908195FFFDCF9E
S11302F08093C6000895E8ECF0E0908195FFFDCF6F
S11303008093CE000895813041F0E0ECF0E08081EC
S11303108823ECF78091C6000895E8ECF0E0808132
S11303208823ECF78091CE0008958FEE82B9000007
S1130330009B44C080B1809581FD42C080B180950E
S113034082FD40C080B1809583FD3EC08FED82B9AF
S11303500000009B3BC080B1809581FD39C080B115
S1130360809582FD37C080B1809583FD35C08FEBC9
S113037082B90000009B32C080B1809581FD30C0FD
S113038080B1809582FD2EC080B1809583FD2CC004
S11303908FE782B9000090B19095892F817090FD0C
S11303A025C090B1909591FD23C090B1909592FD98
S11303B021C090B1909593FD1FC0089581E30895E5
S11303C084E3089587E308958AE2089582E3089513
S11303D085E3089588E3089580E3089583E3089509
S11303E086E3089589E3089583E2089581E40895F6
S11303F082E4089583E4089584E4089518161906A0
S11304005CF00895000021503109E1F74F5F5F4F20
S11304108417950719F4089540E050E027E033E08D
S1130420F1CF5E9888B95F9A00005F9882E090E00F
S1130430E5CF089581E0F5CF0895813118F481580E
S1130440F0CF08958155EDCF089584E690E0D6DF8E
S113045088E3E7DF86E0E5DF8FE0E3DF81E0E1DFEB
S11304608AE090E0CBCF08955E9A88B95F9A000045
S11304705F9881E090E0C2CF08950F931F93CF93CC
S1130480DF93182FEB01D6DF8881882351F001E038
S1130490010F812FD2DF8991E7DF102F888181112D
S11304A0F6CFDF91CF911F910F910895FC0120E0C9
S11304B030E058E055B945B1BF01022E02C076952F
S11304C067950A94E2F7962F9170942B95B9299A1F
S11304D02F5F3F4F2031310569F72A9A15B80895E7
S11304E0FB01DA0110821C9241E050E0022E02C0AE
S11304F0440F551F0A94E2F73081432B4083FC01DB
S113050030E1239FE00DF11D112420E030E041E0B3
S113051050E081919191892B51F48C91BA01022E72
S113052002C0660F771F0A94E2F7682B6C932F5F63
S11305303F4F2830310569F708950F931F93CF93E8
S11305408C01C0E02C2F49E059E06AE079E0C80151
S1130550C7DF8091090920910A0990E0922BA6DF58
S1130560CF5FC83079F7CF911F910F910895811112
S113057006C0FB01ED5EFD4F80E38083089581306A
S113058031F4FB01ED5EFD4F81E3808308958230F9
S113059031F4FB01ED5EFD4F82E3808308958330E7
S11305A031F4FB01ED5EFD4F83E3808308958430D5
S11305B031F4FB01ED5EFD4F84E3808308958530C3
S11305C031F4FB01ED5EFD4F85E3808308958630B1
S11305D031F4FB01ED5EFD4F86E38083089587309F
S11305E031F4FB01ED5EFD4F87E38083089588308D
S11305F031F4FB01ED5EFD4F88E380830895FB0138
S1130600ED5EFD4F89E3808308959DEC899F912DD4
S113061011249695969596959093F708392F330F54
S1130620232F220F220F230F821B8093F60865E1EC
S113063070E0892F9CDF66E170E08091F60897DF17
S113064063E172E081E019CF08958033A1F461156C
S1130650710529F410920B02809343020895FB0163
S1130660E55FFD4F1082FB01ED5CFD4F80E3808B65
S11306708AE2878708958133B9F46115710539F4E5
S113068081E080930B0281E3809343020895FB0190
S1130690E55FFD4F81E08083FB01ED5CFD4F81E36D
S11306A0808B8AE2878708958233B9F461157105D6
S11306B039F482E080930B0282E38093430208952D
S11306C0FB01E55FFD4F82E08083FB01ED5CFD4FA4
S11306D082E3808B8AE2878708958333B9F46115B6
S11306E0710539F483E080930B0283E38093430222
S11306F00895FB01E55FFD4F83E08083FB01ED5C22
S1130700FD4F83E3808B8AE2878708958433B9F4AD
S11307106115710539F484E080930B0284E38093BE
S113072043020895FB01E55FFD4F84E08083FB01F4
S1130730ED5CFD4F84E3808B8AE2878708958533DF
S1130740B9F46115710539F485E080930B0285E3F2
S1130750809343020895FB01E55FFD4F85E08083AC
S1130760FB01ED5CFD4F85E3808B8AE2878708956A
S11307708633B9F46115710539F486E080930B0270
S113078086E3809343020895FB01E55FFD4F86E015
S11307908083FB01ED5CFD4F86E3808B8AE28787D3
S11307A008958733B9F46115710539F487E08093AE
S11307B00B0287E3809343020895FB01E55FFD4F3D
S11307C087E08083FB01ED5CFD4F87E3808B8AE249
S11307D0878708958833B9F46115710539F488E081
S11307E080930B0288E3809343020895FB01E55F45
S11307F0FD4F88E08083FB01ED5CFD4F88E3808B37
S11308008AE2878708956115710539F489E0809338
S11308100B0289E3809343020895FB01E55FFD4FDA
S113082089E08083FB01ED5CFD4F89E3808B8AE2E4
S11308308787089590910F0280910B02981316C038
S11308409091100280910C02981313C090911102A0
S113085080910D02981310C081E090E03091120253
S113086020910E02321751F080E0089580E090E06C
S1130870089580E090E0089580E090E00895CF939B
S1130880C62F803379F481E1860FD7DD80E3ECDD78
S11308908C2F90E0FC01E15FFD4F108260E00E942C
S11308A07E0F9FC0813381F481E1860FC6DD81E331
S11308B0DBDD8C2F90E0FC01E15FFD4F21E0208324
S11308C061E00E947E0F8DC0823381F481E1860F46
S11308D0B4DD82E3C9DD8C2F90E0FC01E15FFD4FC4
S11308E022E0208362E00E947E0F7BC0833381F488
S11308F081E1860FA2DD83E3B7DD8C2F90E0FC015C
S1130900E15FFD4F23E0208363E00E947E0F69C016
S1130910843381F481E1860F90DD84E3A5DD8C2F9F
S113092090E0FC01E15FFD4F24E0208364E00E943D
S11309307E0F57C0853381F481E1860F7EDD85E328
S113094093DD8C2F90E0FC01E15FFD4F25E02083D7
S113095065E00E947E0F45C0863381F481E1860FF5
S11309606CDD86E381DD8C2F90E0FC01E15FFD4FBF
S113097026E0208366E00E947E0F33C0873381F433
S113098081E1860F5ADD87E36FDD8C2F90E0FC0157
S1130990E15FFD4F27E0208367E00E947E0F21C0C6
S11309A0883381F481E1860F48DD88E35DDD8C2F97
S11309B090E0FC01E15FFD4F28E0208368E00E94A5
S11309C07E0F0FC081E1860F38DD89E34DDD8C2F6A
S11309D090E0FC01E15FFD4F29E0208369E00E9483
S11309E07E0FCF9108950F931F93CF93DF930E94AF
S11309F0550F0E94520FC7E0D2E00AE010E0B801A0
S1130A000E94DB0E88830E94520FB8010E94DB0E05
S1130A1089830E94520FB8010E94DB0E8A830E94D0
S1130A20520FB8010E94DB0E8B83DF91CF911F918F
S1130A300F91089580916709813021F460E08091DD
S1130A4006094FDC80916709882319F0813099F0F9
S1130A5019C08091C00085FF17C0809108098130BA
S1130A6021F48FEF8093060902C01092060981E0F9
S1130A708093670908958091C00086FF05C0109295
S1130A806709089510926709089510926709D2DFE3
S1130A908AE090E00E941A0EFACFAF92BF92CF92F2
S1130AA0DF92EF92FF920F93A12CB12CC12CD12C89
S1130AB0E12CF12C082F20E030E045E550E065E51D
S1130AC072E085E495E03ED60F91FF90EF90DF90C1
S1130AD0CF90BF90AF90089580916509813031F433
S1130AE080E011DC8093070980E0DEDB80916509FA
S1130AF0882319F01092650908958091C000882315
S1130B001CF481E080936509089510926509E4DF7F
S1130B108AE090E00E941A0EFACFAF92BF92CF9271
S1130B20DF92EF92FF920F93A12CB12CC12CD12C08
S1130B30E12CF12C082F20E030E045E550E062E69E
S1130B4072E085E895E0FED50F91FF90EF90DF907D
S1130B50CF90BF90AF900895CF93DF93E091680951
S1130B608E2F90E08B30910508F08EC2FC01EA5B79
S1130B70FF4F0C94EE0E8091070947DD82E08093CD
S1130B80680982C2D2DB8093FC08811107C082E02D
S1130B90809368098091070938DD76C28134C9F4ED
S1130BA083E08093680963E372E081E066DC10927D
S1130BB005091092F908EBE0F2E01082118212822A
S1130BC01382E3E3F2E080E2808B818B828B838B60
S1130BD05BC2823461F485E08093680969E772E05E
S1130BE081E04BDC1092FB081092FA084DC282E0BF
S1130BF08093680949C299DB8093FC0891E0909343
S1130C00680990910009913081F090910109913027
S1130C1061F090910209913041F090910309913073
S1130C2021F090910409913041F48AE0809368099D
S1130C306EE972E081E021DC27C2882321F09EEB7B
S1130C40980F933028F460EB72E081E016DC1CC24C
S1130C508134C9F483E08093680963E372E081E03E
S1130C600CDC109205091092F908EBE0F2E0108216
S1130C70118212821382E3E3F2E080E2808B818BA3
S1130C80828B838B01C260EB72E081E0F6DB109211
S1130C90FF08FAC14ADB8093FC08882341F09FEBEC
S1130CA0980F923020F08A3211F0833241F483E0BD
S1130CB08093680963E372E081E0DFDBE5C183349C
S1130CC061F480910809811104C082E0809368096D
S1130CD0DBC181E080936809D7C1843409F09FC0E7
S1130CE0A9DD81309105A1F480910509811123C00A
S1130CF080910809811106C081E0809308098093DE
S1130D006809C2C11092080982E080936809BCC1D5
S1130D10892B09F0B9C180910509811121C0809105
S1130D200809811104C082E080936809ADC181E0A3
S1130D3080936809A9C1809105098130E9F461ECC7
S1130D4072E09BDB81E279DB87E080936809109293
S1130D50F908EBE0F2E0108211821282138294C14E
S1130D6080910509813079F585E08093680969E708
S1130D7072E081E082DB88C1823089F589E080936A
S1130D8068098091FA089091FB082DDE61ED72E00C
S1130D9081E073DB81E151DBC7E0D2E08881805DD3
S1130DA063DB82E14ADB8981805D5EDB83E145DBD5
S1130DB08A81805D59DB84E140DB8B81805D54DB7B
S1130DC081E23BDB61C180910509823099F485E0C1
S1130DD08093680969E772E081E04FDB55C1809137
S1130DE00509833009F050C182E0809368091092AC
S1130DF008094AC1833009F047C1809368091092F9
S1130E00F908EBE0F2E01082118212821382E3E32C
S1130E10F2E080E2808B818B828B838B35C194E0FE
S1130E20909368096091F908643008F02DC170E06E
S1130E300CDC8091F9088F5F8093F90825C175DA7D
S1130E408093FC08811104C083E0809368091CC16D
S1130E5084E08093680918C168DA8093FC082091C3
S1130E60FA083091FB082F5F3F4F3093FB08209323
S1130E70FA08882331F09FEB980F923010F08434F5
S1130E8021F485E080936809FFC0833461F4809184
S1130E900809811104C082E080936809F5C081E0EB
S1130EA080936809F1C08A32B1F483E080936809C1
S1130EB01092F908EBE0F2E01082118212821382A0
S1130EC0E3E3F2E080E2808B818B828B838B81E091
S1130ED080930509D9C08332B1F483E08093680913
S1130EE01092F908EBE0F2E0108211821282138270
S1130EF0E3E3F2E080E2808B818B828B838B82E060
S1130F0080930509C1C085E080936809BDC00DDAEE
S1130F108093FC08882351F09FEB980F923030F0B7
S1130F20843421F08A3211F0833221F487E08093F3
S1130F306809AAC0833421F482E080936809A4C0BC
S1130F406091F908643031F482E08093680910926A
S1130F50F9089AC098E09093680991DC8091F908A7
S1130F608F5F8093F90890C0E0D98093FC088111C9
S1130F7004C087E08093680987C088E0809368098B
S1130F8083C0D3D98093FC08811104C089E0809385
S1130F9068097AC08332F9F4E7E0F2E06081CFE0D7
S1130FA0D2E068838181898382818A8383818B8370
S1130FB080E090E0A3D7698181E090E09FD76A81C7
S1130FC082E090E09BD76B8183E090E097D782E04A
S1130FD08093680959C0833421F482E080936809BE
S1130FE053C089E0809368094FC080910009813023
S1130FF031F482E122DA81E337DA81E21EDA809188
S11310000109813031F484E118DA82E32DDA81E2D6
S113101014DA80910209813031F486E10EDA83E337
S113102023DA81E20ADA80910309813031F488E11C
S113103004DA84E319DA81E200DA80910409813068
S113104031F48AE1FAD985E30FDA81E2F6D96DD970
S11310508093FC088134A9F493E09093680910927A
S1131060F908EBE0F2E01082118212821382E3E3CA
S1131070F2E080E2808B818B828B838B90930509D5
S113108003C08AE080936809DF91CF91089510929C
S1131090680962DD8AE090E0CDD5FBCFAF92BF92C4
S11310A0CF92DF92EF92FF920F93A12CB12CC12C1F
S11310B0D12CE12CF12C082F20E030E045E550E064
S11310C060EE72E087E498E03DD30F91FF90EF90DB
S11310D0DF90CF90BF90AF90089580916A098823E4
S11310E019F0823021F029C01092FD082DC08091A2
S11310F0070980FF05C091E0909300099093FD08D3
S113110081FF05C021E0209301092093FD0882FF9F
S113111005C021E0209302092093FD0883FF05C048
S113112021E0209303092093FD0884FF41C081E05E
S1131130809304098093FD083BC08130C1F020F006
S1131140823009F040C034C080910809813019F41C
S113115080936A09089510926A09E0E0F9E0108228
S113116011821282138214821092FE0808958091D3
S1131170FE088F5F8093FE0890910809911105C0C5
S113118010926A091092FE0808958A3020F481E0D2
S113119080936A09089582E080936A09E0E0F9E0A7
S11311A0108211821282138214821092FE08089512
S11311B080910809813021F482E080936A090895BE
S11311C010926A09089510926A09089581E0809343
S11311D06A0983DF88EC90E02DD5FBCFAF92BF92F4
S11311E0CF92DF92EF92FF920F93A12CB12CC12CDE
S11311F0D12CE12CF12C082F20E030E045E550E023
S11312006CEE72E086EE98E09DD20F91FF90EF9025
S1131210DF90CF90BF90AF900895809166098111BF
S11312200BC080910809813021F487E891E085D9C9
S113123003C087E091E081D9109266090895109265
S11312406609EBDF81E090E0F5D4FBCFAF92BF926B
S1131250CF92DF92EF92FF920F93A12CB12CC12C6D
S1131260D12CE12CF12C082F20E030E045E550E0B2
S113127069EF72E08FE199E065D20F91FF90EF90F2
S1131280DF90CF90BF90AF90089580916B0982302A
S113129051F0833079F0813099F48091F8088F5FB0
S11312A08093F8082FC08091F8088F5F8093F80826
S11312B02C9A06C08091F8088F5F8093F8082C98C8
S11312C080916B098130F1F028F0823071F1833024
S11312D0C1F14AC080910809882309F447C090915C
S11312E0FD08913041F4813009F040C080936B09CE
S11312F01092F8080895911139C08130B9F510920F
S1131300F808089580910809811103C010926B09AF
S113131008959091F80880910401981738F182E0BB
S113132080936B091092F80808959091F8088091C1
S113133006019817D8F083E080936B091092F8089F
S1131340089580910809811103C010926B090895D2
S11313509091F80880910501981740F082E08093FD
S11313606B091092F808089510926B090895109271
S11313706B098BDF81E090E05DD4FBCFAF92BF922D
S1131380CF92DF92EF92FF920F93A12CB12CC12C3C
S1131390D12CE12CF12C082F20E030E045E550E081
S11313A067E073E087EB99E0CDD10F91FF90EF9068
S11313B0DF90CF90BF90AF900895CF93DF9380EFED
S11313C081B98FE082B98FEF87B918B88AB91BB891
S11313D084B915B880E090E089D5CFE0D2E0888365
S11313E081E090E083D5898382E090E07FD58A8391
S11313F083E090E07BD58B8328D880E00E94320183
S113140081E04BDB81E089DB81E020DF81E046DEA7
S113141081E0E4DE81E0B2DF96D280E090E0DF910B
S1131420CF91089531E1FC013083319722E220838A
S11314303197A3E3A0833197608331977083319709
S11314401082319760E8608331971082319762E0AF
S11314506083319763E06083319764E06083319700
S113146065E06083319766E06083319767E060836D
S1131470319768E06083319769E06083319760E178
S1131480608331973083319732E13083319733E190
S11314903083319734E13083319735E130833197AC
S11314A036E13083319737E13083319738E1308347
S11314B0319739E13083319730E23083319731E22B
S11314C0308331972083319723E2208331974083FF
S11314D031975083319726E22083319727E2208386
S11314E0319728E22083319729E22083319720E342
S11314F02083319721E320838697089510928900F1
S11315008CE7809388008BE080938100EFE6F0E025
S1131510808182608083A0916309B0916409CD9138
S1131520CDBFDD91DEBFFF91EF91DF91CF91BF91F0
S1131530AF919F918F917F916F915F914F913F9167
S11315402F911F910F91FF90EF90DF90CF90BF905C
S1131550AF909F908F907F906F905F904F903F904F
S11315602F901F900F900FBE0F90089581E0089563
S11315700F920FB6F8940F921F9211242F923F925C
S11315804F925F926F927F928F929F92AF92BF928F
S1131590CF92DF92EF92FF920F931F932F933F937B
S11315A04F935F936F937F938F939F93AF93BF9367
S11315B0CF93DF93EF93FF93A0916309B0916409F4
S11315C00DB60D920EB60D928AD3A0916309B09117
S11315D06409CD91CDBFDD91DEBFFF91EF91DF9125
S11315E0CF91BF91AF919F918F917F916F915F91B7
S11315F04F913F912F911F910F91FF90EF90DF90AA
S1131600CF90BF90AF909F908F907F906F905F909E
S11316104F903F902F901F900F900FBE0F90089502
S11316200F920FB6F8940F921F9211242F923F92AB
S11316304F925F926F927F928F929F92AF92BF92DE
S1131640CF92DF92EF92FF920F931F932F933F93CA
S11316504F935F936F937F938F939F93AF93BF93B6
S1131660CF93DF93EF93FF93A0916309B091640943
S11316700DB60D920EB60D9295D131D3A09163099A
S1131680B0916409CD91CDBFDD91DEBFFF91EF91A3
S1131690DF91CF91BF91AF919F918F917F916F9186
S11316A05F914F913F912F911F910F91FF90EF9078
S11316B0DF90CF90BF90AF909F908F907F906F906E
S11316C05F904F903F902F901F900F900FBE0F9000
S11316D00895A6DF1895CF93DF93EC01E091630999
S11316E0F091640993838283809113099091140982
S11316F0C817D90768F460916309709164098091EF
S1131700290990912A096E5F7F4F0E94D10017C06A
S1131710609163097091640980912B0990912C095F
S11317206E5F7F4F0E94D1008091530290915402CA
S1131730C817D90720F4D0935402C0935302DF9101
S1131740CF9108954F925F926F927F928F929F9262
S1131750AF92BF92CF92DF92EF92FF920F931F93BB
S1131760CF93DF935C014B013A01290181E290E0C0
S11317700E947100EC01892B09F4D3C0C114D10477
S113178009F0CBC0C3010E947100988F8F8B009722
S113179021F4CE010E949700C4C0A30165EA70E061
S11317A08FD39301215031098F89988D3C01620EAA
S11317B0731E48E050E0B401CE01499688D318A2C4
S11317C0102F043008F013E01E8B6E0182E0C80E67
S11317D0D11CC6010E94A600CE010C960E94A60050
S11317E0D987C88784E090E0811B91099D878C8705
S11317F0DB8BCA8BA201B501C30114DE99838883F4
S1131800E114F10419F0F701D183C0830FB6F89401
S11318100F92809115098F5F809315098091630958
S113182090916409892BA9F5D0936409C093630945
S1131830809115098130E1F58FE399E00E949800C9
S113184088E499E00E94980081E599E00E9498005C
S11318508AE599E00E94980086E399E00E94980046
S11318608DE299E00E94980080E299E00E9498003D
S113187087E199E00E94980086E399E090932C090F
S113188080932B098DE299E090932A09809329098A
S11318900FC08091100981110BC0E0916309F09190
S11318A064098689081720F0D0936409C0936309FA
S11318B08E8990911209981710F4809312099091CF
S11318C00B099F5F90930B0990911109981710F4DD
S11318D08093110990E09C01220F331F220F331FC4
S11318E0220F331F820F931FB601815C964F0E9413
S11318F0AA000F900FBE80911009882351F0E09147
S11319006309F09164098689801728F431DE81E047
S113191009C081E007C081E005C0D88ECF8AC60126
S11319203CCF8FEFDF91CF911F910F91FF90EF90FC
S1131930DF90CF90BF90AF909F908F907F906F90EB
S11319405F904F900895AF92BF92CF92DF92EF9243
S1131950FF920F93A12CB12CC12CD12CE12CF12C92
S113196000E020E030E045E550E063E173E086E329
S11319709EE0E8DE813041F4F894809310091092DF
S1131980140910921309BADD0F91FF90EF90DF90C4
S1131990CF90BF90AF90089580910F098F5F80938F
S11319A00F0908950F931F93CF93DF9380910F092D
S11319B08111B2C0809113099091140901969093FA
S11319C01409809313098091130990911409892BA8
S11319D099F580912B0990912C0920912909309136
S11319E02A0930932C0920932B0990932A09809378
S11319F0290980910C098F5F80930C09E0912B09D0
S1131A00F0912C098081811107C08FEF9FEF909393
S1131A1054028093530210C0E0912B09F0912C09D9
S1131A200580F681E02D0680F781E02D8281938187
S1131A309093540280935302209113093091140916
S1131A4080915302909154022817390708F469C011
S1131A50E0912B09F0912C098081882399F0E09181
S1131A602B09F0912C090580F681E02DC681D781E0
S1131A708A819B8120911309309114092817390711
S1131A80F8F419C08FEF9FEF9093540280935302A0
S1131A9048C0E0912B09F0912C090580F681E02DD6
S1131AA0C681D7818A819B812091130930911409C1
S1131AB02817390728F4909354028093530231C0B5
S1131AC08E010E5F1F4FC8010E940C018C899D89F5
S1131AD0892B21F0CE010C960E940C018E899091E5
S1131AE01109981710F48093110990E09C01220FBA
S1131AF0331F220F331F220F331F820F931FB8018E
S1131B00815C964F0E94AA00E0912B09F0912C0968
S1131B1080818111BECFB6CF80910E098F5F8093F3
S1131B200E09DF91CF911F910F910895CF92DF920B
S1131B30EF92FF920F931F93CF93DF930FB6F89416
S1131B400F9280910F09815080930F0980910F09A2
S1131B50811162C080911509811132C060C0D70122
S1131B601596ED91FC911697C681D781CE010C96FE
S1131B700E940C018E010E5F1F4FC8010E940C01D0
S1131B808E8990911109981710F48093110990E0AF
S1131B909C01220F331F220F331F220F331F820F8A
S1131BA0931FB801815C964F0E94AA00E0916309DB
S1131BB0F09164099E898689981758F0DC2C09C035
S1131BC0D12C0F2EF0E2EF2EF9E0FF2EF02DCC24D5
S1131BD0C394F70180818111C2CF80910E098823BB
S1131BE079F080910E09882391F0DCDE80910E0952
S1131BF0815080930E0980910E098111F6CF07C0A0
S1131C00F1E0DF1621F080910D09813039F4109252
S1131C100D09AEDC81E003C080E001C080E00F90DC
S1131C200FBEDF91CF911F910F91FF90EF90DF9046
S1131C30CF900895CF93DF93EC01892B99F0ACDE1C
S1131C408091130990911409C80FD91F80916309D9
S1131C509091640902960E940C01CE013CDD66DF7E
S1131C60811101C085DCDF91CF9108950F2EF7E13A
S1131C70EF2EF9E0FF2EF02DCFE3D9E08091160985
S1131C80882341F189DED7011C9150DF112311F122
S1131C900FB6F8940F92D7011596ED91FC91169713
S1131CA006811781C80102960E940C0180911509D2
S1131CB081508093150980911609815080931609EB
S1131CC00F900FBEF8018789908D0E949700C8017C
S1131CD00E9497008881823088F24ADCCFCF8091BD
S1131CE00F09811113C08091110990E0FC01EE0FDE
S1131CF0FF1FEE0FFF1FEE0FFF1F8E0F9F1FFC0134
S1131D00E15CF64F8081882329F01BC081E0809339
S1131D100D090895809111098150809311098091D2
S1131D20110990E0FC01EE0FFF1FEE0FFF1FEE0FF5
S1131D30FF1F8E0F9F1FFC01E15CF64F80818823FB
S1131D4049F38091110990E09C01220F331F220F67
S1131D50331F220F331F280F391FD901A15CB64F3F
S1131D601196ED91FC9112970280F381E02D129669
S1131D70FC93EE9311972E5B364FE217F30729F489
S1131D8022813381FD0132832183FC01EE0FFF1F89
S1131D90EE0FFF1FEE0FFF1F8E0F9F1FFC01E15C74
S1131DA0F64F0180F281E02D86819781909364093A
S1131DB080936309089597FB072E16F4009406D0C8
S1131DC077FD08D014D007FC05D03EF4909581959A
S1131DD09F4F0895709561957F4F0895EE0FFF1FF3
S1131DE00024001C0BBE0790F691E02D0994AA1B59
S1131DF0BB1B51E107C0AA1FBB1FA617B70710F0F2
S1131E00A61BB70B881F991F5A95A9F78095909523
S1131E10BC01CD0108958F929F92AF92BF92CF9251
S1131E20DF92EF92FF92CF93DF93EC016881798187
S1131E308A819B81611571058105910521F464E214
S1131E4079ED8BE597E02DE133EF41E050E064D08C
S1131E5049015A019B01AC01A7EAB1E479D06B01B5
S1131E607C01ACEEB4EFA50194017ED0DC01CB0182
S1131E708C0D9D1DAE1DBF1DB7FF03C00197A109A9
S1131E80B04888839983AA83BB839F77DF91CF91DE
S1131E90FF90EF90DF90CF90BF90AF909F908F9086
S1131EA00895B9CF80E091E0B6CFA0E0B0E0809390
S1131EB0000190930101A0930201B09303010895DE
S1131EC0DC0101C06D9341505040E0F70895FB01DF
S1131ED0DC014150504048F001900D920020C9F7B8
S1131EE001C01D9241505040E0F70895F999FECF8A
S1131EF092BD81BDF89A992780B50895262FF99946
S1131F00FECF1FBA92BD81BD20BD0FB6F894FA9AD8
S1131F10F99A0FBE01960895052E97FB16F40094C6
S1131F200FD057FD05D024D007FC02D046F408C0DA
S1131F3050954095309521953F4F4F4F5F4F0895F1
S1131F4090958095709561957F4F8F4F9F4F089521
S1131F5031D0A59F900DB49F900DA49F800D911D2D
S1131F6011240895B7FFF4CFF3DF821B930B089578
S1131F70A1E21A2EAA1BBB1BFD010DC0AA1FBB1F89
S1131F80EE1FFF1FA217B307E407F50720F0A21BFB
S1131F90B30BE40BF50B661F771F881F991F1A9468
S1131FA069F760957095809590959B01AC01BD0192
S1131FB0CF010895A29FB001B39FC001A39F700DEC
S1131FC0811D1124911DB29F700D811D1124911D3D
S1091FD00895F894FFCF10
S1131FD601000000FA323200000000000001000196
S1131FE600000000000000000000000100000000E6
S1131FF600010000000000000000000000000000D6
S113200600000001000000000000000000000000C5
S113201600000001000000000001000100010001B1
S113202600010001000000000001000100000000A2
S11320360001000100000000000100010000000092
S11320460001000100000000000100010001000180
S11320560001000100000000000000000001000172
S11320660000000000000000000000010000000065
S11320760001000000000000000100000000000054
S11320860000000100000000000100000000000044
S11320960000000100000000000100010001000131
S11320A60001000100000000000100010000000022
S11320B60001000100000000000100010000000012
S11320C60001000100000000000100010001000100
S11320D60001000100000004030201202020200169
S11320E602030444697361726D6564202020202014
S11320F620202054656D703A303020432020202063
S1132106202020454E54455220504153534B4559A7
S113211620202020202020202020202020202020B5
S1132126202020FFFF5472616E73536563546173FC
S11321366B005265635365635461736B0054656D3C
S1132146705365635461736B002A2055736572205E
S113215650617373776F7264206F7220232052610B
S11321666E646F6D2050617373776F72640054727E
S113217669707065642053656E736F7228732900E5
S113218673797374656D2069732061726D6564215A
S113219600456E7465722034204E756D62657273E7
S11321A60052616E646F6D20706173736B657900A4
S11321B64D656E755365635461736B0053656E7339
S11321C6655365635461736B004D6174726978532A
S11321D665635461736B0042757A7A53656354611F
S10B21E6736B0049444C4500F1
S9030000FC
