:100000004FC000006BC0000069C0000067C0000066
:1000100065C0000063C0000061C000005FC0000058
:100020005DC000005BC0000059C0000057C0000068
:1000300055C00000A2C7000051C000004FC0000022
:100040004DC000004BC0000049C0000047C0000088
:1000500045C0000043C0000041C000003FC0000098
:100060003DC000003BC0000039C0000037C00000A8
:1000700035C0000033C0000031C000002FC00000B8
:100080002DC000002BC0000029C000003104740402
:100090003804A9045C0569052B06C405F105FE05B5
:1000A00011241FBECFEFD0E4DEBFCDBF11E0A0E032
:1000B000B1E0E4E3F8E100E00BBF02C007900D926D
:1000C000AC3DB107D9F728E0ACEDB1E001C01D921D
:1000D000A132B207E1F7E8D50C94180C91CFCF9379
:1000E000DF93EC010E9411092091DC013091DD01C8
:1000F000C9018C0F9D1F8C3D45E0940758F42817CB
:10010000390758F4E901C252DE4F9093DD01809324
:10011000DC0105C0C0E0D0E002C0C0E0D0E00E9439
:10012000DB09CE01DF91CF9108950895FC0103967C
:10013000928381832FEF3FEF3483238396838583DC
:100140009087878310820895FC0111861086089598
:10015000CF93DF93FC01DB0121813281E9018A81A8
:100160009B8113969C938E93129781819281159611
:100170009C938E9314978A819B81EC017D836C8381
:10018000E9017B836A83728361831996FC93EE9302
:10019000189780818F5F8083DF91CF910895CF93EF
:1001A000DF93EB01488159814F3F2FEF520731F424
:1001B000DC011796ED91FC91189717C0FC0133965E
:1001C000DC0115962D913C911697D9012D913C910A
:1001D0004217530750F00280F381E02DA281B381D2
:1001E0002D913C9142175307B0F7A281B381BB8395
:1001F000AA831596DC93CE931497FD83EC83D38367
:10020000C28399878887FC0120812F5F2083DF913B
:10021000CF910895FC01A281B381848195811596C7
:100220009C938E931497A481B581828193811396B8
:100230009C938E931297A085B18511968D919C9178
:100240001297E817F90731F48481958112969C93EF
:100250008E931197118610868C9181508C930895FE
:100260008FEE82B90000009B44C080B1809581FD73
:1002700042C080B1809582FD40C080B1809583FDF1
:100280003EC08FED82B90000009B3BC080B18095DD
:1002900081FD39C080B1809582FD37C080B18095E5
:1002A00083FD35C08FEB82B90000009B32C080B166
:1002B000809581FD30C080B1809582FD2EC080B1D7
:1002C000809583FD2CC08FE782B9000090B1909596
:1002D000892F817090FD25C090B1909591FD23C02C
:1002E00090B1909592FD21C090B1909593FD1FC063
:1002F000089581E3089584E3089587E308958AE2E9
:10030000089582E3089585E3089588E3089580E3DE
:10031000089583E3089586E3089589E3089583E2C9
:10032000089581E4089582E4089583E4089584E4BF
:100330000895181619065CF008950000215031093F
:10034000E1F74F5F5F4F8417950719F4089540E078
:1003500050E027E033E0F1CF5E9888B95F9A000063
:100360005F9882E090E0E5CF089581E0F5CF0895B1
:10037000813118F48158F0CF08958155EDCF08955B
:1003800084E690E0D6DF88E3E7DF86E0E5DF8FE014
:10039000E3DF81E0E1DF8AE090E0CBCF08955E9A71
:1003A00088B95F9A00005F9881E090E0C2CF08951D
:1003B0000F931F93CF93DF93182FEB01D6DF888124
:1003C000882351F001E0010F812FD2DF8991E7DF0F
:1003D000102F88818111F6CFDF91CF911F910F915E
:1003E0000895811106C0FB01E05FFE4F80E380832A
:1003F0000895813031F4FB01E05FFE4F81E380839B
:100400000895823031F4FB01E05FFE4F82E3808388
:100410000895833031F4FB01E05FFE4F83E3808376
:100420000895843031F4FB01E05FFE4F84E3808364
:100430000895853031F4FB01E05FFE4F85E3808352
:100440000895863031F4FB01E05FFE4F86E3808340
:100450000895873031F4FB01E05FFE4F87E380832E
:100460000895883031F4FB01E05FFE4F88E380831C
:100470000895FB01E05FFE4F89E3808308959DECC2
:10048000899F912D11249695969596959093BB07EB
:10049000392F330F232F220F220F230F821B80931C
:1004A000BA0765E170E0892F9CDF66E170E080911A
:1004B000BA0797DF60E171E081E07ACF0895803379
:1004C000A1F46115710529F410920801809340018F
:1004D0000895FB01E85FFE4F1082FB01E05DFE4FD7
:1004E00080E3808B8AE2878708958133B9F46115B0
:1004F000710539F481E08093080181E38093400124
:100500000895FB01E85FFE4F81E08083FB01E05D21
:10051000FE4F81E3808B8AE2878708958233B9F4A6
:100520006115710539F482E08093080182E38093BC
:1005300040010895FB01E85FFE4F82E08083FB01EC
:10054000E05DFE4F82E3808B8AE2878708958333E4
:10055000B9F46115710539F483E08093080183E3F0
:10056000809340010895FB01E85FFE4F83E08083A4
:10057000FB01E05DFE4F83E3808B8AE2878708956D
:100580008433B9F46115710539F484E0809308016E
:1005900084E3809340010895FB01E85FFE4F84E00F
:1005A0008083FB01E05DFE4F84E3808B8AE28787D6
:1005B00008958533B9F46115710539F485E08093A8
:1005C000080185E3809340010895FB01E85FFE4F39
:1005D00085E08083FB01E05DFE4F85E3808B8AE24E
:1005E000878708958633B9F46115710539F486E07B
:1005F0008093080186E3809340010895FB01E85F42
:10060000FE4F86E08083FB01E05DFE4F86E3808B3A
:100610008AE2878708958733B9F46115710539F443
:1006200087E08093080187E3809340010895FB01F0
:10063000E85FFE4F87E08083FB01E05DFE4F87E3CC
:10064000808B8AE2878708958833B9F46115710534
:1006500039F488E08093080188E38093400108958D
:10066000FB01E85FFE4F88E08083FB01E05DFE4F09
:1006700088E3808B8AE2878708956115710539F4D4
:1006800089E08093080189E3809340010895FB018C
:10069000E85FFE4F89E08083FB01E05DFE4F89E368
:1006A000808B8AE28787089590910C0180910801E0
:1006B000981316C090910D0180910901981313C0F1
:1006C00090910E0180910A01981310C081E090E092
:1006D00030910F0120910B01321751F080E0089505
:1006E00080E090E0089580E090E0089580E090E060
:1006F0000895CF93C62F803359F481E1860F38DEF9
:1007000080E34DDEEC2FF0E0E45FFE4F10827BC013
:10071000813361F481E1860F2BDE81E340DEEC2F33
:10072000F0E0E45FFE4F81E080836DC0823361F4CE
:1007300081E1860F1DDE82E332DEEC2FF0E0E45F24
:10074000FE4F82E080835FC0833361F481E1860FD6
:100750000FDE83E324DEEC2FF0E0E45FFE4F83E066
:10076000808351C0843361F481E1860F01DE84E32C
:1007700016DEEC2FF0E0E45FFE4F84E0808343C0A0
:10078000853361F481E1860FF3DD85E308DEEC2F2C
:10079000F0E0E45FFE4F85E0808335C0863361F48E
:1007A00081E1860FE5DD86E3FADDEC2FF0E0E45F22
:1007B000FE4F86E0808327C0873361F481E1860F96
:1007C000D7DD87E3ECDDEC2FF0E0E45FFE4F87E060
:1007D000808319C0883361F481E1860FC9DD88E325
:1007E000DEDDEC2FF0E0E45FFE4F88E080830BC09D
:1007F00081E1860FBDDD89E3D2DDEC2FF0E0E45F1F
:10080000FE4F89E08083CF9108950F931F93CF937C
:10081000DF9390D78CD7C4E0D1E00AE010E0B801B4
:100820000FD7888384D7B8010BD7898380D7B801C5
:1008300007D78A837CD7B80103D78B83DF91CF9109
:100840001F910F910895CF93DF93E0911F088E2F92
:1008500090E08A30910508F0FEC1FC01EA5BFF4F91
:1008600002C78091C1070BDE82E080931F08F3C1AD
:10087000F7DC8093BF0715B88091BF07811107C0CF
:1008800082E080931F088091C107F9DDE4C18134C3
:10089000C9F483E080931F0860E371E081E088DDA4
:1008A0001092C0071092BC07E8E0F1E010821182BC
:1008B00012821382E0E3F1E080E2808B818B828BF5
:1008C000838BC9C1823461F485E080931F0866E799
:1008D00071E081E06DDD1092BE071092BD07BBC1D3
:1008E00082E080931F08B7C1BBDC8093BF078FEF06
:1008F00085B981E080931F088091BF07882321F08C
:100900009EEB980F933028F46BE971E081E050DDA5
:10091000A2C18134C9F483E080931F0860E371E0D1
:1009200081E046DD1092C0071092BC07E8E0F1E0DC
:100930001082118212821382E0E3F1E080E2808B68
:10094000818B828B838B87C16BE971E081E030DD25
:1009500082C186DC8093BF07882341F09FEB980F0C
:10096000923020F08A3211F0833241F483E0809398
:100970001F0860E371E081E01BDD6DC1833461F429
:100980008091C207811104C082E080931F0863C177
:1009900081E080931F085FC1843409F07DC084DE4C
:1009A0008130910509F054C18091C007811120C0A8
:1009B0008091C207811106C081E08093C2078093B5
:1009C0001F0849C11092C20782E080931F0843C1EB
:1009D0008091C00781111FC08091C207811104C09E
:1009E00082E080931F0837C181E080931F0833C1E4
:1009F0008130E9F46CEA71E0DBDC81E2B9DC87E0AC
:100A000080931F081092BC07E8E0F1E01082118289
:100A10001282138220C18091C007813091F585E058
:100A200080931F0866E771E081E0C2DC14C1809109
:100A3000C007823009F00FC189E080931F088091C0
:100A4000BD079091BE07E1DE6CEB71E081E0B0DCA8
:100A500081E18EDCC4E0D1E08881805DA0DC82E1B0
:100A600087DC8981805D9BDC83E182DC8A81805D1B
:100A700096DC84E17DDC8B81805D91DC81E278DC39
:100A8000EAC0823009F0E7C085E080931F0866E77E
:100A900071E081E08DDCDFC094E090931F086091ED
:100AA000BC07643008F0D7C070E009DD8091BC0756
:100AB0008F5F8093BC07CFC0D3DB8093BF078111CA
:100AC00004C083E080931F08C6C084E080931F08A1
:100AD000C2C0C6DB8093BF072091BD073091BE071F
:100AE0002F5F3F4F3093BE072093BD07882331F01F
:100AF0009FEB980F923010F0843421F485E08093BE
:100B00001F08A9C0833461F48091C207811104C019
:100B100082E080931F089FC081E080931F089BC0E4
:100B20008A32B1F483E080931F081092BC07E8E09A
:100B3000F1E01082118212821382E0E3F1E080E2A0
:100B4000808B818B828B838B81E08093C00783C0F5
:100B50008332B1F483E080931F081092BC07E8E071
:100B6000F1E01082118212821382E0E3F1E080E270
:100B7000808B818B828B838B82E08093C0076BC0DC
:100B800085E080931F0867C06BDB8093BF078823D5
:100B900051F09FEB980F923030F0843421F08A327C
:100BA00011F0833221F487E080931F0854C083340E
:100BB00021F482E080931F084EC06091BC0764302E
:100BC00031F482E080931F081092BC0744C098E083
:100BD00090931F088EDD8091BC078F5F8093BC07C8
:100BE0003AC03EDB8093BF07811104C087E0809349
:100BF0001F0831C088E080931F082DC031DB80932F
:100C0000BF07811104C089E080931F0824C083328C
:100C1000A9F4ECE0F1E0A4E0B1E08C9180831196BE
:100C20008C911197818312968C91129782831396DF
:100C30008C91838382E080931F080DC0833421F45C
:100C400082E080931F0807C089E080931F0803C0DB
:100C5000892B09F4BDCEDF91CF91089510921F0822
:100C6000F2DD8AE090E02BD4FBCFAF92BF92CF921F
:100C7000DF92EF92FF920F93A12CB12CC12CD12CBB
:100C8000E12CF12C082F20E030E045E550E06BEC42
:100C900071E08EE296E0A8D10F91FF90EF90DF9087
:100CA000CF90BF90AF90089580EF81B98FE082B967
:100CB0008FEF87B918B88AB91BB884B915B860DB4B
:100CC00081E0D3DF85D280E090E0089531E1FC013E
:100CD0003083319722E220833197A3E3A0833197B9
:100CE00060833197708331971082319760E8608319
:100CF00031971082319762E06083319763E06083BF
:100D0000319764E06083319765E06083319766E0F6
:100D10006083319767E06083319768E06083319743
:100D200069E06083319760E1608331973083319768
:100D300032E13083319733E13083319734E13083CE
:100D4000319735E13083319736E13083319737E1A0
:100D50003083319738E13083319739E130833197EF
:100D600030E23083319731E23083319720833197FD
:100D700023E220833197408331975083319726E2D5
:100D80002083319727E22083319728E2208331970F
:100D900029E22083319720E32083319721E32083C8
:100DA00086970895109289008CE7809388008BE0E5
:100DB00080938100EFE6F0E0808182608083A091E3
:100DC0001B08B0911C08CD91CDBFDD91DEBFFF9116
:100DD000EF91DF91CF91BF91AF919F918F917F91D3
:100DE0006F915F914F913F912F911F910F91FF90C4
:100DF000EF90DF90CF90BF90AF909F908F907F90BB
:100E00006F905F904F903F902F901F900F900FBE6C
:100E10000F90089581E008950F920FB6F8940F9205
:100E20001F9211242F923F924F925F926F927F9266
:100E30008F929F92AF92BF92CF92DF92EF92FF92EA
:100E40000F931F932F933F934F935F936F937F93D2
:100E50008F939F93AF93BF93CF93DF93EF93FF93C2
:100E6000A0911B08B0911C080DB60D920EB60D9204
:100E70007BD3A0911B08B0911C08CD91CDBFDD9113
:100E8000DEBFFF91EF91DF91CF91BF91AF919F9125
:100E90008F917F916F915F914F913F912F911F9112
:100EA0000F91FF90EF90DF90CF90BF90AF909F9009
:100EB0008F907F906F905F904F903F902F901F90FA
:100EC0000F900FBE0F9008950F920FB6F8940F92E7
:100ED0001F9211242F923F924F925F926F927F92B6
:100EE0008F929F92AF92BF92CF92DF92EF92FF923A
:100EF0000F931F932F933F934F935F936F937F9322
:100F00008F939F93AF93BF93CF93DF93EF93FF9311
:100F1000A0911B08B0911C080DB60D920EB60D9253
:100F200086D122D3A0911B08B0911C08CD91CDBFD2
:100F3000DD91DEBFFF91EF91DF91CF91BF91AF9136
:100F40009F918F917F916F915F914F913F912F91E1
:100F50001F910F91FF90EF90DF90CF90BF90AF90D7
:100F60009F908F907F906F905F904F903F902F90C9
:100F70001F900F900FBE0F900895A6DF1895CF9386
:100F8000DF93EC01E0911B08F0911C0893838283AE
:100F90008091CB079091CC07C817D90760F4609176
:100FA0001B0870911C088091E1079091E2076E5F29
:100FB0007F4FF5D816C060911B0870911C08809176
:100FC000E3079091E4076E5F7F4FE9D8809150016D
:100FD00090915101C817D90720F4D0935101C093C3
:100FE0005001DF91CF9108954F925F926F927F925F
:100FF0008F929F92AF92BF92CF92DF92EF92FF9229
:101000000F931F93CF93DF935C014B013A012901AA
:1010100081E290E064D8EC01892B09F4C7C0C114C7
:10102000D10409F0BFC0C3015AD8988F8F8B0097A5
:1010300019F4CE017AD8BAC0A30165EA70E085D36D
:101040009301215031098F89988D3C01620E731EE6
:1010500048E050E0B401CE0149967ED318A2102F8B
:10106000043008F013E01E8B6E0182E0C80ED11C24
:10107000C6016AD8CE010C9667D8D987C88784E0A4
:1010800090E0811B91099D878C87DB8BCA8BA20125
:10109000B501C3011BDE99838883E114F10419F0C3
:1010A000F701D183C0830FB6F8940F928091CD07DA
:1010B0008F5F8093CD0780911B0890911C08892B2E
:1010C00069F5D0931C08C0931B088091CD0781302F
:1010D000A1F587EF97E02AD880E098E027D889E04B
:1010E00098E024D882E198E021D88EEE97E01ED8CF
:1010F00085EE97E01BD888ED97E018D88FEC97E045
:1011000015D88EEE97E09093E4078093E30785EE81
:1011100097E09093E2078093E1070FC08091C807A2
:1011200081110BC0E0911B08F0911C0886890817FB
:1011300020F0D0931C08C0931B088E899091CA0799
:10114000981710F48093CA079091C3079F5F9093FC
:10115000C3079091C907981710F48093C90790E0CE
:101160009C01220F331F220F331F220F331F820FC8
:10117000931FB6018950984F0E94A8000F900FBE90
:101180008091C807882351F0E0911B08F0911C085A
:101190008689801728F440DE81E009C081E007C01D
:1011A00081E005C0D88ECF8AC60146CF8FEFDF9190
:1011B000CF911F910F91FF90EF90DF90CF90BF9054
:1011C000AF909F908F907F906F905F904F90089519
:1011D000AF92BF92CF92DF92EF92FF920F93A12C2A
:1011E000B12CC12CD12CE12CF12C00E020E030E01E
:1011F00045E550E067ED71E08BE79AE0F5DE813080
:1012000041F4F8948093C8071092CC071092CB0752
:10121000C9DD0F91FF90EF90DF90CF90BF90AF901E
:1012200008958091C7078F5F8093C70708950F9334
:101230001F93CF93DF938091C7078111B2C0809134
:10124000CB079091CC0701969093CC078093CB0766
:101250008091CB079091CC07892B99F58091E3077A
:101260009091E4072091E1073091E2073093E40781
:101270002093E3079093E2078093E1078091C407EE
:101280008F5F8093C407E091E307F091E4078081CA
:10129000811107C08FEF9FEF909351018093500110
:1012A00010C0E091E307F091E4070580F681E02D9E
:1012B0000680F781E02D8281938190935101809384
:1012C00050012091CB073091CC0780915001909133
:1012D00051012817390708F469C0E091E307F0913C
:1012E000E4078081882399F0E091E307F091E40717
:1012F0000580F681E02DC681D7818A819B8120916E
:10130000CB073091CC0728173907F8F419C08FEFB5
:101310009FEF909351018093500148C0E091E30703
:10132000F091E4070580F681E02DC681D7818A819E
:101330009B812091CB073091CC072817390728F4DF
:10134000909351018093500131C08E010E5F1F4F69
:10135000C8010E940A018C899D89892B21F0CE0148
:101360000C960E940A018E899091C907981710F473
:101370008093C90790E09C01220F331F220F331F77
:10138000220F331F820F931FB8018950984F0E947C
:10139000A800E091E307F091E40780818111BECFBE
:1013A000B6CF8091C6078F5F8093C607DF91CF913C
:1013B0001F910F910895CF92DF92EF92FF920F93BA
:1013C0001F93CF93DF930FB6F8940F928091C707C6
:1013D00081508093C7078091C707811162C08091B7
:1013E000CD07811132C060C0D7011596ED91FC91F7
:1013F0001697C681D781CE010C960E940A018E01F4
:101400000E5F1F4FC8010E940A018E899091C90783
:10141000981710F48093C90790E09C01220F331FA6
:10142000220F331F220F331F820F931FB8018950E1
:10143000984F0E94A800E0911B08F0911C089E891B
:101440008689981758F0DC2C09C0D12C0F2EF8EDA6
:10145000EF2EF7E0FF2EF02DCC24C394F70180810E
:101460008111C2CF8091C607882379F08091C60789
:10147000882391F0DCDE8091C60781508093C607F7
:101480008091C6078111F6CF07C0F1E0DF1621F089
:101490008091C507813039F41092C507BDDC81E029
:1014A00003C080E001C080E00F900FBEDF91CF91BC
:1014B0001F910F91FF90EF90DF90CF900895CF9301
:1014C000DF93EC01892B99F0ACDE8091CB079091F2
:1014D000CC07C80FD91F80911B0890911C08029659
:1014E0000E940A01CE014BDD66DF811101C094DC50
:1014F000DF91CF9108950F2EFFECEF2EF7E0FF2E36
:10150000F02DC7EFD7E08091CE07882341F189DE27
:10151000D7011C9150DF112311F10FB6F8940F92EF
:10152000D7011596ED91FC91169706811781C80198
:1015300002960E940A018091CD0781508093CD07C9
:101540008091CE0781508093CE070F900FBEF80197
:101550008789908D0E949500C8010E94950088811E
:10156000823088F259DCCFCF8091C707811113C038
:101570008091C90790E0FC01EE0FFF1FEE0FFF1FE7
:10158000EE0FFF1F8E0F9F1FFC01E950F84F808167
:10159000882329F01BC081E08093C50708958091BE
:1015A000C90781508093C9078091C90790E0FC0169
:1015B000EE0FFF1FEE0FFF1FEE0FFF1F8E0F9F1F7F
:1015C000FC01E950F84F8081882349F38091C907D5
:1015D00090E09C01220F331F220F331F220F331F75
:1015E000280F391FD901A950B84F1196ED91FC91E0
:1015F00012970280F381E02D1296FC93EE931197DF
:101600002650384FE217F30729F422813381FD0178
:1016100032832183FC01EE0FFF1FEE0FFF1FEE0F41
:10162000FF1F8E0F9F1FFC01E950F84F0180F281D0
:10163000E02D8681978190931C0880931B08089564
:1016400097FB072E16F4009406D077FD08D014D02F
:1016500007FC05D03EF4909581959F4F08957095B5
:1016600061957F4F0895EE0FFF1F0024001C0BBEF5
:101670000790F691E02D0994AA1BBB1B51E107C00E
:10168000AA1FBB1FA617B70710F0A61BB70B881F12
:10169000991F5A95A9F780959095BC01CD010895A1
:1016A0008F929F92AF92BF92CF92DF92EF92FF9272
:1016B000CF93DF93EC01688179818A819B816115E9
:1016C00071058105910521F464E279ED8BE597E0E0
:1016D0002DE133EF41E050E04ED049015A019B012A
:1016E000AC01A7EAB1E463D06B017C01ACEEB4EFCE
:1016F000A501940168D0DC01CB018C0D9D1DAE1DB0
:10170000BF1DB7FF03C00197A109B0488883998323
:10171000AA83BB839F77DF91CF91FF90EF90DF90FB
:10172000CF90BF90AF909F908F900895B9CF80E0F9
:1017300091E0B6CFA0E0B0E080930001909301016A
:10174000A0930201B09303010895DC0101C06D93E1
:1017500041505040E0F70895FB01DC0141505040FA
:1017600048F001900D920020C9F701C01D92415030
:101770005040E0F70895052E97FB16F400940FD023
:1017800057FD05D024D007FC02D046F408C0509580
:101790004095309521953F4F4F4F5F4F089590955D
:1017A0008095709561957F4F8F4F9F4F089531D0F1
:1017B000A59F900DB49F900DA49F800D911D1124A5
:1017C0000895B7FFF4CFF3DF821B930B0895A1E2D6
:1017D0001A2EAA1BBB1BFD010DC0AA1FBB1FEE1FAB
:1017E000FF1FA217B307E407F50720F0A21BB30BF6
:1017F000E40BF50B661F771F881F991F1A9469F772
:1018000060957095809590959B01AC01BD01CF01CD
:101810000895A29FB001B39FC001A39F700D811DC9
:101820001124911DB29F700D811D1124911D0895E9
:04183000F894FFCF5A
:10183400010000000403020120202020010203040F
:1018440044697361726D656420202020202020206B
:1018540054656D703A303020432020202020202011
:10186400454E54455220504153534B455920202056
:101874002020202020202020202020202020202064
:10188400FFFF5472616E735365635461736B00524E
:1018940065635365635461736B0054656D70536580
:1018A400635461736B002A20557365722050617311
:1018B40073776F7264206F7220232052616E646F9D
:1018C4006D2050617373776F7264007379737465FC
:1018D4006D2069732061726D65642100456E7465C5
:1018E400722034204E756D626572730052616E64AD
:1018F4006F6D20706173736B6579004D656E755300
:0C19040065635461736B0049444C45005E
:00000001FF
