S01D0000434849505F315F436F6E74726F6C5F53797374656D2E737265632F
S113000050C000006DC000006BC0000069C000005B
S113001067C0000065C0000063C0000061C000004C
S11300205FC000005DC000005BC0000059C000005C
S113003057C000000C94090C53C0000051C00000CC
S11300404FC000004DC000004BC0000049C000007C
S113005047C0000045C0000043C0000041C000008C
S11300603FC000003DC000003BC0000039C000009C
S113007037C0000035C0000033C0000031C00000AC
S11300802FC000002DC000002BC00000BB051506CA
S1130090C2057A0652075F079008BA07E707F40714
S11300A02C0811241FBECFEFD0E4DEBFCDBF13E078
S11300B0A0E0B1E0E6E1F1E200E00BBF02C007908E
S11300C00D92AE31B107D9F729E0AEE1B3E001C03A
S11300D01D92A437B207E1F70E94770A0C948910A5
S11300E08FCFCF93DF93EC010E946C0D20911E0300
S11300F030911F03C9018C0F9D1F8C3D45E094076F
S113010058F42817390758F4E901C05EDC4F90937E
S11301101F0380931E0305C0C0E0D0E002C0C0E00E
S1130120D0E00E94360ECE01DF91CF91089508955C
S1130130FC010396928381832FEF3FEF3483238363
S1130140968385839087878310820895FC011186A6
S113015010860895CF93DF93FC01DB012181328166
S1130160E9018A819B8113969C938E9312978181D6
S1130170928115969C938E9314978A819B81EC01AE
S11301807D836C83E9017B836A837283618319961F
S1130190FC93EE93189780818F5F8083DF91CF91DA
S11301A00895CF93DF93EB01488159814F3F2FEF9F
S11301B0520731F4DC011796ED91FC91189717C0A2
S11301C0FC013396DC0115962D913C911697D901CB
S11301D02D913C914217530750F00280F381E02D9A
S11301E0A281B3812D913C9142175307B0F7A281AC
S11301F0B381BB83AA831596DC93CE931497FD83B6
S1130200EC83D383C28399878887FC0120812F5F85
S11302102083DF91CF910895FC01A281B381848171
S1130220958115969C938E931497A481B5818281B0
S1130230938113969C938E931297A085B185119602
S11302408D919C911297E817F90731F48481958177
S113025012969C938E931197118610868C918150DF
S11302608C930895813081F0E1ECF0E08081886125
S11302708083E2ECF0E080818660808383E3809376
S1130280C4001092C5000895E9ECF0E08081886113
S11302908083EAECF0E080818660808383E380934E
S11302A0CC001092CD000895813029F48091C800CB
S11302B0882374F008958091C00088238CF4A6EC00
S11302C0B0E0E0ECF0E08C9180818823E4F30895C1
S11302D0AEECB0E0E8ECF0E08C9180818823E4F3AC
S11302E00895613041F0E0ECF0E0908195FFFDCF9E
S11302F08093C6000895E8ECF0E0908195FFFDCF6F
S11303008093CE000895813041F0E0ECF0E08081EC
S11303108823ECF78091C6000895E8ECF0E0808132
S11303208823ECF78091CE0008958FEE82B9000007
S1130330009B44C080B1809581FD42C080B180950E
S113034082FD40C080B1809583FD3EC08FED82B9AF
S11303500000009B3BC080B1809581FD39C080B115
S1130360809582FD37C080B1809583FD35C08FEBC9
S113037082B90000009B32C080B1809581FD30C0FD
S113038080B1809582FD2EC080B1809583FD2CC004
S11303908FE782B9000090B19095892F817090FD0C
S11303A025C090B1909591FD23C090B1909592FD98
S11303B021C090B1909593FD1FC0089581E30895E5
S11303C084E3089587E308958AE2089582E3089513
S11303D085E3089588E3089580E3089583E3089509
S11303E086E3089589E3089583E2089581E40895F6
S11303F082E4089583E4089584E4089518161906A0
S11304005CF00895000021503109E1F74F5F5F4F20
S11304108417950719F4089540E050E027E033E08D
S1130420F1CF5E9888B95F9A00005F9882E090E00F
S1130430E5CF089581E0F5CF0895813118F481580E
S1130440F0CF08958155EDCF089584E690E0D6DF8E
S113045088E3E7DF86E0E5DF8FE0E3DF81E0E1DFEB
S11304608AE090E0CBCF08955E9A88B95F9A000045
S11304705F9881E090E0C2CF08950F931F93CF93CC
S1130480DF93182FEB01D6DF8881882351F001E038
S1130490010F812FD2DF8991E7DF102F888181112D
S11304A0F6CFDF91CF911F910F910895FC0120E0C9
S11304B030E058E055B945B1BF01022E02C076952F
S11304C067950A94E2F7962F9170942B95B9299A1F
S11304D02F5F3F4F2031310569F72A9A15B80895E7
S11304E0FB01DA0110821C9241E050E0022E02C0AE
S11304F0440F551F0A94E2F73081432B4083FC01DB
S113050030E1239FE00DF11D112420E030E041E0B3
S113051050E081919191892B51F48C91BA01022E72
S113052002C0660F771F0A94E2F7682B6C932F5F63
S11305303F4F2830310569F708950F931F93CF93E8
S11305408C01C0E02C2F40E159E061E179E0C80161
S1130550C7DF809110092091110990E0922BA6DF4A
S1130560CF5FC83079F7CF911F910F910895811112
S113057006C0FB01EC5EFD4F80E38083089581306B
S113058031F4FB01EC5EFD4F81E3808308958230FA
S113059031F4FB01EC5EFD4F82E3808308958330E8
S11305A031F4FB01EC5EFD4F83E3808308958430D6
S11305B031F4FB01EC5EFD4F84E3808308958530C4
S11305C031F4FB01EC5EFD4F85E3808308958630B2
S11305D031F4FB01EC5EFD4F86E3808308958730A0
S11305E031F4FB01EC5EFD4F87E38083089588308E
S11305F031F4FB01EC5EFD4F88E380830895FB0139
S1130600EC5EFD4F89E3808308959DEC899F912DD5
S113061011249695969596959093FD08392F330F4E
S1130620232F220F220F230F821B8093FC0865E1E6
S113063070E0892F9CDF66E170E08091FC0897DF11
S113064064E172E081E019CF08958033A1F461156B
S1130650710529F410920C02809344020895FB0161
S1130660E45FFD4F1082FB01EC5CFD4F80E3808B67
S11306708AE2878708958133B9F46115710539F4E5
S113068081E080930C0281E3809344020895FB018E
S1130690E45FFD4F81E08083FB01EC5CFD4F81E36F
S11306A0808B8AE2878708958233B9F461157105D6
S11306B039F482E080930C0282E38093440208952B
S11306C0FB01E45FFD4F82E08083FB01EC5CFD4FA6
S11306D082E3808B8AE2878708958333B9F46115B6
S11306E0710539F483E080930C0283E38093440220
S11306F00895FB01E45FFD4F83E08083FB01EC5C24
S1130700FD4F83E3808B8AE2878708958433B9F4AD
S11307106115710539F484E080930C0284E38093BD
S113072044020895FB01E45FFD4F84E08083FB01F4
S1130730EC5CFD4F84E3808B8AE2878708958533E0
S1130740B9F46115710539F485E080930C0285E3F1
S1130750809344020895FB01E45FFD4F85E08083AC
S1130760FB01EC5CFD4F85E3808B8AE2878708956B
S11307708633B9F46115710539F486E080930C026F
S113078086E3809344020895FB01E45FFD4F86E015
S11307908083FB01EC5CFD4F86E3808B8AE28787D4
S11307A008958733B9F46115710539F487E08093AE
S11307B00C0287E3809344020895FB01E45FFD4F3C
S11307C087E08083FB01EC5CFD4F87E3808B8AE24A
S11307D0878708958833B9F46115710539F488E081
S11307E080930C0288E3809344020895FB01E45F44
S11307F0FD4F88E08083FB01EC5CFD4F88E3808B38
S11308008AE2878708956115710539F489E0809338
S11308100C0289E3809344020895FB01E45FFD4FD9
S113082089E08083FB01EC5CFD4F89E3808B8AE2E5
S1130830878708959091100280910C02981316C036
S11308409091110280910D02981313C0909112029D
S113085080910E02981310C081E090E03091130251
S113086020910F02321751F080E0089580E090E06B
S1130870089580E090E0089580E090E00895CF939B
S1130880C62F803379F481E1860FD7DD80E3ECDD78
S11308908C2F90E0FC01E05FFD4F108260E00E942D
S11308A01E109FC0813381F481E1860FC6DD81E390
S11308B0DBDD8C2F90E0FC01E05FFD4F21E0208325
S11308C061E00E941E108DC0823381F481E1860FA5
S11308D0B4DD82E3C9DD8C2F90E0FC01E05FFD4FC5
S11308E022E0208362E00E941E107BC0833381F4E7
S11308F081E1860FA2DD83E3B7DD8C2F90E0FC015C
S1130900E05FFD4F23E0208363E00E941E1069C076
S1130910843381F481E1860F90DD84E3A5DD8C2F9F
S113092090E0FC01E05FFD4F24E0208364E00E943E
S11309301E1057C0853381F481E1860F7EDD85E387
S113094093DD8C2F90E0FC01E05FFD4F25E02083D8
S113095065E00E941E1045C0863381F481E1860F54
S11309606CDD86E381DD8C2F90E0FC01E05FFD4FC0
S113097026E0208366E00E941E1033C0873381F492
S113098081E1860F5ADD87E36FDD8C2F90E0FC0157
S1130990E05FFD4F27E0208367E00E941E1021C026
S11309A0883381F481E1860F48DD88E35DDD8C2F97
S11309B090E0FC01E05FFD4F28E0208368E00E94A6
S11309C01E100FC081E1860F38DD89E34DDD8C2FC9
S11309D090E0FC01E05FFD4F29E0208369E00E9484
S11309E01E10CF9108950F931F93CF93DF930E940E
S11309F0F50F0E94F20FC8E0D2E00AE010E0B8015F
S1130A000E947B0F88830E94F20FB8010E947B0F23
S1130A1089830E94F20FB8010E947B0F8A830E948F
S1130A20F20FB8010E947B0F8B83DF91CF911F914E
S1130A300F91089580916F09813021F460E08091D5
S1130A400D094FDC80916F09882319F0813099F0EA
S1130A5019C08091C00085FF17C080910F098130B3
S1130A6021F48FEF80930D0902C010920D0981E0EB
S1130A7080936F0908958091C00086FF05C010928D
S1130A806F09089510926F09089510926F09D2DFCB
S1130A908AE090E00E94BA0EFACFAF92BF92CF9252
S1130AA0DF92EF92FF920F93A12CB12CC12CD12C89
S1130AB0E12CF12C082F20E030E045E550E066E51C
S1130AC072E085E495E0DED60F91FF90EF90DF9021
S1130AD0CF90BF90AF90089580916C09813031F42C
S1130AE080E011DC80930E0980E0DEDB80916C09EC
S1130AF0882319F010926C0908958091C00088230E
S1130B001CF481E080936C09089510926C09E4DF71
S1130B108AE090E00E94BA0EFACFAF92BF92CF92D1
S1130B20DF92EF92FF920F93A12CB12CC12CD12C08
S1130B30E12CF12C082F20E030E045E550E061E0A5
S1130B4073E085E895E09ED60F91FF90EF90DF90DB
S1130B50CF90BF90AF900895CF93DF93E091700949
S1130B608E2F90E08B30910508F0DAC2FC01EA5B2D
S1130B70FF4F0C948E0F80910E0947DD82E0809325
S1130B807009CEC2D2DB80930309811121C0809108
S1130B900401823031F48093700980910E0935DDAF
S1130BA0BFC2811109C082E080937009809304015F
S1130BB080910E092ADDB4C281E08093700992E02D
S1130BC09093040180930F096FE672E056DCA8C28B
S1130BD08134C9F483E08093700964E372E081E0B6
S1130BE04CDC10920C0910920009ECE0F2E0108247
S1130BF0118212821382E4E3F2E080E2808B818B23
S1130C00828B838B8DC2823461F485E0809370097A
S1130C1060E872E081E031DC10920209109201096F
S1130C207FC282E0809370097BC27FDB80930309DB
S1130C3091E09093700990910709913081F090911F
S1130C400809913061F090910909913041F0909137
S1130C500A09913021F090910B09913041F48AE016
S1130C608093700965EA72E081E007DC59C2882349
S1130C7021F09EEB980F9330D8F4809104018230D8
S1130C8029F46FE672E081E0F8DB4AC2813041F476
S1130C9082E0809304016FE672E081E0EEDB40C203
S1130CA082E0809370098093040110920F0938C286
S1130CB08134C9F483E08093700964E372E081E0D5
S1130CC0DCDB10920C0910920009ECE0F2E01082D7
S1130CD0118212821382E4E3F2E080E2808B818B42
S1130CE0828B838B1DC26FE672E081E0C6DB1092BB
S1130CF0060916C21ADB8093030992E0909304015B
S1130D00882341F09FEB980F923020F08A3211F043
S1130D10833241F483E08093700964E372E081E0FC
S1130D20ACDBFEC1833461F480910F09811104C0EE
S1130D3082E080937009F4C181E080937009F0C16E
S1130D40843409F09FC076DD81309105A1F480914F
S1130D500C09811123C080910F09811106C081E023
S1130D6080930F0980937009DBC110920F0982E010
S1130D7080937009D5C1892B09F0D2C180910C09E7
S1130D80811121C080910F09811104C082E08093F8
S1130D907009C6C181E080937009C2C180910C09B9
S1130DA08130E9F467EB72E068DB81E246DB87E0DF
S1130DB08093700910920009ECE0F2E01082118235
S1130DC012821382ADC180910C09813079F585E0DE
S1130DD08093700960E872E081E04FDBA1C182304A
S1130DE089F589E080937009809101099091020945
S1130DF0FADD67EC72E081E040DB81E11EDBC8E0F4
S1130E00D2E08881805D30DB82E117DB8981805DFF
S1130E102BDB83E112DB8A81805D26DB84E10DDB41
S1130E208B81805D21DB81E208DB7AC180910C0932
S1130E30823099F485E08093700960E872E081E083
S1130E401CDB6EC180910C09833009F069C182E01A
S1130E508093700910920F0963C1833009F060C157
S1130E608093700910920009ECE0F2E01082118284
S1130E7012821382E4E3F2E080E2808B818B828B26
S1130E80838B4EC194E090937009609100096430A3
S1130E9008F046C170E0D9DB809100098F5F809330
S1130EA000093EC142DA80930309811104C083E042
S1130EB08093700935C184E08093700931C135DABB
S1130EC08093030920910109309102092F5F3F4F5C
S1130ED03093020920930109882331F09FEB980F86
S1130EE0923010F0843421F485E08093700918C1A5
S1130EF0833461F480910F09811104C082E08093EE
S1130F0070090EC181E0809370090AC18A32B1F47C
S1130F1083E08093700910920009ECE0F2E0108203
S1130F20118212821382E4E3F2E080E2808B818BEF
S1130F30828B838B81E080930C09F2C08332B1F4FD
S1130F4083E08093700910920009ECE0F2E01082D3
S1130F50118212821382E4E3F2E080E2808B818BBF
S1130F60828B838B82E080930C09DAC085E08093C6
S1130F707009D6C0DAD980930309882351F09FEB16
S1130F80980F923030F0843421F08A3211F0833299
S1130F9021F487E080937009C3C0833421F482E094
S1130FA080937009BDC060910009643031F482E01F
S1130FB08093700910920009B3C098E0909370096F
S1130FC05EDC809100098F5F80930009A9C0ADD9D0
S1130FD080930309811104C087E080937009A0C045
S1130FE088E0809370099CC0A0D980930309811183
S1130FF004C089E08093700993C0833219F5E8E056
S1131000F2E06081C0E1D2E06883818189838281DA
S11310108A8383818B8380E090E00E941E10698123
S113102081E090E00E941E106A8182E090E00E94BC
S11310301E106B8183E090E00E941E1082E080937A
S113104070096EC0833421F482E08093700968C013
S113105089E08093700964C080910709813031F47C
S113106082E1EBD981E300DA81E2E7D980910809D2
S1131070813031F484E1E1D982E3F6D981E2DDD92A
S113108080910909813031F486E1D7D983E3ECD921
S113109081E2D3D980910A09813031F488E1CDD934
S11310A084E3E2D981E2C9D980910B09813031F41A
S11310B08AE1C3D985E3D8D981E2BFD936D98093EF
S11310C003098134A9F493E0909370091092000904
S11310D0ECE0F2E01082118212821382E4E3F2E087
S11310E080E2808B818B828B838B90930C0918C058
S11310F080910401823021F48AE08093700910C049
S1131100813039F482E0809304018AE0809370098D
S113111007C082E0809370098093040110920F0944
S1131120DF91CF9108951092700916DD8AE090E066
S113113021D6FBCFAF92BF92CF92DF92EF92FF9274
S11311400F93A12CB12CC12CD12CE12CF12C082F04
S113115020E030E045E550E066ED72E083E998E098
S113116091D30F91FF90EF90DF90CF90BF90AF900D
S1131170089580917209882319F0823021F029C0E2
S1131180109204092DC080910E0980FF05C091E0E2
S1131190909307099093040981FF05C021E02093EF
S11311A008092093040982FF05C021E0209309095E
S11311B02093040983FF05C021E020930A092093AA
S11311C0040984FF41C081E080930B0980930409E2
S11311D03BC08130C1F020F0823009F040C034C0FF
S11311E080910F09813019F4809372090895109247
S11311F07209E7E0F9E010821182128213821482EC
S1131200109205090895809105098F5F809305095F
S113121090910F09911105C010927209109205095D
S113122008958A3020F481E080937209089582E061
S113123080937209E7E0F9E010821182128213822E
S1131240148210920509089580910F09813021F4C8
S113125082E08093720908951092720908951092A1
S11312607209089581E08093720983DF88EC90E02D
S113127081D5FBCFAF92BF92CF92DF92EF92FF92D4
S11312800F93A12CB12CC12CD12CE12CF12C082FC3
S113129020E030E045E550E062EE72E082E399E060
S11312A0F1D20F91FF90EF90DF90CF90BF90AF906D
S11312B0089580916E0981110BC080910F098130CE
S11312C021F488E891E039D903C088E091E035D968
S11312D010926E09089510926E09EBDF81E090E0A0
S11312E049D5FBCFAF92BF92CF92DF92EF92FF929C
S11312F00F93A12CB12CC12CD12CE12CF12C082F53
S113130020E030E045E550E06FEE72E08BE699E0D6
S1131310B9D20F91FF90EF90DF90CF90BF90AF9034
S1131320089580916D098130A9F40E94830180930E
S1131330FE088F3021F481E08093040108C0803FCF
S113134019F41092040103C082E08093040181E047
S11313500E94540180916D09882319F010926D093F
S113136008958091C80088231CF481E080936D095E
S1131370089510926D09D5DF8AE090E0FBD4FBCF8D
S1131380AF92BF92CF92DF92EF92FF920F93A12C74
S1131390B12CC12CD12CE12CF12C082F20E030E011
S11313A045E550E06DEF72E089EB99E06BD20F9167
S11313B0FF90EF90DF90CF90BF90AF900895809111
S11313C07309823051F0833079F0813099F480913F
S11313D0FF088F5F8093FF082FC08091FF088F5F05
S11313E08093FF082C9A06C08091FF088F5F80933A
S11313F0FF082C98809173098130F1F028F0823035
S113140071F18330C1F14AC080910F09882309F436
S113141047C090910409913041F4813009F040C0F3
S1131420809373091092FF080895911139C0813097
S1131430B9F51092FF08089580910F09811103C036
S11314401092730908959091FF08809105019817EF
S113145038F182E0809373091092FF080895909107
S1131460FF08809107019817D8F083E080937309EF
S11314701092FF08089580910F09811103C0109202
S1131480730908959091FF0880910601981740F020
S113149082E0809373091092FF08089510927309F3
S11314A00895109273098BDF81E090E063D4FBCF41
S11314B0AF92BF92CF92DF92EF92FF920F93A12C43
S11314C0B12CC12CD12CE12CF12C082F20E030E0E0
S11314D045E550E06CE073E081E59AE0D3D10F91EB
S11314E0FF90EF90DF90CF90BF90AF900895CF938F
S11314F0DF9380EF81B98FE082B98FEF87B918B895
S11315008AB91BB884B915B880E090E08FD5C0E1E2
S1131510D2E0888381E090E089D5898382E090E0FD
S113152085D58A8383E090E081D58B830E94250250
S113153080E00E94320181E00E94320181E0ADDA54
S113154081E0EBDA81E0CEDE81E0F4DD81E092DE61
S113155081E0AEDF81E014DF96D280E090E0DF919D
S1131560CF91089531E1FC013083319722E2208349
S11315703197A3E3A08331976083319770833197C8
S11315801082319760E8608331971082319762E06E
S11315906083319763E06083319764E060833197BF
S11315A065E06083319766E06083319767E060832C
S11315B0319768E06083319769E06083319760E137
S11315C0608331973083319732E13083319733E14F
S11315D03083319734E13083319735E1308331976B
S11315E036E13083319737E13083319738E1308306
S11315F0319739E13083319730E23083319731E2EA
S1131600308331972083319723E2208331974083BD
S113161031975083319726E22083319727E2208344
S1131620319728E22083319729E22083319720E300
S11316302083319721E320838697089510928900AF
S11316408CE7809388008BE080938100EFE6F0E0E4
S1131650808182608083A0916A09B0916B09CD91E9
S1131660CDBFDD91DEBFFF91EF91DF91CF91BF91AF
S1131670AF919F918F917F916F915F914F913F9126
S11316802F911F910F91FF90EF90DF90CF90BF901B
S1131690AF909F908F907F906F905F904F903F900E
S11316A02F901F900F900FBE0F90089581E0089522
S11316B00F920FB6F8940F921F9211242F923F921B
S11316C04F925F926F927F928F929F92AF92BF924E
S11316D0CF92DF92EF92FF920F931F932F933F933A
S11316E04F935F936F937F938F939F93AF93BF9326
S11316F0CF93DF93EF93FF93A0916A09B0916B09A5
S11317000DB60D920EB60D928AD3A0916A09B091CE
S11317106B09CD91CDBFDD91DEBFFF91EF91DF91DC
S1131720CF91BF91AF919F918F917F916F915F9175
S11317304F913F912F911F910F91FF90EF90DF9068
S1131740CF90BF90AF909F908F907F906F905F905D
S11317504F903F902F901F900F900FBE0F900895C1
S11317600F920FB6F8940F921F9211242F923F926A
S11317704F925F926F927F928F929F92AF92BF929D
S1131780CF92DF92EF92FF920F931F932F933F9389
S11317904F935F936F937F938F939F93AF93BF9375
S11317A0CF93DF93EF93FF93A0916A09B0916B09F4
S11317B00DB60D920EB60D9295D131D3A0916A0952
S11317C0B0916B09CD91CDBFDD91DEBFFF91EF915B
S11317D0DF91CF91BF91AF919F918F917F916F9145
S11317E05F914F913F912F911F910F91FF90EF9037
S11317F0DF90CF90BF90AF909F908F907F906F902D
S11318005F904F903F902F901F900F900FBE0F90BE
S11318100895A6DF1895CF93DF93EC01E0916A0950
S1131820F0916B099383828380911A0990911B092B
S1131830C817D90768F460916A0970916B0980919F
S11318403009909131096E5F7F4F0E94D10017C01B
S113185060916A0970916B09809132099091330902
S11318606E5F7F4F0E94D100809154029091550287
S1131870C817D90720F4D0935502C0935402DF91BE
S1131880CF9108954F925F926F927F928F929F9221
S1131890AF92BF92CF92DF92EF92FF920F931F937A
S11318A0CF93DF935C014B013A01290181E290E07F
S11318B00E947100EC01892B09F4D3C0C114D10436
S11318C009F0CBC0C3010E947100988F8F8B0097E1
S11318D021F4CE010E949700C4C0A30165EA70E020
S11318E08FD39301215031098F89988D3C01620E69
S11318F0731E48E050E0B401CE01499688D318A283
S1131900102F043008F013E01E8B6E0182E0C80E25
S1131910D11CC6010E94A600CE010C960E94A6000E
S1131920D987C88784E090E0811B91099D878C87C3
S1131930DB8BCA8BA201B501C30114DE99838883B2
S1131940E114F10419F0F701D183C0830FB6F894C0
S11319500F9280911C098F5F80931C0980916A0902
S113196090916B09892BA9F5D0936B09C0936A09EF
S113197080911C098130E1F586E499E00E94980089
S11319808FE499E00E94980088E599E00E9498000D
S113199081E699E00E9498008DE399E00E94980006
S11319A084E399E00E94980087E299E00E949800FD
S11319B08EE199E00E9498008DE399E090933309B9
S11319C08093320984E399E090933109809330093C
S11319D00FC08091170981110BC0E0916A09F09141
S11319E06B098689081720F0D0936B09C0936A09A4
S11319F08E8990911909981710F480931909909180
S1131A0012099F5F9093120990911809981710F486
S1131A108093180990E09C01220F331F220F331F7B
S1131A20220F331F820F931FB6018A5B964F0E94C9
S1131A30AA000F900FBE80911709882351F0E091FE
S1131A406A09F0916B098689801728F431DE81E0F8
S1131A5009C081E007C081E005C0D88ECF8AC601E5
S1131A603CCF8FEFDF91CF911F910F91FF90EF90BB
S1131A70DF90CF90BF90AF909F908F907F906F90AA
S1131A805F904F900895AF92BF92CF92DF92EF9202
S1131A90FF920F93A12CB12CC12CD12CE12CF12C51
S1131AA000E020E030E045E550E068E173E086EDD9
S1131AB09EE0E8DE813041F4F89480931709109297
S1131AC01B0910921A09BADD0F91FF90EF90DF9075
S1131AD0CF90BF90AF900895809116098F5F809347
S1131AE0160908950F931F93CF93DF9380911609DE
S1131AF08111B2C080911A0990911B0901969093AB
S1131B001B0980931A0980911A0990911B09892B4A
S1131B1099F58091320990913309209130093091DF
S1131B20310930933309209332099093310980931A
S1131B303009809113098F5F80931309E091320972
S1131B40F09133098081811107C08FEF9FEF90934B
S1131B5055028093540210C0E0913209F091330988
S1131B600580F681E02D0680F781E02D8281938146
S1131B70909355028093540220911A0930911B09C5
S1131B8080915402909155022817390708F469C0CE
S1131B90E0913209F09133098081882399F0E09132
S1131BA03209F09133090580F681E02DC681D78191
S1131BB08A819B8120911A0930911B0928173907C2
S1131BC0F8F419C08FEF9FEF90935502809354025D
S1131BD048C0E0913209F09133090580F681E02D87
S1131BE0C681D7818A819B8120911A0930911B0972
S1131BF02817390728F4909355028093540231C072
S1131C008E010E5F1F4FC8010E940C018C899D89B3
S1131C10892B21F0CE010C960E940C018E899091A3
S1131C201809981710F48093180990E09C01220F6A
S1131C30331F220F331F220F331F820F931FB8014C
S1131C408A5B964F0E94AA00E0913209F091330911
S1131C5080818111BECFB6CF809115098F5F8093AB
S1131C601509DF91CF911F910F910895CF92DF92C3
S1131C70EF92FF920F931F93CF93DF930FB6F894D5
S1131C800F9280911609815080931609809116094C
S1131C90811162C080911C09811132C060C0D701DA
S1131CA01596ED91FC911697C681D781CE010C96BD
S1131CB00E940C018E010E5F1F4FC8010E940C018F
S1131CC08E8990911809981710F48093180990E060
S1131CD09C01220F331F220F331F220F331F820F49
S1131CE0931FB8018A5B964F0E94AA00E0916A098B
S1131CF0F0916B099E898689981758F0DC2C09C0ED
S1131D00D12C0F2EF7E2EF2EF9E0FF2EF02DCC248C
S1131D10C394F70180818111C2CF80911509882372
S1131D2079F080911509882391F0DCDE8091150902
S1131D30815080931509809115098111F6CF07C050
S1131D40F1E0DF1621F080911409813039F410920A
S1131D501409AEDC81E003C080E001C080E00F9094
S1131D600FBEDF91CF911F910F91FF90EF90DF9005
S1131D70CF900895CF93DF93EC01892B99F0ACDEDB
S1131D8080911A0990911B09C80FD91F80916A0983
S1131D9090916B0902960E940C01CE013CDD66DF36
S1131DA0811101C085DCDF91CF9108950F2EFEE1F2
S1131DB0EF2EF9E0FF2EF02DC6E4D9E080911D0945
S1131DC0882341F189DED7011C9150DF112311F1E1
S1131DD00FB6F8940F92D7011596ED91FC911697D2
S1131DE006811781C80102960E940C0180911C098A
S1131DF0815080931C0980911D09815080931D0995
S1131E000F900FBEF8018789908D0E949700C8013A
S1131E100E9497008881823088F24ADCCFCF80917B
S1131E201609811113C08091180990E0FC01EE0F8E
S1131E30FF1FEE0FFF1FEE0FFF1F8E0F9F1FFC01F2
S1131E40EA5BF64F8081882329F01BC081E08093F0
S1131E50140908958091180981508093180980917C
S1131E60180990E0FC01EE0FFF1FEE0FFF1FEE0FAD
S1131E70FF1F8E0F9F1FFC01EA5BF64F80818823B2
S1131E8049F38091180990E09C01220F331F220F1F
S1131E90331F220F331F280F391FD901AA5BB64FF6
S1131EA01196ED91FC9112970280F381E02D129628
S1131EB0FC93EE931197275B364FE217F30729F44F
S1131EC022813381FD0132832183FC01EE0FFF1F48
S1131ED0EE0FFF1FEE0FFF1F8E0F9F1FFC01EA5B2B
S1131EE0F64F0180F281E02D8681978190936B09F2
S1131EF080936A09089597FB072E16F4009406D080
S1131F0077FD08D014D007FC05D03EF49095819558
S1131F109F4F0895709561957F4F0895EE0FFF1FB1
S1131F200024001C0BBE0790F691E02D0994AA1B17
S1131F30BB1B51E107C0AA1FBB1FA617B70710F0B0
S1131F40A61BB70B881F991F5A95A9F780959095E2
S1131F50BC01CD0108958F929F92AF92BF92CF9210
S1131F60DF92EF92FF92CF93DF93EC016881798146
S1131F708A819B81611571058105910521F464E2D3
S1131F8079ED8BE597E02DE133EF41E050E064D04B
S1131F9049015A019B01AC01A7EAB1E479D06B0174
S1131FA07C01ACEEB4EFA50194017ED0DC01CB0141
S1131FB08C0D9D1DAE1DBF1DB7FF03C00197A10968
S1131FC0B04888839983AA83BB839F77DF91CF919D
S1131FD0FF90EF90DF90CF90BF90AF909F908F9045
S1131FE00895B9CF80E091E0B6CFA0E0B0E080934F
S1131FF0000190930101A0930201B093030108959D
S1132000DC0101C06D9341505040E0F70895FB019D
S1132010DC014150504048F001900D920020C9F776
S113202001C01D9241505040E0F70895F999FECF48
S113203092BD81BDF89A992780B50895262FF99904
S1132040FECF1FBA92BD81BD20BD0FB6F894FA9A97
S1132050F99A0FBE01960895052E97FB16F4009485
S11320600FD057FD05D024D007FC02D046F408C099
S113207050954095309521953F4F4F4F5F4F0895B0
S113208090958095709561957F4F8F4F9F4F0895E0
S113209031D0A59F900DB49F900DA49F800D911DEC
S11320A011240895B7FFF4CFF3DF821B930B089537
S11320B0A1E21A2EAA1BBB1BFD010DC0AA1FBB1F48
S11320C0EE1FFF1FA217B307E407F50720F0A21BBA
S11320D0B30BE40BF50B661F771F881F991F1A9427
S11320E069F760957095809590959B01AC01BD0151
S11320F0CF010895A29FB001B39FC001A39F700DAB
S1132100811D1124911DB29F700D811D1124911DFB
S10921100895F894FFCFCE
S11321160100000002FA3232000000000000010053
S113212601000000000000000000000001000000A3
S11321360000010000000000000000000000000094
S11321460000000001000000000000000000000084
S11321560000000001000000000001000100010071
S11321660100010001000000000001000100000060
S11321760000010001000000000001000100000051
S11321860000010001000000000001000100010040
S11321960100010001000000000000000000010031
S11321A60100000000000000000000000100000023
S11321B60000010000000000000001000000000013
S11321C60000000001000000000001000000000003
S11321D600000000010000000000010001000100F1
S11321E601000100010000000000010001000000E0
S11321F600000100010000000000010001000000D1
S113220600000100010000000000010001000100BF
S11322160100010001000000040302012020202027
S11322260102030444697361726D656420202020F1
S11322362020202054656D703A3030204320202021
S113224620202020454E54455220504153534B459F
S1132256592020202020202020202020202020203B
S113226620202020FFFF5472616E7353656354610E
S1132276736B0054656D705365635461736B0073BF
S1132286797374656D2069732061726D65642100CC
S11322962A20557365722050617373776F726420B8
S11322A66F7220232052616E646F6D2050617373C8
S11322B6776F726400547269707065642053656E3A
S11322C6736F7228732900456E7465722034204E2C
S11322D6756D626572730052616E646F6D20706114
S11322E673736B6579004D656E75536563546173DD
S11322F66B0053656E73655365635461736B004D70
S113230661747269785365635461736B00426C75CA
S1132316655265635365635461736B0042757A7ADB
S11123265365635461736B0049444C450000D9
S9030000FC
