S01D0000434849505F315F436F6E74726F6C5F53797374656D2E737265632F
S113000045C0000060C000005EC000005CC000008D
S11300105AC0000058C0000056C0000054C0000080
S113002052C0000050C000004EC000004CC0000090
S11300304AC000003BC3000046C0000044C00000AA
S113004042C0000040C000003EC000003CC00000B0
S11300503AC0000038C0000036C0000034C00000C0
S113006032C0000030C000002EC000002CC00000D0
S11300702AC0000028C0000026C0000024C00000E0
S113008022C0000020C000001EC0000011241FBEBA
S1130090CFEFD0E4DEBFCDBF11E0A0E0B1E0ECE8EB
S11300A0FDE000E00BBF02C007900D92A032B10743
S11300B0D9F727E0A0E2B1E001C01D92AD35B20747
S11300C0E1F792D161C69CCFCF93DF93EC0141D489
S11300D02091200130912101C9018C0F9D1F8C3D7D
S11300E045E0940758F42817390758F4E901CE5D20
S11300F0DE4F909321018093200105C0C0E0D0E041
S113010002C0C0E0D0E0ECD4CE01DF91CF910895DD
S11301100895FC010396928381832FEF3FEF34838C
S11301202383968385839087878310820895FC01B7
S1130130118610860895CF93DF93FC01DB012181A2
S11301403281E9018A819B8113969C938E93129745
S11301508181928115969C938E9314978A819B81B9
S1130160EC017D836C83E9017B836A837283618301
S11301701996FC93EE93189780818F5F8083DF91AB
S1130180CF910895CF93DF93EB01488159814F3F7D
S11301902FEF520731F4DC011796ED91FC9118977B
S11301A017C0FC013396DC0115962D913C911697EE
S11301B0D9012D913C914217530750F00280F381ED
S11301C0E02DA281B3812D913C9142175307B0F7E2
S11301D0A281B381BB83AA831596DC93CE93149733
S11301E0FD83EC83D383C28399878887FC012081B4
S11301F02F5F2083DF91CF910895FC01A281B38109
S11302008481958115969C938E931497A481B581CE
S11302108281938113969C938E931297A085B185C6
S113022011968D919C911297E817F90731F4848106
S1130230958112969C938E931197118610868C91BA
S113024081508C930895813029F48091C8008823CB
S113025074F008958091C00088238CF4A6ECB0E07B
S1130260E0ECF0E08C9180818823E4F30895AEEC17
S1130270B0E0E8ECF0E08C9180818823E4F3089509
S1130280613041F0E0ECF0E0908195FFFDCF809388
S1130290C6000895E8ECF0E0908195FFFDCF8093CF
S11302A0CE000895813041F0E0ECF0E080818823B5
S11302B0ECF78091C6000895E8ECF0E08081882393
S11302C0ECF78091CE00089580915C07813021F491
S11302D060E08091FE06D4DF80915C07882319F0EA
S11302E0813099F019C08091C00085FF17C08091BA
S11302F00007813021F48FEF8093FE0602C0109234
S1130300FE0681E080935C0708958091C00086FF1B
S113031005C010925C07089510925C07089510922E
S11303205C07D2DF8AE090E05CD4FBCFAF92BF924F
S1130330CF92DF92EF92FF920F93A12CB12CC12C9C
S1130340D12CE12CF12C082F20E030E045E550E0E1
S113035062E071E08FE891E0E0D10F91FF90EF90BF
S1130360DF90CF90BF90AF90089580915B0781306C
S113037031F480E097DF8093FF0680E064DF8091B2
S11303805B07882319F010925B0708958091C000E1
S113039088231CF481E080935B07089510925B0727
S11303A0E4DF8AE090E01DD4FBCFAF92BF92CF92FE
S11303B0DF92EF92FF920F93A12CB12CC12CD12C80
S11303C0E12CF12C082F20E030E045E550E06FE00F
S11303D071E08EEC91E0A1D10F91FF90EF90DF904E
S11303E0CF90BF90AF90089511B88FEF82B981E09C
S11303F09DDF81E0DADF84D280E090E0089531E18E
S1130400FC013083319722E220833197A3E3A08358
S1130410319760833197708331971082319760E808
S1130420608331971082319762E06083319763E093
S11304306083319764E06083319765E0608331972E
S113044066E06083319767E06083319768E060839A
S1130450319769E06083319760E16083319730833D
S1130460319732E13083319733E13083319734E18E
S11304703083319735E13083319736E130833197DA
S113048037E13083319738E13083319739E1308374
S1130490319730E23083319731E2308331972083D2
S11304A0319723E2208331974083319750833197EA
S11304B026E22083319727E22083319728E22083A4
S11304C0319729E22083319720E32083319721E378
S11304D0208386970895109289008CE78093880082
S11304E08BE080938100EFE6F0E08081826080837E
S11304F0A0915907B0915A07CD91CDBFDD91DEBFD0
S1130500FF91EF91DF91CF91BF91AF919F918F9127
S11305107F916F915F914F913F912F911F910F9117
S1130520FF90EF90DF90CF90BF90AF909F908F900F
S11305307F906F905F904F903F902F901F900F90FF
S11305400FBE0F90089581E008950F920FB6F894AE
S11305500F921F9211242F923F924F925F926F92AB
S11305607F928F929F92AF92BF92CF92DF92EF923F
S1130570FF920F931F932F933F934F935F936F9328
S11305807F938F939F93AF93BF93CF93DF93EF9317
S1130590FF93A0915907B0915A070DB60D920EB66C
S11305A00D9270D3A0915907B0915A07CD91CDBF48
S11305B0DD91DEBFFF91EF91DF91CF91BF91AF91BC
S11305C09F918F917F916F915F914F913F912F9167
S11305D01F910F91FF90EF90DF90CF90BF90AF905D
S11305E09F908F907F906F905F904F903F902F904F
S11305F01F900F900FBE0F9008950F920FB6F894AE
S11306000F921F9211242F923F924F925F926F92FA
S11306107F928F929F92AF92BF92CF92DF92EF928E
S1130620FF920F931F932F933F934F935F936F9377
S11306307F938F939F93AF93BF93CF93DF93EF9366
S1130640FF93A0915907B0915A070DB60D920EB6BB
S11306500D9285D117D3A0915907B0915A07CD9126
S1130660CDBFDD91DEBFFF91EF91DF91CF91BF91BF
S1130670AF919F918F917F916F915F914F913F9136
S11306802F911F910F91FF90EF90DF90CF90BF902B
S1130690AF909F908F907F906F905F904F903F901E
S11306A02F901F900F900FBE0F900895A6DF1895FE
S11306B0CF93DF93EC01E0915907F0915A079383AC
S11306C082838091090790910A07C817D90760F4BB
S11306D06091590770915A0780911F0790912007E4
S11306E06E5F7F4F4FDD16C06091590770915A07B6
S11306F080912107909122076E5F7F4F43DD8091A7
S1130700000190910101C817D90720F4D093010189
S1130710C0930001DF91CF9108954F925F926F9241
S11307207F928F929F92AF92BF92CF92DF92EF927D
S1130730FF920F931F93CF93DF935C014B013A0118
S1130740290181E290E0C0DCEC01892B09F4C6C0E8
S1130750C114D10409F0BEC0C301B6DC988F8F8BDD
S1130760009719F4CE01D4DCB9C0A30165EA70E0A6
S1130770F5D29301215031098F89988D3C01620E85
S1130780731E48E050E0B401CE014996EED218A29F
S1130790102F043008F013E01E8B6E0182E0C80EA7
S11307A0D11CC601C4DCCE010C96C1DCD987C88734
S11307B084E090E0811B91099D878C87DB8BCA8B39
S11307C0A201B501C3011BDE99838883E114F104FE
S11307D019F0F701D183C0830FB6F8940F9280917A
S11307E00B078F5F80930B078091590790915A07ED
S11307F0892B69F5D0935A07C093590780910B0749
S11308008130A1F585E397E084DC8EE397E081DC19
S113081087E497E07EDC80E597E07BDC8CE297E080
S113082078DC83E297E075DC86E197E072DC8DE0AA
S113083097E06FDC8CE297E0909322078093210786
S113084083E297E09093200780931F070FC0809165
S1130850060781110BC0E0915907F0915A07868968
S1130860081720F0D0935A07C09359078E899091A6
S11308700807981710F480930807909101079F5F69
S11308809093010790910707981710F48093070736
S113089090E09C01220F331F220F331F220F331FBE
S11308A0820F931FB6018B5C984F45DC0F900FBEEF
S11308B080910607882351F0E0915907F0915A0777
S11308C08689801728F441DE81E009C081E007C0F1
S11308D081E005C0D88ECF8AC60147CF8FEFDF9164
S11308E0CF911F910F91FF90EF90DF90CF90BF9029
S11308F0AF909F908F907F906F905F904F900895EE
S1130900AF92BF92CF92DF92EF92FF920F93A12CFE
S1130910B12CC12CD12CE12CF12C00E020E030E0F2
S113092045E550E06AE171E08CE096E0F6DE813066
S113093041F4F8948093060710920A07109209076D
S1130940CADD0F91FF90EF90DF90CF90BF90AF90F2
S11309500895809105078F5F8093050708950F938D
S11309601F93CF93DF93809105078111AFC08091CE
S1130970090790910A07019690930A078093090743
S11309808091090790910A07892B99F58091210795
S11309909091220720911F0730912007309322075E
S11309A0209321079093200780931F0780910207CB
S11309B08F5F80930207E0912107F09122078081E5
S11309C0811107C08FEF9FEF909301018093000185
S11309D010C0E0912107F09122070580F681E02DF7
S11309E00680F781E02D82819381909301018093A9
S11309F000012091090730910A078091000190912C
S1130A0001012817390708F466C0E0912107F09125
S1130A1022078081882399F0E0912107F091220731
S1130A200580F681E02DC681D7818A819B81209142
S1130A30090730910A0728173907F8F419C08FEF0E
S1130A409FEF909301018093000145C0E09121073D
S1130A50F09122070580F681E02DC681D7818A8135
S1130A609B812091090730910A072817390728F438
S1130A7090930101809300012EC08E010E5F1F4FE1
S1130A80C801BBDB8C899D89892B19F0CE010C969A
S1130A90B4DB8E8990910707981710F480930707A9
S1130AA090E09C01220F331F220F331F220F331FAC
S1130AB0820F931FB8018B5C984F3DDBE0912107B7
S1130AC0F091220780818111C1CFB9CF80910407B1
S1130AD08F5F80930407DF91CF911F910F91089549
S1130AE0CF92DF92EF92FF920F931F93CF93DF93F6
S1130AF00FB6F8940F9280910507815080930507F3
S1130B008091050781115FC080910B0781112FC06F
S1130B105DC0D7011596ED91FC911697C681D781DA
S1130B20CE010C966ADB8E010E5F1F4FC80165DB98
S1130B308E8990910707981710F48093070790E027
S1130B409C01220F331F220F331F220F331F820FEA
S1130B50931FB8018B5C984FEEDAE0915907F0913E
S1130B605A079E898689981758F0DC2C09C0D12C25
S1130B700F2EF6E1EF2EF7E0FF2EF02DCC24C394D8
S1130B80F70180818111C5CF80910407882379F012
S1130B9080910407882391F0E2DE8091040781505C
S1130BA080930407809104078111F6CF07C0F1E018
S1130BB0DF1621F080910307813039F41092030786
S1130BC0C4DC81E003C080E001C080E00F900FBE70
S1130BD0DF91CF911F910F91FF90EF90DF90CF9015
S1130BE00895CF93DF93EC01892B91F0B2DE8091CD
S1130BF0090790910A07C80FD91F8091590790914E
S1130C005A070296FADACE0153DD6ADF811101C078
S1130C109CDCDF91CF9108950F2EFDE0EF2EF7E0DD
S1130C20FF2EF02DC5E3D7E080910C07882329F12E
S1130C3090DED7011C9154DF1123F9F00FB6F8941C
S1130C400F92D7011596ED91FC91169706811781A5
S1130C50C8010296D2DA80910B07815080930B076A
S1130C6080910C07815080930C070F900FBEF80100
S1130C708789908D4DDAC8014BDA88818230A0F2E1
S1130C8064DCD2CF80910507811113C080910707DE
S1130C9090E0FC01EE0FFF1FEE0FFF1FEE0FFF1F92
S1130CA08E0F9F1FFC01EB5CF84F8081882329F095
S1130CB01BC081E08093030708958091070781504A
S1130CC0809307078091070790E0FC01EE0FFF1F58
S1130CD0EE0FFF1FEE0FFF1F8E0F9F1FFC01EB5C3B
S1130CE0F84F8081882349F38091070790E09C01A5
S1130CF0220F331F220F331F220F331F280F391FD8
S1130D00D901AB5CB84F1196ED91FC91129702801A
S1130D10F381E02D1296FC93EE931197285C384FE3
S1130D20E217F30729F422813381FD013283218301
S1130D30FC01EE0FFF1FEE0FFF1FEE0FFF1F8E0FC4
S1130D409F1FFC01EB5CF84F0180F281E02D86814E
S1130D50978190935A07809359070895DC0101C045
S1130D606D9341505040E0F70895FB01DC01415080
S1130D70504048F001900D920020C9F701C01D9227
S10F0D8041505040E0F70895F894FFCF74
S1130D8CFFFF5472616E735365635461736B00524D
S1130D9C65635365635461736B0049444C450000AF
S9030000FC
