:1000000050C000006DC000006BC0000069C000005F
:1000100067C0000065C0000063C0000061C0000050
:100020005FC000005DC000005BC0000059C0000060
:1000300057C000000C94130C53C0000051C00000C6
:100040004FC000004DC000004BC0000049C0000080
:1000500047C0000045C0000043C0000041C0000090
:100060003FC000003DC000003BC0000039C00000A0
:1000700037C0000035C0000033C0000031C00000B0
:100080002FC000002DC000002BC000009505EF051B
:100090009C0554062C07390798089407EF07FC07BE
:1000A000340811241FBECFEFD0E4DEBFCDBF13E074
:1000B000A0E0B1E0E2E3F1E200E00BBF02C0079094
:1000C0000D92AE31B107D9F729E0AEE1B3E001C03E
:1000D0001D92A837B207E1F70E94810A0C9497108D
:1000E0008FCFCF93DF93EC010E94760D20911E03FA
:1000F00030911F03C9018C0F9D1F8C3D45E0940773
:1001000058F42817390758F4E901C05EDC4F909382
:100110001F0380931E0305C0C0E0D0E002C0C0E012
:10012000D0E00E94400ECE01DF91CF910895089556
:10013000FC010396928381832FEF3FEF3483238367
:10014000968385839087878310820895FC011186AA
:1001500010860895CF93DF93FC01DB01218132816A
:10016000E9018A819B8113969C938E9312978181DA
:10017000928115969C938E9314978A819B81EC01B2
:100180007D836C83E9017B836A8372836183199623
:10019000FC93EE93189780818F5F8083DF91CF91DE
:1001A0000895CF93DF93EB01488159814F3F2FEFA3
:1001B000520731F4DC011796ED91FC91189717C0A6
:1001C000FC013396DC0115962D913C911697D901CF
:1001D0002D913C914217530750F00280F381E02D9E
:1001E000A281B3812D913C9142175307B0F7A281B0
:1001F000B381BB83AA831596DC93CE931497FD83BA
:10020000EC83D383C28399878887FC0120812F5F89
:100210002083DF91CF910895FC01A281B381848175
:10022000958115969C938E931497A481B5818281B4
:10023000938113969C938E931297A085B185119606
:100240008D919C911297E817F90731F4848195817B
:1002500012969C938E931197118610868C918150E3
:100260008C930895813081F0E1ECF0E08081886129
:100270008083E2ECF0E080818660808383E380937A
:10028000C4001092C5000895E9ECF0E08081886117
:100290008083EAECF0E080818660808383E3809352
:1002A000CC001092CD000895813029F48091C800CF
:1002B000882374F008958091C00088238CF4A6EC04
:1002C000B0E0E0ECF0E08C9180818823E4F30895C5
:1002D000AEECB0E0E8ECF0E08C9180818823E4F3B0
:1002E0000895613041F0E0ECF0E0908195FFFDCFA2
:1002F0008093C6000895E8ECF0E0908195FFFDCF73
:100300008093CE000895813041F0E0ECF0E08081F0
:100310008823ECF78091C6000895E8ECF0E0808136
:100320008823ECF78091CE0008958FEE82B900000B
:10033000009B44C080B1809581FD42C080B1809512
:1003400082FD40C080B1809583FD3EC08FED82B9B3
:100350000000009B3BC080B1809581FD39C080B119
:10036000809582FD37C080B1809583FD35C08FEBCD
:1003700082B90000009B32C080B1809581FD30C001
:1003800080B1809582FD2EC080B1809583FD2CC008
:100390008FE782B9000090B19095892F817090FD10
:1003A00025C090B1909591FD23C090B1909592FD9C
:1003B00021C090B1909593FD1FC0089581E30895E9
:1003C00084E3089587E308958AE2089582E3089517
:1003D00085E3089588E3089580E3089583E308950D
:1003E00086E3089589E3089583E2089581E40895FA
:1003F00082E4089583E4089584E4089518161906A4
:100400005CF00895000021503109E1F74F5F5F4F24
:100410008417950719F4089540E050E027E033E091
:10042000F1CF5E9888B95F9A00005F9882E090E013
:10043000E5CF089581E0F5CF0895813118F4815812
:10044000F0CF08958155EDCF089584E690E0D6DF92
:1004500088E3E7DF86E0E5DF8FE0E3DF81E0E1DFEF
:100460008AE090E0CBCF08955E9A88B95F9A000049
:100470005F9881E090E0C2CF08950F931F93CF93D0
:10048000DF93182FEB01D6DF8881882351F001E03C
:10049000010F812FD2DF8991E7DF102F8881811131
:1004A000F6CFDF91CF911F910F910895FC0120E0CD
:1004B00030E058E055B945B1BF01022E02C0769533
:1004C00067950A94E2F7962F9170942B95B9299A23
:1004D0002F5F3F4F2031310569F72A9A15B80895EB
:1004E000FB01DA0110821C9241E050E0022E02C0B2
:1004F000440F551F0A94E2F73081432B4083FC01DF
:1005000030E1239FE00DF11D112420E030E041E0B7
:1005100050E081919191892B51F48C91BA01022E76
:1005200002C0660F771F0A94E2F7682B6C932F5F67
:100530003F4F2830310569F708950F931F93CF93EC
:100540008C01C0E02C2F44E159E065E179E0C8015D
:10055000C7DF809114092091150990E0922BA6DF46
:10056000CF5FC83079F7CF911F910F910895811116
:1005700006C0FB01EC5EFD4F80E38083089581306F
:1005800031F4FB01EC5EFD4F81E3808308958230FE
:1005900031F4FB01EC5EFD4F82E3808308958330EC
:1005A00031F4FB01EC5EFD4F83E3808308958430DA
:1005B00031F4FB01EC5EFD4F84E3808308958530C8
:1005C00031F4FB01EC5EFD4F85E3808308958630B6
:1005D00031F4FB01EC5EFD4F86E3808308958730A4
:1005E00031F4FB01EC5EFD4F87E380830895883092
:1005F00031F4FB01EC5EFD4F88E380830895FB013D
:10060000EC5EFD4F89E3808308959DEC899F912DD9
:1006100011249695969596959093FD08392F330F52
:10062000232F220F220F230F821B8093FC0865E1EA
:1006300070E0892F9CDF66E170E08091FC0897DF15
:1006400064E172E081E019CF08958033A1F461156F
:10065000710529F410920C02809344020895FB0165
:10066000E45FFD4F1082FB01EC5CFD4F80E3808B6B
:100670008AE2878708958133B9F46115710539F4E9
:1006800081E080930C0281E3809344020895FB0192
:10069000E45FFD4F81E08083FB01EC5CFD4F81E373
:1006A000808B8AE2878708958233B9F461157105DA
:1006B00039F482E080930C0282E38093440208952F
:1006C000FB01E45FFD4F82E08083FB01EC5CFD4FAA
:1006D00082E3808B8AE2878708958333B9F46115BA
:1006E000710539F483E080930C0283E38093440224
:1006F0000895FB01E45FFD4F83E08083FB01EC5C28
:10070000FD4F83E3808B8AE2878708958433B9F4B1
:100710006115710539F484E080930C0284E38093C1
:1007200044020895FB01E45FFD4F84E08083FB01F8
:10073000EC5CFD4F84E3808B8AE2878708958533E4
:10074000B9F46115710539F485E080930C0285E3F5
:10075000809344020895FB01E45FFD4F85E08083B0
:10076000FB01EC5CFD4F85E3808B8AE2878708956F
:100770008633B9F46115710539F486E080930C0273
:1007800086E3809344020895FB01E45FFD4F86E019
:100790008083FB01EC5CFD4F86E3808B8AE28787D8
:1007A00008958733B9F46115710539F487E08093B2
:1007B0000C0287E3809344020895FB01E45FFD4F40
:1007C00087E08083FB01EC5CFD4F87E3808B8AE24E
:1007D000878708958833B9F46115710539F488E085
:1007E00080930C0288E3809344020895FB01E45F48
:1007F000FD4F88E08083FB01EC5CFD4F88E3808B3C
:100800008AE2878708956115710539F489E080933C
:100810000C0289E3809344020895FB01E45FFD4FDD
:1008200089E08083FB01EC5CFD4F89E3808B8AE2E9
:10083000878708959091100280910C02981316C03A
:100840009091110280910D02981313C090911202A1
:1008500080910E02981310C081E090E03091130255
:1008600020910F02321751F080E0089580E090E06F
:10087000089580E090E0089580E090E00895CF939F
:10088000C62F803359F481E1860FD7DD80E3ECDD9C
:10089000EC2FF0E0E050F74F10827BC0813361F421
:1008A00081E1860FCADD81E3DFDDEC2FF0E0E0506F
:1008B000F74F81E080836DC0823361F481E1860F60
:1008C000BCDD82E3D1DDEC2FF0E0E050F74F82E0B9
:1008D00080835FC0833361F481E1860FAEDD83E303
:1008E000C3DDEC2FF0E0E050F74F83E0808351C090
:1008F000843361F481E1860FA0DD84E3B5DDEC2F64
:10090000F0E0E050F74F84E0808343C0853361F42A
:1009100081E1860F92DD85E3A7DDEC2FF0E0E0506A
:10092000F74F85E0808335C0863361F481E1860F1F
:1009300084DD86E399DDEC2FF0E0E050F74F86E0B0
:10094000808327C0873361F481E1860F76DD87E3FA
:100950008BDDEC2FF0E0E050F74F87E0808319C08B
:10096000883361F481E1860F68DD88E37DDDEC2F5B
:10097000F0E0E050F74F88E080830BC081E1860F04
:100980005CDD89E371DDEC2FF0E0E050F74F89E0AA
:100990008083CF9108950F931F93CF93DF930E948D
:1009A000FF0F0E94FC0FC8E0D2E00AE010E0B8019F
:1009B0000E94850F88830E94FC0FB8010E94850F5A
:1009C00089830E94FC0FB8010E94850F8A830E94D0
:1009D000FC0FB8010E94850F8B83DF91CF911F918F
:1009E0000F91089580917309813021F460E0809126
:1009F000110977DC80917309882319F0813099F00F
:100A000019C08091C00085FF17C080911309813003
:100A100021F48FEF8093110902C01092110981E037
:100A20008093730908958091C00086FF05C01092DD
:100A30007309089510927309089510927309D2DF13
:100A40008AE090E00E94C40EFACFAF92BF92CF929C
:100A5000DF92EF92FF920F93A12CB12CC12CD12CDD
:100A6000E12CF12C082F20E030E045E550E066E570
:100A700072E08DE195E010D70F91FF90EF90DF903D
:100A8000CF90BF90AF90089580917009813031F47C
:100A900080E039DC8093120980E006DC80917009E7
:100AA000882319F01092700908958091C00088235E
:100AB0001CF481E080937009089510927009E4DFBE
:100AC0008AE090E00E94C40EFACFAF92BF92CF921C
:100AD000DF92EF92FF920F93A12CB12CC12CD12C5D
:100AE000E12CF12C082F20E030E045E550E061E0FA
:100AF00073E08DE595E0D0D60F91FF90EF90DF90F9
:100B0000CF90BF90AF9008950F931F93CF93DF9333
:100B1000E09174098E2F90E08B30910508F008C3A6
:100B2000FC01EA5BFF4F0C94980F809112096DDD78
:100B300082E080937409FCC2F8DB8093070981117D
:100B400021C080910401823031F480937409809136
:100B500012095BDDEDC2811109C082E08093740946
:100B6000809304018091120950DDE2C281E08093FC
:100B7000740992E090930401809313096FE672E088
:100B80007CDCD6C28134C9F483E08093740964E3C9
:100B900072E081E072DC1092100910920409ECE01E
:100BA000F2E01082118212821382E4E3F2E080E22A
:100BB000808B818B828B838BBBC2823461F485E016
:100BC0008093740960E872E081E057DC10920609B6
:100BD00010920509ADC282E080937409A9C2A5DB19
:100BE0008093070991E09093740990910B099130DB
:100BF00081F090910C09913061F090910D09913044
:100C000041F090910E09913021F090910F099130AF
:100C100041F48AE08093740965EA72E081E02DDC9A
:100C200087C2882321F09EEB980F9330D8F48091EF
:100C30000401823029F46FE672E081E01EDC78C2A4
:100C4000813041F482E0809304016FE672E081E03C
:100C500014DC6EC282E080937409809304011092C8
:100C6000130966C28134C9F483E08093740964E394
:100C700072E081E002DC1092100910920409ECE0AD
:100C8000F2E01082118212821382E4E3F2E080E249
:100C9000808B818B828B838B4BC26FE672E081E00D
:100CA000ECDB10920A0944C240DB8093070992E012
:100CB00090930401882341F09FEB980F923020F02D
:100CC0008A3211F0833241F483E08093740964E343
:100CD00072E081E0D2DB2CC2833461F4809113098D
:100CE000811104C082E08093740922C281E0809364
:100CF00074091EC2843409F09FC09CDD81309105C7
:100D0000A1F480911009811123C0809113098111F0
:100D100006C081E0809313098093740909C2109280
:100D2000130982E08093740903C2892B09F000C281
:100D300080911009811121C080911309811104C093
:100D400082E080937409F4C181E080937409F0C15A
:100D5000809110098130E9F467EB72E08EDB81E26B
:100D60006CDB87E08093740910920409ECE0F2E0F8
:100D70001082118212821382DBC1809110098130AE
:100D800079F585E08093740960E872E081E075DBB5
:100D9000CFC1823089F589E080937409809105097B
:100DA00090910609F8DD67EC72E081E066DB81E195
:100DB00044DBC8E0D2E08881805D56DB82E13DDB28
:100DC0008981805D51DB83E138DB8A81805D4CDB8A
:100DD00084E133DB8B81805D47DB81E22EDBA8C1C0
:100DE00080911009823099F485E08093740960E85D
:100DF00072E081E042DB9CC180911009833009F0F0
:100E000097C182E0809374091092130991C18330D5
:100E100009F08EC18093740910920409ECE0F2E0AD
:100E20001082118212821382E4E3F2E080E2808B6E
:100E3000818B828B838B7CC194E090937409609149
:100E40000409643008F074C170E0FFDB809104098C
:100E50008F5F809304096CC168DA80930709811160
:100E600004C083E08093740963C184E080937409B3
:100E70005FC15BDA8093070920910509309106096B
:100E80002F5F3F4F3093060920930509882331F0E7
:100E90009FEB980F923010F0843421F485E080931A
:100EA000740946C1833461F480911309811104C02F
:100EB00082E0809374093CC181E08093740938C159
:100EC0008A32B1F483E08093740910920409ECE053
:100ED000F2E01082118212821382E4E3F2E080E2F7
:100EE000808B818B828B838B81E08093100920C162
:100EF0008332B1F483E08093740910920409ECE02A
:100F0000F2E01082118212821382E4E3F2E080E2C6
:100F1000808B818B828B838B82E08093100908C148
:100F200085E08093740904C100DA8093070988235F
:100F300051F09FEB980F923030F0843421F08A32D8
:100F400011F0833291F580910409843051F582E0EB
:100F50008093740910920409C0E0D9E0688100E12F
:100F600012E0F801608380E090E00E94281069811F
:100F7000F801618381E090E00E9428106A81F80105
:100F8000628382E090E00E9428106B81F801638305
:100F900083E090E00E942810188219821A821B8236
:100FA000C7C087E080937409C3C0833421F482E012
:100FB00080937409BDC060910409643031F482E00B
:100FC0008093740910920409B3C098E09093740957
:100FD00056DC809104098F5F80930409A9C0A5D9CC
:100FE00080930709811104C087E080937409A0C031
:100FF00088E0809374099CC098D980930709811177
:1010000004C089E08093740993C0833219F5E8E045
:10101000F2E06081C0E1D2E06883818189838281CE
:101020008A8383818B8380E090E00E94281069810D
:1010300081E090E00E9428106A8182E090E00E94A6
:1010400028106B8183E090E00E94281082E080935A
:1010500074096EC0833421F482E08093740968C0FF
:1010600089E08093740964C080910B09813031F468
:1010700082E1E3D981E3F8D981E2DFD980910C09DB
:10108000813031F484E1D9D982E3EED981E2D5D936
:1010900080910D09813031F486E1CFD983E3E4D921
:1010A00081E2CBD980910E09813031F488E1C5D934
:1010B00084E3DAD981E2C1D980910F09813031F41A
:1010C0008AE1BBD985E3D0D981E2B7D92ED9809303
:1010D00007098134A9F493E09093740910920409EC
:1010E000ECE0F2E01082118212821382E4E3F2E07B
:1010F00080E2808B818B828B838B9093100918C048
:1011000080910401823021F48AE08093740910C038
:10111000813039F482E0809304018AE0809374097D
:1011200007C082E080937409809304011092130930
:10113000DF91CF911F910F91089510927409E4DC13
:101140008AE090E021D6FBCFAF92BF92CF92DF92A0
:10115000EF92FF920F93A12CB12CC12CD12CE12C3A
:10116000F12C082F20E030E045E550E066ED72E01C
:101170008DE998E091D30F91FF90EF90DF90CF90A1
:10118000BF90AF90089580917609882319F082303E
:1011900021F029C0109208092DC08091120980FF0A
:1011A00005C091E090930B099093080981FF05C059
:1011B00021E020930C092093080982FF05C021E05B
:1011C00020930D092093080983FF05C021E0209397
:1011D0000E092093080984FF41C081E080930F0924
:1011E000809308093BC08130C1F020F0823009F0C3
:1011F00040C034C080911309813019F4809376097E
:10120000089510927609EBE0F9E0108211821282C3
:1012100013821482109209090895809109098F5F41
:101220008093090990911309911105C010927609D4
:101230001092090908958A3020F481E0809376099C
:10124000089582E080937609EBE0F9E01082118244
:101250001282138214821092090908958091130951
:10126000813021F482E08093760908951092760906
:10127000089510927609089581E08093760983DFBE
:1012800088EC90E081D5FBCFAF92BF92CF92DF92F6
:10129000EF92FF920F93A12CB12CC12CD12CE12CF9
:1012A000F12C082F20E030E045E550E062EE72E0DE
:1012B0008CE399E0F1D20F91FF90EF90DF90CF9007
:1012C000BF90AF9008958091720981110BC08091F9
:1012D0001309813021F488E891E02FD903C088E018
:1012E00091E02BD910927209089510927209EBDFE8
:1012F00081E090E049D5FBCFAF92BF92CF92DF92D1
:10130000EF92FF920F93A12CB12CC12CD12CE12C88
:10131000F12C082F20E030E045E550E06FEE72E060
:1013200085E799E0B9D20F91FF90EF90DF90CF90D1
:10133000BF90AF900895809171098130A9F40E9407
:1013400083018093FE088F3021F481E080930401B3
:1013500008C0803F19F41092040103C082E080931A
:10136000040181E00E94540180917109882319F0E1
:101370001092710908958091C80088231CF481E0BF
:1013800080937109089510927109D5DF8AE090E089
:10139000FBD4FBCFAF92BF92CF92DF92EF92FF923E
:1013A0000F93A12CB12CC12CD12CE12CF12C082FA6
:1013B00020E030E045E550E06DEF72E083EC99E02D
:1013C0006BD20F91FF90EF90DF90CF90BF90AF90D6
:1013D000089580917709823051F0833079F081301F
:1013E00099F48091FF088F5F8093FF082FC0809150
:1013F000FF088F5F8093FF082C9A06C08091FF083A
:101400008F5F8093FF082C98809177098130F1F0ED
:1014100028F0823071F18330C1F14AC08091130904
:10142000882309F447C090910809913041F4813034
:1014300009F040C0809377091092FF080895911138
:1014400039C08130B9F51092FF08089580911309D1
:10145000811103C01092770908959091FF0880913F
:101460000501981738F182E0809377091092FF0800
:1014700008959091FF08809107019817D8F083E0B4
:10148000809377091092FF080895809113098111C4
:1014900003C01092770908959091FF08809106018A
:1014A000981740F082E0809377091092FF08089522
:1014B000109277090895109277098BDF81E090E010
:1014C00063D4FBCFAF92BF92CF92DF92EF92FF92A5
:1014D0000F93A12CB12CC12CD12CE12CF12C082F75
:1014E00020E030E045E550E06CE073E08BE59AE009
:1014F000D3D10F91FF90EF90DF90CF90BF90AF903E
:101500000895CF93DF9380EF81B98FE082B98FEF99
:1015100087B918B88AB91BB884B915B880E090E0CB
:101520008FD5C0E1D2E0888381E090E089D58983BE
:1015300082E090E085D58A8383E090E081D58B833B
:101540000E94250280E00E94320181E00E94320167
:1015500081E07BDA81E0B9DA81E0CEDE81E0F4DDA2
:1015600081E092DE81E0AEDF81E014DF96D280E0A0
:1015700090E0DF91CF91089531E1FC013083319704
:1015800022E220833197A3E3A083319760833197D0
:10159000708331971082319760E8608331971082B1
:1015A000319762E06083319763E06083319764E054
:1015B0006083319765E06083319766E0608331979F
:1015C00067E06083319768E06083319769E060830A
:1015D000319760E1608331973083319732E1308316
:1015E000319733E13083319734E13083319735E1FE
:1015F0003083319736E13083319737E1308331974B
:1016000038E13083319739E13083319730E23083EC
:10161000319731E2308331972083319723E2208361
:101620003197408331975083319726E22083319759
:1016300027E22083319728E22083319729E2208313
:10164000319720E32083319721E320838697089503
:10165000109289008CE7809388008BE08093810052
:10166000EFE6F0E0808182608083A0916E09B09106
:101670006F09CD91CDBFDD91DEBFFF91EF91DF917D
:10168000CF91BF91AF919F918F917F916F915F911A
:101690004F913F912F911F910F91FF90EF90DF900D
:1016A000CF90BF90AF909F908F907F906F905F9002
:1016B0004F903F902F901F900F900FBE0F90089566
:1016C00081E008950F920FB6F8940F921F921124A3
:1016D0002F923F924F925F926F927F928F929F9242
:1016E000AF92BF92CF92DF92EF92FF920F931F9330
:1016F0002F933F934F935F936F937F938F939F931A
:10170000AF93BF93CF93DF93EF93FF93A0916E09B5
:10171000B0916F090DB60D920EB60D928AD3A091BD
:101720006E09B0916F09CD91CDBFDD91DEBFFF9104
:10173000EF91DF91CF91BF91AF919F918F917F9169
:101740006F915F914F913F912F911F910F91FF905A
:10175000EF90DF90CF90BF90AF909F908F907F9051
:101760006F905F904F903F902F901F900F900FBE03
:101770000F9008950F920FB6F8940F921F921124B4
:101780002F923F924F925F926F927F928F929F9291
:10179000AF92BF92CF92DF92EF92FF920F931F937F
:1017A0002F933F934F935F936F937F938F939F9369
:1017B000AF93BF93CF93DF93EF93FF93A0916E0905
:1017C000B0916F090DB60D920EB60D9295D131D331
:1017D000A0916E09B0916F09CD91CDBFDD91DEBFB3
:1017E000FF91EF91DF91CF91BF91AF919F918F9139
:1017F0007F916F915F914F913F912F911F910F9129
:10180000FF90EF90DF90CF90BF90AF909F908F9020
:101810007F906F905F904F903F902F901F900F9010
:101820000FBE0F900895A6DF1895CF93DF93EC01BC
:10183000E0916E09F0916F099383828380911E0974
:1018400090911F09C817D90768F460916E097091CB
:101850006F0980913409909135096E5F7F4F0E9426
:10186000D10017C060916E0970916F09809136099F
:10187000909137096E5F7F4F0E94D1008091540292
:1018800090915502C817D90720F4D0935502C09300
:101890005402DF91CF9108954F925F926F927F92A1
:1018A0008F929F92AF92BF92CF92DF92EF92FF9270
:1018B0000F931F93CF93DF935C014B013A012901F2
:1018C00081E290E00E947100EC01892B09F4D3C001
:1018D000C114D10409F0CBC0C3010E947100988FDC
:1018E0008F8B009721F4CE010E949700C4C0A30102
:1018F00065EA70E08FD39301215031098F89988D6B
:101900003C01620E731E48E050E0B401CE014996DE
:1019100088D318A2102F043008F013E01E8B6E013C
:1019200082E0C80ED11CC6010E94A600CE010C9612
:101930000E94A600D987C88784E090E0811B9109A6
:101940009D878C87DB8BCA8BA201B501C30114DE96
:1019500099838883E114F10419F0F701D183C083DE
:101960000FB6F8940F92809120098F5F8093200921
:1019700080916E0990916F09892BA9F5D0936F0919
:10198000C0936E09809120098130E1F58AE499E0E5
:101990000E94980083E599E00E9498008CE599E008
:1019A0000E94980085E699E00E94980081E499E001
:1019B0000E94980088E399E00E9498008BE299E0E9
:1019C0000E94980082E299E00E94980081E499E0E8
:1019D000909337098093360988E399E0909335090D
:1019E000809334090FC080911B0981110BC0E091D5
:1019F0006E09F0916F098689081720F0D0936F095E
:101A0000C0936E098E8990911D09981710F48093E8
:101A10001D09909116099F5F9093160990911C09DA
:101A2000981710F480931C0990E09C01220F331F3B
:101A3000220F331F220F331F820F931FB601865BC5
:101A4000964F0E94AA000F900FBE80911B09882319
:101A500051F0E0916E09F0916F098689801728F4A2
:101A600031DE81E009C081E007C081E005C0D88E89
:101A7000CF8AC6013CCF8FEFDF91CF911F910F919D
:101A8000FF90EF90DF90CF90BF90AF909F908F909E
:101A90007F906F905F904F900895AF92BF92CF92DA
:101AA000DF92EF92FF920F93A12CB12CC12CD12C7D
:101AB000E12CF12C00E020E030E045E550E068E169
:101AC00073E080EE9EE0E8DE813041F4F89480938C
:101AD0001B0910921F0910921E09BADD0F91FF9089
:101AE000EF90DF90CF90BF90AF90089580911A094A
:101AF0008F5F80931A0908950F931F93CF93DF93FD
:101B000080911A098111B2C080911E0990911F091C
:101B1000019690931F0980931E0980911E09909150
:101B20001F09892B99F580913609909137092091E9
:101B30003409309135093093370920933609909351
:101B4000350980933409809117098F5F80931709B5
:101B5000E0913609F09137098081811107C08FEF3C
:101B60009FEF909355028093540210C0E091360984
:101B7000F09137090580F681E02D0680F781E02D90
:101B800082819381909355028093540220911E0983
:101B900030911F09809154029091550228173907FE
:101BA00008F469C0E0913609F091370980818823F3
:101BB00099F0E0913609F09137090580F681E02D22
:101BC000C681D7818A819B8120911E0930911F098E
:101BD00028173907F8F419C08FEF9FEF909355023B
:101BE0008093540248C0E0913609F091370905808E
:101BF000F681E02DC681D7818A819B8120911E09C3
:101C000030911F092817390728F4909355028093C3
:101C1000540231C08E010E5F1F4FC8010E940C019B
:101C20008C899D89892B21F0CE010C960E940C0194
:101C30008E8990911C09981710F480931C0990E0EC
:101C40009C01220F331F220F331F220F331F820FDD
:101C5000931FB801865B964F0E94AA00E091360957
:101C6000F091370980818111BECFB6CF80911909DB
:101C70008F5F80931909DF91CF911F910F91089584
:101C8000CF92DF92EF92FF920F931F93CF93DF9348
:101C90000FB6F8940F9280911A09815080931A0917
:101CA00080911A09811162C080912009811132C08E
:101CB00060C0D7011596ED91FC911697C681D7812A
:101CC000CE010C960E940C018E010E5F1F4FC801C1
:101CD0000E940C018E8990911C09981710F4809332
:101CE0001C0990E09C01220F331F220F331F220F8B
:101CF000331F820F931FB801865B964F0E94AA0084
:101D0000E0916E09F0916F099E898689981758F0C5
:101D1000DC2C09C0D12C0F2EFBE2EF2EF9E0FF2EB8
:101D2000F02DCC24C394F70180818111C2CF809122
:101D30001909882379F080911909882391F0DCDE54
:101D40008091190981508093190980911909811195
:101D5000F6CF07C0F1E0DF1621F08091180981303D
:101D600039F410921809AEDC81E003C080E001C0B4
:101D700080E00F900FBEDF91CF911F910F91FF90E8
:101D8000EF90DF90CF900895CF93DF93EC01892BF4
:101D900099F0ACDE80911E0990911F09C80FD91FE0
:101DA00080916E0990916F0902960E940C01CE01FC
:101DB0003CDD66DF811101C085DCDF91CF910895A4
:101DC0000F2EF2E2EF2EF9E0FF2EF02DCAE4D9E05B
:101DD00080912109882341F189DED7011C9150DFD0
:101DE000112311F10FB6F8940F92D7011596ED91CA
:101DF000FC91169706811781C80102960E940C017A
:101E0000809120098150809320098091210981507F
:101E1000809321090F900FBEF8018789908D0E9451
:101E20009700C8010E9497008881823088F24ADCBE
:101E3000CFCF80911A09811113C080911C0990E0C5
:101E4000FC01EE0FFF1FEE0FFF1FEE0FFF1F8E0FA7
:101E50009F1FFC01E65BF64F8081882329F01BC0A1
:101E600081E080931809089580911C098150809326
:101E70001C0980911C0990E0FC01EE0FFF1FEE0F82
:101E8000FF1FEE0FFF1F8E0F9F1FFC01E65BF64F3B
:101E90008081882349F380911C0990E09C01220FE6
:101EA000331F220F331F220F331F280F391FD90171
:101EB000A65BB64F1196ED91FC9112970280F381CB
:101EC000E02D1296FC93EE931197235B364FE217A9
:101ED000F30729F422813381FD0132832183FC0140
:101EE000EE0FFF1FEE0FFF1FEE0FFF1F8E0F9F1F46
:101EF000FC01E65BF64F0180F281E02D868197813F
:101F000090936F0980936E09089597FB072E16F43E
:101F1000009406D077FD08D014D007FC05D03EF41D
:101F2000909581959F4F0895709561957F4F089585
:101F3000EE0FFF1F0024001C0BBE0790F691E02D52
:101F40000994AA1BBB1B51E107C0AA1FBB1FA61700
:101F5000B70710F0A61BB70B881F991F5A95A9F752
:101F600080959095BC01CD0108958F929F92AF927C
:101F7000BF92CF92DF92EF92FF92CF93DF93EC016B
:101F8000688179818A819B8161157105810591053F
:101F900021F464E279ED8BE597E02DE133EF41E048
:101FA00050E068D049015A019B01AC01A7EAB1E4B5
:101FB0007DD06B017C01ACEEB4EFA501940182D021
:101FC000DC01CB018C0D9D1DAE1DBF1DB7FF03C0F5
:101FD0000197A109B04888839983AA83BB839F771F
:101FE000DF91CF91FF90EF90DF90CF90BF90AF90B7
:101FF0009F908F900895B9CF80E091E0B6CFA0E098
:10200000B0E08093000190930101A0930201B0938E
:1020100003010895DC0101C06D9341505040E0F789
:102020000895FB01DC014150504048F001900D92B1
:102030000020C9F701C01D9241505040E0F70895BB
:10204000F999FECF92BD81BDF89A992780B5089580
:10205000262FF999FECF92BD81BDF89A019700B461
:10206000021639F01FBA20BD0FB6F894FA9AF99A01
:102070000FBE0895052E97FB16F400940FD057FD60
:1020800005D024D007FC02D046F408C050954095F6
:10209000309521953F4F4F4F5F4F08959095809514
:1020A000709561957F4F8F4F9F4F089531D0A59FB9
:1020B000900DB49F900DA49F800D911D1124089543
:1020C000B7FFF4CFF3DF821B930B0895A1E21A2E22
:1020D000AA1BBB1BFD010DC0AA1FBB1FEE1FFF1FCC
:1020E000A217B307E407F50720F0A21BB30BE40B1C
:1020F000F50B661F771F881F991F1A9469F7609563
:102100007095809590959B01AC01BD01CF0108951C
:10211000A29FB001B39FC001A39F700D811D112428
:10212000911DB29F700D811D1124911D0895F89489
:02213000FFCFDF
:102132000100000002FA323200000000000001003B
:10214200010000000000000000000000010000008B
:10215200000001000000000000000000000000007C
:10216200000000000100000000000000000000006C
:102172000000000001000000000001000100010059
:102182000100010001000000000001000100000048
:102192000000010001000000000001000100000039
:1021A2000000010001000000000001000100010028
:1021B2000100010001000000000000000000010019
:1021C200010000000000000000000000010000000B
:1021D20000000100000000000000010000000000FB
:1021E20000000000010000000000010000000000EB
:1021F20000000000010000000000010001000100D9
:1022020001000100010000000000010001000000C7
:1022120000000100010000000000010001000000B8
:1022220000000100010000000000010001000100A7
:10223200010001000100000004030201202020200F
:102242000102030444697361726D656420202020D9
:102252002020202054656D703A3030204320202009
:1022620020202020454E54455220504153534B4587
:102272005920202020202020202020202020202023
:1022820020202020FFFF5472616E735365635461F6
:10229200736B0054656D705365635461736B0073A7
:1022A200797374656D2069732061726D65642100B4
:1022B2002A20557365722050617373776F726420A0
:1022C2006F7220232052616E646F6D2050617373B0
:1022D200776F726400547269707065642053656E22
:1022E200736F7228732900456E7465722034204E14
:1022F200756D626572730052616E646F6D207061FC
:1023020073736B6579004D656E75536563546173C4
:102312006B0053656E73655365635461736B004D57
:1023220061747269785365635461736B00426C75B2
:10233200655265635365635461736B0042757A7AC3
:0E2342005365635461736B0049444C450000C1
:00000001FF
