:1000000045C0000060C000005EC000005CC0000091
:100010005AC0000058C0000056C0000054C0000084
:1000200052C0000050C000004EC000004CC0000094
:100030004AC00000D1C4000046C0000044C0000017
:1000400042C0000040C000003EC000003CC00000B4
:100050003AC0000038C0000036C0000034C00000C4
:1000600032C0000030C000002EC000002CC00000D4
:100070002AC0000028C0000026C0000024C00000E4
:1000800022C0000020C000001EC0000011241FBEBE
:10009000CFEFD0E4DEBFCDBF11E0A0E0B1E0E8EBF0
:1000A000F0E100E00BBF02C007900D92A634B1074B
:1000B000D9F727E0A6E4B1E001C01D92AA38B20743
:1000C000E1F724D3F7C79CCFCF93DF93EC01D7D5CB
:1000D0002091460130914701C9018C0F9D1F8C3D35
:1000E00045E0940758F42817390758F4E901C85B2C
:1000F000DE4F909347018093460105C0C0E0D0E0F9
:1001000002C0C0E0D0E082D6CE01DF91CF91089549
:100110000895FC010396928381832FEF3FEF348390
:100120002383968385839087878310820895FC01BB
:10013000118610860895CF93DF93FC01DB012181A6
:100140003281E9018A819B8113969C938E93129749
:100150008181928115969C938E9314978A819B81BD
:10016000EC017D836C83E9017B836A837283618305
:100170001996FC93EE93189780818F5F8083DF91AF
:10018000CF910895CF93DF93EB01488159814F3F81
:100190002FEF520731F4DC011796ED91FC9118977F
:1001A00017C0FC013396DC0115962D913C911697F2
:1001B000D9012D913C914217530750F00280F381F1
:1001C000E02DA281B3812D913C9142175307B0F7E6
:1001D000A281B381BB83AA831596DC93CE93149737
:1001E000FD83EC83D383C28399878887FC012081B8
:1001F0002F5F2083DF91CF910895FC01A281B3810D
:100200008481958115969C938E931497A481B581D2
:100210008281938113969C938E931297A085B185CA
:1002200011968D919C911297E817F90731F484810A
:10023000958112969C938E931197118610868C91BE
:1002400081508C93089580918707813089F020F048
:10025000823009F469C0B6C01092290710922C07A9
:1002600010922B0710922A0781E080930801B2C0F8
:1002700080910801882359F180912A0790912B07DA
:10028000209111013091120182179307BCF401965D
:1002900090932B0780932A07E0912C07F0E0E75F0B
:1002A000FE4F808185B980912C07873019F4109218
:1002B0002C0788C08F5F80932C0784C010922B0777
:1002C00010922A071092080110922C078BC080917F
:1002D0002A0790912B07209111013091120182176A
:1002E0009307C4F4019690932B0780932A07E0911B
:1002F0002C07F0E0E75FFE4F808185B980912C07E5
:10030000811104C087E080932C075CC081508093EA
:100310002C0758C010922B0710922A0781E0809377
:10032000080110922C075EC080910801882319F102
:1003300080912A0790912B0718161906C4F401978B
:1003400090932B0780932A07E0912C07F0E0E75F5A
:10035000FE4F808185B980912C07811104C087E010
:1003600080932C072FC0815080932C072BC081E0F5
:100370008093290743C080912A0790912B072091F1
:1003800011013091120182179307C4F401969093E2
:100390002B0780932A07E0912C07F0E0E75FFE4FE0
:1003A000808185B980912C07811104C087E08093FA
:1003B0002C0708C0815080932C0704C081E08093F3
:1003C00029071CC080918707813061F018F08230C6
:1003D000C1F410C0809113018823A9F081E08093BB
:1003E0008707089580911301813069F082E080933E
:1003F0008707089580912907813029F41092870793
:10040000089510928707089581E0809387071BDF86
:1004100083E090E07CD5FBCFAF92BF92CF92DF928A
:10042000EF92FF920F93A12CB12CC12CD12CE12C77
:10043000F12C082F20E030E045E550E066E171E066
:1004400084E092E000D30F91FF90EF90DF90CF9087
:10045000BF90AF90089580918807813081F020F09F
:10046000823009F46CC0BBC0109224071092270799
:10047000109226071092250710922807B8C0809185
:100480002807882369F180912507909126072091FC
:1004900011013091120182179307CCF401969093C9
:1004A00026078093250795B1E0912707F0E0E050FB
:1004B000FF4F8081892B85B980912707873019F4F8
:1004C000109227078CC08F5F8093270788C01092F7
:1004D00026071092250710922807109227078FC031
:1004E00080912507909126072091110130911201EA
:1004F00082179307D4F401969093260780932507DB
:1005000095B1E0912707F0E0E050FF4F8081892B03
:1005100085B980912707811104C087E08093270760
:100520005EC08150809327075AC010922607109210
:10053000250781E0809328071092270760C08091EB
:100540002807811124C0809125079091260718164D
:100550001906CCF40197909326078093250795B14F
:10056000E0912707F0E0E050FF4F8081892B85B9AB
:1005700080912707873019F41092270730C08F5FCA
:10058000809327072CC081E08093240744C080918A
:1005900025079091260720911101309112018217B1
:1005A0009307CCF40196909326078093250795B185
:1005B000E0912707F0E0E050FF4F8081892B85B95B
:1005C00080912707873019F41092270708C08F5FA2
:1005D0008093270704C081E0809324071CC080918A
:1005E0008807813061F018F08230C1F410C080912A
:1005F00013018823A9F081E08093880708958091F2
:100600001301813069F082E080938807089580911A
:100610002407813029F410928807089510928807E2
:10062000089581E08093880716DF83E090E06FD41F
:10063000FBCFAF92BF92CF92DF92EF92FF920F93D8
:10064000A12CB12CC12CD12CE12CF12C082F20E0B5
:1006500030E045E550E063E271E081E193E0F3D101
:100660000F91FF90EF90DF90CF90BF90AF900895E3
:1006700080918907882319F0813099F019C086B1DB
:10068000809584FF1BC081E08093890780911301CE
:10069000813019F4109213010EC081E08093130190
:1006A0000AC086B1809584FD06C01092890706C0F5
:1006B0001092890703C08FEF8BB908951BB8089576
:1006C00010928907D5DF8AE090E021D4FBCFAF926A
:1006D000BF92CF92DF92EF92FF920F93A12CB12C99
:1006E000C12CD12CE12CF12C082F20E030E045E585
:1006F00050E062E371E080E693E0A5D10F91FF90B6
:10070000EF90DF90CF90BF90AF90089517B88FEF24
:1007100088B984B915B881E07FDE81E08ADF81E0A5
:10072000D6DF84D280E090E0089531E1FC0130838F
:10073000319722E220833197A3E3A083319760832E
:100740003197708331971082319760E860833197D9
:100750001082319762E06083319763E06083319764
:1007600064E06083319765E06083319766E0608381
:10077000319767E06083319768E06083319769E083
:100780006083319760E1608331973083319732E144
:100790003083319733E13083319734E130833197BF
:1007A00035E13083319736E13083319737E130835B
:1007B000319738E13083319739E13083319730E236
:1007C0003083319731E2308331972083319723E2B0
:1007D00020833197408331975083319726E22083DD
:1007E000319727E22083319728E22083319729E24D
:1007F0002083319720E32083319721E3208386975C
:100800000895109289008CE7809388008BE0809394
:100810008100EFE6F0E0808182608083A09185070F
:10082000B0918607CD91CDBFDD91DEBFFF91EF91F5
:10083000DF91CF91BF91AF919F918F917F916F91F8
:100840005F914F913F912F911F910F91FF90EF90EA
:10085000DF90CF90BF90AF909F908F907F906F90E0
:100860005F904F903F902F901F900F900FBE0F9072
:10087000089581E008950F920FB6F8940F921F9299
:1008800011242F923F924F925F926F927F928F929C
:100890009F92AF92BF92CF92DF92EF92FF920F930F
:1008A0001F932F933F934F935F936F937F938F93F8
:1008B0009F93AF93BF93CF93DF93EF93FF93A09159
:1008C0008507B09186070DB60D920EB60D9270D3C6
:1008D000A0918507B0918607CD91CDBFDD91DEBF98
:1008E000FF91EF91DF91CF91BF91AF919F918F9148
:1008F0007F916F915F914F913F912F911F910F9138
:10090000FF90EF90DF90CF90BF90AF909F908F902F
:100910007F906F905F904F903F902F901F900F901F
:100920000FBE0F9008950F920FB6F8940F921F927A
:1009300011242F923F924F925F926F927F928F92EB
:100940009F92AF92BF92CF92DF92EF92FF920F935E
:100950001F932F933F934F935F936F937F938F9347
:100960009F93AF93BF93CF93DF93EF93FF93A091A8
:100970008507B09186070DB60D920EB60D9285D102
:1009800017D3A0918507B0918607CD91CDBFDD919A
:10099000DEBFFF91EF91DF91CF91BF91AF919F911A
:1009A0008F917F916F915F914F913F912F911F9107
:1009B0000F91FF90EF90DF90CF90BF90AF909F90FE
:1009C0008F907F906F905F904F903F902F901F90EF
:1009D0000F900FBE0F900895A6DF1895CF93DF9369
:1009E000EC01E0918507F0918607938382838091E3
:1009F000350790913607C817D90760F460918507CD
:100A00007091860780914B0790914C076E5F7F4FE6
:100A1000B9DB16C0609185077091860780914D07FC
:100A200090914E076E5F7F4FADDB809114019091E6
:100A30001501C817D90720F4D0931501C0931401EC
:100A4000DF91CF9108954F925F926F927F928F9234
:100A50009F92AF92BF92CF92DF92EF92FF920F934D
:100A60001F93CF93DF935C014B013A01290181E28F
:100A700090E02ADBEC01892B09F4C6C0C114D10433
:100A800009F0BEC0C30120DB988F8F8B009719F44B
:100A9000CE013EDBB9C0A30165EA70E0F5D2930157
:100AA000215031098F89988D3C01620E731E48E0F8
:100AB00050E0B401CE014996EED218A2102F0430B6
:100AC00008F013E01E8B6E0182E0C80ED11CC60137
:100AD0002EDBCE010C962BDBD987C88784E090E013
:100AE000811B91099D878C87DB8BCA8BA201B50185
:100AF000C3011BDE99838883E114F10419F0F70127
:100B0000D183C0830FB6F8940F92809137078F5F1F
:100B1000809337078091850790918607892B69F527
:100B2000D0938607C0938507809137078130A1F560
:100B300081E697E0EEDA8AE697E0EBDA83E797E082
:100B4000E8DA8CE797E0E5DA88E597E0E2DA8FE427
:100B500097E0DFDA82E497E0DCDA89E397E0D9DA3C
:100B600088E597E090934E0780934D078FE497E0D8
:100B700090934C0780934B070FC0809132078111EF
:100B80000BC0E0918507F09186078689081720F051
:100B9000D0938607C09385078E8990913407981764
:100BA00010F48093340790912D079F5F90932D0749
:100BB00090913307981710F48093330790E09C01CD
:100BC000220F331F220F331F220F331F820F931F59
:100BD000B6018F59984FAFDA0F900FBE8091320750
:100BE000882351F0E0918507F09186078689801768
:100BF00028F441DE81E009C081E007C081E005C042
:100C0000D88ECF8AC60147CF8FEFDF91CF911F914A
:100C10000F91FF90EF90DF90CF90BF90AF909F909B
:100C20008F907F906F905F904F900895AF92BF929A
:100C3000CF92DF92EF92FF920F93A12CB12CC12C97
:100C4000D12CE12CF12C00E020E030E045E550E033
:100C500060E471E082EA97E0F6DE813041F4F894D6
:100C6000809332071092360710923507CADD0F9134
:100C7000FF90EF90DF90CF90BF90AF90089580915C
:100C800031078F5F8093310708950F931F93CF93A0
:100C9000DF93809131078111AFC08091350790912A
:100CA0003607019690933607809335078091350774
:100CB00090913607892B99F580914D0790914E07B9
:100CC00020914B0730914C0730934E0720934D07EE
:100CD00090934C0780934B0780912E078F5F8093F2
:100CE0002E07E0914D07F0914E078081811107C0DA
:100CF0008FEF9FEF909315018093140110C0E09146
:100D00004D07F0914E070580F681E02D0680F781B2
:100D1000E02D82819381909315018093140120919D
:100D200035073091360780911401909115012817ED
:100D3000390708F466C0E0914D07F0914E078081B5
:100D4000882399F0E0914D07F0914E070580F681D8
:100D5000E02DC681D7818A819B8120913507309112
:100D6000360728173907F8F419C08FEF9FEF9093D3
:100D700015018093140145C0E0914D07F0914E0795
:100D80000580F681E02DC681D7818A819B812091E3
:100D90003507309136072817390728F49093150145
:100DA000809314012EC08E010E5F1F4FC80125DAFB
:100DB0008C899D89892B19F0CE010C961EDA8E89BB
:100DC00090913307981710F48093330790E09C01BB
:100DD000220F331F220F331F220F331F820F931F47
:100DE000B8018F59984FA7D9E0914D07F0914E0760
:100DF00080818111C1CFB9CF809130078F5F8093FF
:100E00003007DF91CF911F910F910895CF92DF921C
:100E1000EF92FF920F931F93CF93DF930FB6F89447
:100E20000F92809131078150809331078091310773
:100E300081115FC08091370781112FC05DC0D7013C
:100E40001596ED91FC911697C681D781CE010C962F
:100E5000D4D98E010E5F1F4FC801CFD98E899091D2
:100E60003307981710F48093330790E09C01220F0A
:100E7000331F220F331F220F331F820F931FB8011E
:100E80008F59984F58D9E0918507F09186079E8930
:100E90008689981758F0DC2C09C0D12C0F2EF2E46B
:100EA000EF2EF7E0FF2EF02DCC24C394F7018081C4
:100EB0008111C5CF80913007882379F08091300768
:100EC000882391F0E2DE80913007815080933007D3
:100ED000809130078111F6CF07C0F1E0DF1621F0D5
:100EE00080912F07813039F410922F07C4DC81E004
:100EF00003C080E001C080E00F900FBEDF91CF9172
:100F00001F910F91FF90EF90DF90CF900895CF93B6
:100F1000DF93EC01892B91F0B2DE8091350790913F
:100F20003607C80FD91F80918507909186070296D2
:100F300064D9CE0153DD6ADF811101C09CDCDF91F1
:100F4000CF9108950F2EF9E3EF2EF7E0FF2EF02D4D
:100F5000C1E6D7E080913807882329F190DED701D8
:100F60001C9154DF1123F9F00FB6F8940F92D701BA
:100F70001596ED91FC91169706811781C80102968E
:100F80003CD980913707815080933707809138078B
:100F90008150809338070F900FBEF8018789908D9C
:100FA000B7D8C801B5D888818230A0F264DCD2CF2E
:100FB00080913107811113C08091330790E0FC01CB
:100FC000EE0FFF1FEE0FFF1FEE0FFF1F8E0F9F1F75
:100FD000FC01EF59F84F8081882329F01BC081E084
:100FE00080932F07089580913307815080933307B2
:100FF0008091330790E0FC01EE0FFF1FEE0FFF1F03
:10100000EE0FFF1F8E0F9F1FFC01EF59F84F8081DD
:10101000882349F38091330790E09C01220F331F0E
:10102000220F331F220F331F280F391FD901AF5949
:10103000B84F1196ED91FC9112970280F381E02D4B
:101040001296FC93EE9311972C59384FE217F30741
:1010500029F422813381FD0132832183FC01EE0FCB
:10106000FF1FEE0FFF1FEE0FFF1F8E0F9F1FFC01D4
:10107000EF59F84F0180F281E02D8681978190939E
:101080008607809385070895DC0101C06D93415068
:101090005040E0F70895FB01DC014150504048F01A
:1010A00001900D920020C9F701C01D92415050409F
:0810B000E0F70895F894FFCF6A
:1010B8001030206040C080900101030206040C0833
:1010C80009000801FFFF4D6F746F72536563546127
:1010D800736B004D6F746F725365635461736B5F0C
:1010E8003200427574746F6E5365635461736B009C
:0610F80049444C450000D4
:00000001FF
