:1000000045C0000061C000005FC000005DC000008E
:100010005BC0000059C0000057C0000055C0000080
:1000200053C0000051C000004FC000004DC0000090
:100030004BC00000B0C6000047C0000045C0000033
:1000400043C0000041C000003FC000003DC00000B0
:100050003BC0000039C0000037C0000035C00000C0
:1000600033C0000031C000002FC000002DC00000D0
:100070002BC0000029C0000027C0000025C00000E0
:1000800023C0000021C000001FC0000011241FBEBB
:10009000CFEFD0E4DEBFCDBF11E0A0E0B1E0E4EAF5
:1000A000F4E100E00BBF02C007900D92A636B10745
:1000B000D9F727E0A6E6B1E001C01D92A83BB20740
:1000C000E1F7F6D40C94500A9BCFCF93DF93EC0169
:1000D000B5D72091660130916701C9018C0F9D1F32
:1000E0008C3D45E0940758F42817390758F4E90186
:1000F000C859DE4F909367018093660105C0C0E048
:10010000D0E002C0C0E0D0E00E94E608CE01DF915E
:10011000CF9108950895FC010396928381832FEF78
:100120003FEF348323839683858390878783108270
:100130000895FC01118610860895CF93DF93FC018A
:10014000DB0121813281E9018A819B8113969C9395
:100150008E9312978181928115969C938E9314971A
:100160008A819B81EC017D836C83E9017B836A83B7
:10017000728361831996FC93EE93189780818F5F49
:100180008083DF91CF910895CF93DF93EB01488176
:1001900059814F3F2FEF520731F4DC011796ED9153
:1001A000FC91189717C0FC013396DC0115962D9130
:1001B0003C911697D9012D913C914217530750F06D
:1001C0000280F381E02DA281B3812D913C914217F1
:1001D0005307B0F7A281B381BB83AA831596DC9342
:1001E000CE931497FD83EC83D383C283998788874A
:1001F000FC0120812F5F2083DF91CF910895FC01C6
:10020000A281B3818481958115969C938E931497D6
:10021000A481B5818281938113969C938E931297CA
:10022000A085B18511968D919C911297E817F907D9
:1002300031F48481958112969C938E931197118647
:1002400010868C9181508C930895813081F0E1EC7F
:10025000F0E0808188618083E2ECF0E0808186605C
:10026000808383E38093C4001092C5000895E9EC75
:10027000F0E0808188618083EAECF0E08081866034
:10028000808383E38093CC001092CD000895813069
:1002900029F48091C800882374F008958091C000EB
:1002A00088238CF4A6ECB0E0E0ECF0E08C91808147
:1002B0008823E4F30895AEECB0E0E8ECF0E08C9134
:1002C00080818823E4F30895613041F0E0ECF0E0B0
:1002D000908195FFFDCF8093C6000895E8ECF0E093
:1002E000908195FFFDCF8093CE000895813041F03D
:1002F000E0ECF0E080818823ECF78091C60008955F
:10030000E8ECF0E080818823ECF78091CE0008953E
:10031000EAE7F0E08081806E808308958091B607DF
:10032000813019F08330E1F01FC0209178003091C6
:100330007900220F331F220F331F3093550720936C
:100340005407245F3140ADECBCEC0E942B0A96951B
:10035000879596958795969587958093560716C0AD
:1003600060E080915607B0DF8091B607813071F070
:1003700028F08230B1F01092B607089580915707A7
:10038000811121C081E08093B607089580915707BD
:10039000811104C082E08093B60708951092B607D9
:1003A00008958091C00085FF08C080915707811192
:1003B00004C083E08093B607089580915707813089
:1003C00011F41092B60708951092B607A7DF8AE0DD
:1003D00090E080D7FBCFAF92BF92CF92DF92EF92A7
:1003E000FF920F93A12CB12CC12CD12CE12CF12C1C
:1003F000082F20E030E045E550E065E171E084EE53
:1004000091E000D50F91FF90EF90DF90CF90BF90DB
:10041000AF9008958091B707882319F0813071F06B
:100420005FC010925307109252071092510710921A
:10043000500710924F0710924E0757C02091780036
:1004400030917900220F331F220F331F309355074D
:1004500020935407245F3140ADECBCECFCD796955B
:1004600087959695879596958795809356078032C0
:1004700040F081E08093530780914E078160809324
:100480004E0786B1809583FF08C081E080935107B5
:1004900080914E07826080934E0786B1809582FFDF
:1004A00008C081E08093520780914E07846080935A
:1004B0004E0786B1809581FF08C081E080934F0789
:1004C00080914E07886080934E07309918C081E074
:1004D0008093500780914E07806180934E070FC034
:1004E000882319F08130A9F40AC080915707813020
:1004F00019F48093B70708951092B7070895809173
:100500005707813019F48093B70708951092B70701
:1005100008951092B70708951092B7077BDF8AE01D
:1005200090E0D8D6FBCFAF92BF92CF92DF92EF92FE
:10053000FF920F93A12CB12CC12CD12CE12CF12CCA
:10054000082F20E030E045E550E061E271E08CE802
:1005500092E058D40F91FF90EF90DF90CF90BF9032
:10056000AF9008958091B407813089F020F08230F7
:1005700009F469C0B6C010924A0710924D07109254
:100580004C0710924B0781E080930801B2C0809124
:100590000801882359F180914B0790914C072091D5
:1005A00011013091120182179307BCF401969093C8
:1005B0004C0780934B07E0914D07F0E0E75FFE4F5B
:1005C000808185B980914D07873019F410924D07CD
:1005D00088C08F5F80934D0784C010924C071092A3
:1005E0004B071092080110924D078BC080914B076A
:1005F00090914C07209111013091120182179307BD
:10060000C4F4019690934C0780934B07E0914D07FB
:10061000F0E0E75FFE4F808185B980914D07811141
:1006200004C087E080934D075CC0815080934D07E4
:1006300058C010924C0710924B0781E0809308013C
:1006400010924D075EC080910801882319F18091B6
:100650004B0790914C0718161906C4F40197909314
:100660004C0780934B07E0914D07F0E0E75FFE4FAA
:10067000808185B980914D07811104C087E0809306
:100680004D072FC0815080934D072BC081E0809390
:100690004A0743C080914B0790914C07209111016C
:1006A0003091120182179307C4F4019690934C077E
:1006B00080934B07E0914D07F0E0E75FFE4F8081AC
:1006C00085B980914D07811104C087E080934D0763
:1006D00008C0815080934D0704C081E080934A0791
:1006E0001CC08091B407813061F018F08230C1F4F1
:1006F00010C0809157078823A9F081E08093B40748
:10070000089580915707813069F082E08093B407A3
:10071000089580914A07813029F41092B407089512
:100720001092B407089581E08093B4071BDF83E043
:1007300090E0D0D5FBCFAF92BF92CF92DF92EF92F5
:10074000FF920F93A12CB12CC12CD12CE12CF12CB8
:10075000082F20E030E045E550E06CE271E083E9ED
:1007600093E050D30F91FF90EF90DF90CF90BF9028
:10077000AF9008958091B507813081F020F08230EC
:1007800009F46CC0BBC01092450710924807109244
:1007900047071092460710924907B8C08091490751
:1007A000882369F1809146079091470720911101B4
:1007B0003091120182179307CCF40196909347076A
:1007C0008093460795B1E0914807F0E0E050FF4F75
:1007D0008081892B85B980914807873019F4109260
:1007E00048078CC08F5F8093480788C010924707E6
:1007F0001092460710924907109248078FC08091C7
:1008000046079091470720911101309112018217FC
:100810009307D4F40196909347078093460795B1C8
:10082000E0914807F0E0E050FF4F8081892B85B9C7
:1008300080914807811104C087E0809348075EC01B
:100840008150809348075AC010924707109246077C
:1008500081E0809349071092480760C08091490762
:10086000811124C0809146079091470718161906F8
:10087000CCF40197909347078093460795B1E09198
:100880004807F0E0E050FF4F8081892B85B98091C7
:100890004807873019F41092480730C08F5F809363
:1008A00048072CC081E08093450744C080914607EB
:1008B00090914707209111013091120182179307FF
:1008C000CCF40196909347078093460795B1E09149
:1008D0004807F0E0E050FF4F8081892B85B9809177
:1008E0004807873019F41092480708C08F5F80933B
:1008F000480704C081E0809345071CC08091B5077C
:10090000813061F018F08230C1F410C08091570737
:100910008823A9F081E08093B50708958091570757
:10092000813069F082E08093B50708958091450792
:10093000813029F41092B50708951092B5070895F3
:1009400081E08093B50716DF83E090E0C3D4FBCF4E
:10095000AF92BF92CF92DF92EF92FF920F93A12CB2
:10096000B12CC12CD12CE12CF12C082F20E030E04F
:1009700045E550E069E371E080EA94E043D20F91ED
:10098000FF90EF90DF90CF90BF90AF90089580914F
:10099000B307813021F460E080914E0795DC8091AF
:1009A000B307882319F0813061F012C08091C00034
:1009B00085FF10C080915707813061F48093B307A1
:1009C00008958091C00086FF05C01092B307089576
:1009D0001092B30708951092B307D9DF8AE090E030
:1009E00079D4FBCFAF92BF92CF92DF92EF92FF927A
:1009F0000F93A12CB12CC12CD12CE12CF12C082F60
:100A000020E030E045E550E068E471E08BEE94E0F2
:100A1000F9D10F91FF90EF90DF90CF90BF90AF9002
:100A200008958091B207813071F480E05FDC80939B
:100A300044078F3F21F481E08093570702C0109252
:100A4000570780E024DC8091B207882319F01092C8
:100A5000B20708958091C00088231CF481E0809340
:100A6000B20708951092B207DCDF8AE090E032D43A
:100A7000FBCFAF92BF92CF92DF92EF92FF920F9394
:100A8000A12CB12CC12CD12CE12CF12C082F20E071
:100A900030E045E550E065E571E082E395E0B2D1F4
:100AA0000F91FF90EF90DF90CF90BF90AF9008959F
:100AB0002FDC80E0CADB11B88FEF82B984B915B89A
:100AC00017B888B981E08EDF81E035DE81E040DF54
:100AD00081E029DD81E07FDC81E084DF81E0C9DF26
:100AE00084D280E090E0089531E1FC0130833197B9
:100AF00022E220833197A3E3A0833197608331976B
:100B0000708331971082319760E86083319710824B
:100B1000319762E06083319763E06083319764E0EE
:100B20006083319765E06083319766E06083319739
:100B300067E06083319768E06083319769E06083A4
:100B4000319760E1608331973083319732E13083B0
:100B5000319733E13083319734E13083319735E198
:100B60003083319736E13083319737E130833197E5
:100B700038E13083319739E13083319730E2308387
:100B8000319731E2308331972083319723E22083FC
:100B90003197408331975083319726E220833197F4
:100BA00027E22083319728E22083319729E22083AE
:100BB000319720E32083319721E32083869708959E
:100BC000109289008CE7809388008BE080938100ED
:100BD000EFE6F0E0808182608083A091B007B09161
:100BE000B107CD91CDBFDD91DEBFFF91EF91DF91D8
:100BF000CF91BF91AF919F918F917F916F915F91B5
:100C00004F913F912F911F910F91FF90EF90DF90A7
:100C1000CF90BF90AF909F908F907F906F905F909C
:100C20004F903F902F901F900F900FBE0F90089500
:100C300081E008950F920FB6F8940F921F9211243D
:100C40002F923F924F925F926F927F928F929F92DC
:100C5000AF92BF92CF92DF92EF92FF920F931F93CA
:100C60002F933F934F935F936F937F938F939F93B4
:100C7000AF93BF93CF93DF93EF93FF93A091B00710
:100C8000B091B1070DB60D920EB60D9278D3A0912A
:100C9000B007B091B107CD91CDBFDD91DEBFFF911F
:100CA000EF91DF91CF91BF91AF919F918F917F9104
:100CB0006F915F914F913F912F911F910F91FF90F5
:100CC000EF90DF90CF90BF90AF909F908F907F90EC
:100CD0006F905F904F903F902F901F900F900FBE9E
:100CE0000F9008950F920FB6F8940F921F9211244F
:100CF0002F923F924F925F926F927F928F929F922C
:100D0000AF92BF92CF92DF92EF92FF920F931F9319
:100D10002F933F934F935F936F937F938F939F9303
:100D2000AF93BF93CF93DF93EF93FF93A091B0075F
:100D3000B091B1070DB60D920EB60D9285D11FD3AD
:100D4000A091B007B091B107CD91CDBFDD91DEBFCD
:100D5000FF91EF91DF91CF91BF91AF919F918F91D3
:100D60007F916F915F914F913F912F911F910F91C3
:100D7000FF90EF90DF90CF90BF90AF909F908F90BB
:100D80007F906F905F904F903F902F901F900F90AB
:100D90000FBE0F900895A6DF1895CF93DF93EC0157
:100DA000E091B007F091B10793838283809160074F
:100DB00090916107C817D90760F46091B0077091EE
:100DC000B10780917607909177076E5F7F4FDCD9EE
:100DD00016C06091B0077091B1078091780790912B
:100DE00079076E5F7F4FD0D98091130190911401E4
:100DF000C817D90720F4D0931401C0931301DF91D1
:100E0000CF9108954F925F926F927F928F929F92AF
:100E1000AF92BF92CF92DF92EF92FF920F931F9308
:100E2000CF93DF935C014B013A01290181E290E00D
:100E30004CD9EC01892B09F4C6C0C114D10409F0C6
:100E4000BEC0C30142D9988F8F8B009719F4CE0191
:100E500061D9B9C0A30165EA70E00CD393012150B8
:100E600031098F89988D3C01620E731E48E050E075
:100E7000B401CE01499605D318A2102F043008F012
:100E800013E01E8B6E0182E0C80ED11CC60151D941
:100E9000CE010C964ED9D987C88784E090E0811B9B
:100EA00091099D878C87DB8BCA8BA201B501C30199
:100EB0001BDE99838883E114F10419F0F701D183D3
:100EC000C0830FB6F8940F92809162078F5F809372
:100ED00062078091B0079091B107892B69F5D09393
:100EE000B107C093B007809162078130A1F58CE80B
:100EF00097E011D985E997E00ED98EE997E00BD9F3
:100F000087EA97E008D983E897E005D98AE797E070
:100F100002D98DE697E0FFD884E697E0FCD883E815
:100F200097E090937907809378078AE797E090930A
:100F30007707809376070FC080915D0781110BC002
:100F4000E091B007F091B1078689081720F0D0939F
:100F5000B107C093B0078E8990915F07981710F47E
:100F600080935F07909158079F5F909358079091E7
:100F70005E07981710F480935E0790E09C01220FA3
:100F8000331F220F331F220F331F820F931FB6010F
:100F90008457984FD2D80F900FBE80915D07882359
:100FA00051F0E091B007F091B1078689801728F4DD
:100FB00041DE81E009C081E007C081E005C0D88E34
:100FC000CF8AC60147CF8FEFDF91CF911F910F914D
:100FD000FF90EF90DF90CF90BF90AF909F908F9059
:100FE0007F906F905F904F900895AF92BF92CF9295
:100FF000DF92EF92FF920F93A12CB12CC12CD12C38
:10100000E12CF12C00E020E030E045E550E060E626
:1010100071E086E899E0F6DE813041F4F89480933F
:101020005D071092610710926007CADD0F91FF9073
:10103000EF90DF90CF90BF90AF90089580915C07C4
:101040008F5F80935C0708950F931F93CF93DF9377
:1010500080915C078111B0C0809160079091610719
:10106000019690936107809360078091600790914B
:101070006107892B99F580917807909179072091E4
:10108000760730917707309379072093780790930C
:10109000770780937607809159078F5F8093590770
:1010A000E0917807F09179078081811107C08FEF77
:1010B0009FEF909314018093130110C0E091780783
:1010C000F09179070580F681E02D0680F781E02D0B
:1010D0008281938190931401809313012091600782
:1010E00030916107809113019091140128173907FD
:1010F00008F467C0E0917807F09179078081882330
:1011000099F0E0917807F09179070580F681E02D5C
:10111000C681D7818A819B812091600730916107C8
:1011200028173907F8F419C08FEF9FEF9093140137
:101130008093130146C0E0917807F091790705800C
:10114000F681E02DC681D7818A819B81209160073D
:10115000309161072817390728F490931401809380
:1011600013012FC08E010E5F1F4FC80148D88C8914
:101170009D89892B19F0CE010C9641D88E899091CA
:101180005E07981710F480935E0790E09C01220F91
:10119000331F220F331F220F331F820F931FB801FB
:1011A0008457984F0E949D00E0917807F09179074D
:1011B00080818111C0CFB8CF80915B078F5F809312
:1011C0005B07DF91CF911F910F910895CF92DF922E
:1011D000EF92FF920F931F93CF93DF930FB6F89484
:1011E0000F9280915C07815080935C0780915C072F
:1011F000811162C080916207811132C060C0D70145
:101200001596ED91FC911697C681D781CE010C966B
:101210000E94FF008E010E5F1F4FC8010E94FF0059
:101220008E8990915E07981710F480935E0790E086
:101230009C01220F331F220F331F220F331F820FF7
:10124000931FB8018457984F0E949D00E091B0070A
:10125000F091B1079E898689981758F0DC2C09C057
:10126000D12C0F2EFDE6EF2EF7E0FF2EF02DCC2433
:10127000C394F70180818111C2CF80915B078823DD
:1012800079F080915B07882391F0DEDE80915B0727
:10129000815080935B0780915B078111F6CF07C077
:1012A000F1E0DF1621F080915A07813039F4109275
:1012B0005A07C0DC81E003C080E001C080E00F90ED
:1012C0000FBEDF91CF911F910F91FF90EF90DF90B4
:1012D000CF900895CF93DF93EC01892B99F0AEDE88
:1012E0008091600790916107C80FD91F8091B00766
:1012F0009091B10702960E94FF00CE014EDD66DF9D
:10130000811101C097DCDF91CF9108950F2EF4E693
:10131000EF2EF7E0FF2EF02DCCE8D7E080916307A9
:10132000882341F18BDED7011C9150DF112311F18D
:101330000FB6F8940F92D7011596ED91FC91169780
:1013400006811781C80102960E94FF008091620702
:101350008150809362078091630781508093630777
:101360000F900FBEF8018789908D0E948A00C801F6
:101370000E948A008881823088F25CDCCFCF809125
:101380005C07811113C080915E0790E0FC01EE0FB5
:10139000FF1FEE0FFF1FEE0FFF1F8E0F9F1FFC01A1
:1013A000E457F84F8081882329F01BC081E08093A7
:1013B0005A07089580915E07815080935E0780915F
:1013C0005E0790E0FC01EE0FFF1FEE0FFF1FEE0F18
:1013D000FF1F8E0F9F1FFC01E457F84F8081882369
:1013E00049F380915E0790E09C01220F331F220F8A
:1013F000331F220F331F280F391FD901A457B84FAD
:101400001196ED91FC9112970280F381E02D1296D6
:10141000FC93EE9311972157384FE217F30729F405
:1014200022813381FD0132832183FC01EE0FFF1FF6
:10143000EE0FFF1FEE0FFF1F8E0F9F1FFC01E457E3
:10144000F84F0180F281E02D868197819093B1075A
:101450008093B0070895A29FB001B39FC001A39FDE
:10146000700D811D1124911DB29F700D811D1124DD
:10147000911D0895DC0101C06D9341505040E0F78B
:101480000895FB01DC014150504048F001900D925D
:101490000020C9F701C01D9241505040E0F7089567
:0414A000F894FFCFEE
:1014A4001030206040C080900101030206040C0843
:1014B400090008FFFF54656D705365635461736BD5
:1014C4000041524D5365635461736B004D6F746FEB
:1014D400725365635461736B004D6F746F7253651F
:1014E400635461736B5F32005472616E735365634E
:1014F4005461736B005265635365635461736B008D
:0615040049444C450000C3
:00000001FF
