S00E0000434849505F302E7372656363
S113000045C0000060C000005EC000005CC000008D
S11300105AC0000058C0000056C0000054C0000080
S113002052C0000050C000004EC000004CC0000090
S11300304AC0000069C3000046C0000044C000007C
S113004042C0000040C000003EC000003CC00000B0
S11300503AC0000038C0000036C0000034C00000C0
S113006032C0000030C000002EC000002CC00000D0
S11300702AC0000028C0000026C0000024C00000E0
S113008022C0000020C000001EC0000011241FBEBA
S1130090CFEFD0E4DEBFCDBF11E0A0E0B1E0E6E0F9
S11300A0FEE000E00BBF02C007900D92A032B10742
S11300B0D9F727E0A0E2B1E001C01D92A236B20751
S11300C0E1F7B9D19EC69CCFCF93DF93EC016FD4F7
S11300D02091200130912101C9018C0F9D1F8C3D7D
S11300E045E0940758F42817390758F4E901CE5D20
S11300F0DE4F909321018093200105C0C0E0D0E041
S113010002C0C0E0D0E01AD5CE01DF91CF910895AE
S11301100895FC010396928381832FEF3FEF34838C
S11301202383968385839087878310820895FC01B7
S1130130118610860895CF93DF93FC01DB012181A2
S11301403281E9018A819B8113969C938E93129745
S11301508181928115969C938E9314978A819B81B9
S1130160EC017D836C83E9017B836A837283618301
S11301701996FC93EE93189780818F5F8083DF91AB
S1130180CF910895CF93DF93EB01488159814F3F7D
S11301902FEF520731F4DC011796ED91FC9118977B
S11301A017C0FC013396DC0115962D913C911697EE
S11301B0D9012D913C914217530750F00280F381ED
S11301C0E02DA281B3812D913C9142175307B0F7E2
S11301D0A281B381BB83AA831596DC93CE93149733
S11301E0FD83EC83D383C28399878887FC012081B4
S11301F02F5F2083DF91CF910895FC01A281B38109
S11302008481958115969C938E931497A481B581CE
S11302108281938113969C938E931297A085B185C6
S113022011968D919C911297E817F90731F4848106
S1130230958112969C938E931197118610868C91BA
S113024081508C930895EAE7F0E08081806E80838A
S11302500895809160078130D1F420917800309125
S11302607900220F331F220F331F3093040720938A
S11302700307245F3140ADECBCEC9ED59695879581
S11302809695879596958795809305078BB9809168
S11302906007882319F0813049F00FC08091000174
S11302A081110DC081E08093600708958091000161
S11302B0882329F01092600708951092600708952A
S11302C010926007C6DF8AE090E0B9D4FBCFAF920A
S11302D0BF92CF92DF92EF92FF920F93A12CB12C99
S11302E0C12CD12CE12CF12C082F20E030E045E585
S11302F050E063E071E080E691E03DD20F91FF9021
S1130300EF90DF90CF90BF90AF90089580916107F8
S1130310882319F0813061F050C0109202071092C6
S11303200107109200071092FF061092FE064CC0BF
S11303302091780030917900220F331F220F331F50
S11303403093040720930307245F3140ADECBCECE9
S113035033D59695879596958795969587958093A9
S113036005071BB815B880910507803220F081E09D
S11303708093020785B986B1809583FF05C081E02B
S11303808093000782E08BB986B1809582FF05C017
S113039081E08093010784E08BB986B1809581FF69
S11303A005C081E08093FE0688E08BB9309905C0D2
S11303B081E08093FF0680E18BB9809161078823F7
S11303C019F0813041F00EC080910001813061F458
S11303D080936107089580910001813029F0109283
S11303E061070895109261070895109261078EDFE6
S11303F08AE090E024D4FBCFAF92BF92CF92DF92F9
S1130400EF92FF920F93A12CB12CC12CD12CE12C93
S1130410F12C082F20E030E045E550E06FE071E07A
S113042085EF91E0A8D10F91FF90EF90DF90CF90EE
S1130430BF90AF90089507DF11B88FEF82B917B856
S113044088B98AB91BB884B915B881E040DF81E066
S1130450D3DF84D280E090E0089531E1FC01308361
S1130460319722E220833197A3E3A08331976083FD
S11304703197708331971082319760E860833197A8
S11304801082319762E06083319763E06083319733
S113049064E06083319765E06083319766E0608350
S11304A0319767E06083319768E06083319769E052
S11304B06083319760E1608331973083319732E113
S11304C03083319733E13083319734E1308331978E
S11304D035E13083319736E13083319737E130832A
S11304E0319738E13083319739E13083319730E205
S11304F03083319731E2308331972083319723E27F
S113050020833197408331975083319726E22083AB
S1130510319727E22083319728E22083319729E21B
S11305202083319720E32083319721E3208386972A
S11305300895109289008CE7809388008BE0809363
S11305408100EFE6F0E0808182608083A0915E0705
S1130550B0915F07CD91CDBFDD91DEBFFF91EF91EB
S1130560DF91CF91BF91AF919F918F917F916F91C7
S11305705F914F913F912F911F910F91FF90EF90B9
S1130580DF90CF90BF90AF909F908F907F906F90AF
S11305905F904F903F902F901F900F900FBE0F9041
S11305A0089581E008950F920FB6F8940F921F9268
S11305B011242F923F924F925F926F927F928F926B
S11305C09F92AF92BF92CF92DF92EF92FF920F93DE
S11305D01F932F933F934F935F936F937F938F93C7
S11305E09F93AF93BF93CF93DF93EF93FF93A09128
S11305F05E07B0915F070DB60D920EB60D9270D3E3
S1130600A0915E07B0915F07CD91CDBFDD91DEBFB4
S1130610FF91EF91DF91CF91BF91AF919F918F9116
S11306207F916F915F914F913F912F911F910F9106
S1130630FF90EF90DF90CF90BF90AF909F908F90FE
S11306407F906F905F904F903F902F901F900F90EE
S11306500FBE0F9008950F920FB6F8940F921F9249
S113066011242F923F924F925F926F927F928F92BA
S11306709F92AF92BF92CF92DF92EF92FF920F932D
S11306801F932F933F934F935F936F937F938F9316
S11306909F93AF93BF93CF93DF93EF93FF93A09177
S11306A05E07B0915F070DB60D920EB60D9285D11F
S11306B017D3A0915E07B0915F07CD91CDBFDD91B7
S11306C0DEBFFF91EF91DF91CF91BF91AF919F91E9
S11306D08F917F916F915F914F913F912F911F91D6
S11306E00F91FF90EF90DF90CF90BF90AF909F90CD
S11306F08F907F906F905F904F903F902F901F90BE
S11307000F900FBE0F900895A6DF1895CF93DF9337
S1130710EC01E0915E07F0915F07938382838091FF
S11307200E0790910F07C817D90760F460915E0710
S113073070915F0780912407909125076E5F7F4F2A
S113074021DD16C060915E0770915F0780912607D6
S1130750909127076E5F7F4F15DD80910101909185
S11307600201C817D90720F4D0930201C0930101F4
S1130770DF91CF9108954F925F926F927F928F9203
S11307809F92AF92BF92CF92DF92EF92FF920F931C
S11307901F93CF93DF935C014B013A01290181E25E
S11307A090E092DCEC01892B09F4C6C0C114D10499
S11307B009F0BEC0C30188DC988F8F8B009719F4B1
S11307C0CE01A6DCB9C0A30165EA70E004D39301AD
S11307D0215031098F89988D3C01620E731E48E0C7
S11307E050E0B401CE014996FDD218A2102F043076
S11307F008F013E01E8B6E0182E0C80ED11CC60106
S113080096DCCE010C9693DCD987C88784E090E00F
S1130810811B91099D878C87DB8BCA8BA201B50153
S1130820C3011BDE99838883E114F10419F0F701F5
S1130830D183C0830FB6F8940F92809110078F5F15
S11308408093100780915E0790915F07892B69F56B
S1130850D0935F07C0935E07809110078130A1F5A4
S11308608AE397E056DC83E497E053DC8CE497E07A
S113087050DC85E597E04DDC81E397E04ADC88E2D3
S113088097E047DC8BE197E044DC82E197E041DCD0
S113089081E397E0909327078093260788E297E007
S11308A090932507809324070FC080910B07811133
S11308B00BC0E0915E07F0915F078689081720F06E
S11308C0D0935F07C0935E078E8990910D079817A8
S11308D010F480930D07909106079F5F909306078D
S11308E090910C07981710F480930C0790E09C01EA
S11308F0220F331F220F331F220F331F820F931F28
S1130900B601865C984F17DC0F900FBE80910B07E1
S1130910882351F0E0915E07F0915F078689801784
S113092028F441DE81E009C081E007C081E005C010
S1130930D88ECF8AC60147CF8FEFDF91CF911F9119
S11309400F91FF90EF90DF90CF90BF90AF909F906A
S11309508F907F906F905F904F900895AF92BF9269
S1130960CF92DF92EF92FF920F93A12CB12CC12C66
S1130970D12CE12CF12C00E020E030E045E550E002
S11309806AE171E08AE396E0F6DE813041F4F8949E
S113099080930B0710920F0710920E07CADD0F9178
S11309A0FF90EF90DF90CF90BF90AF90089580912B
S11309B00A078F5F80930A0708950F931F93CF93BD
S11309C0DF9380910A078111AFC080910E07909147
S11309D00F07019690930F0780930E0780910E07DF
S11309E090910F07892B99F58091260790912707FD
S11309F02091240730912507309327072093260759
S1130A009093250780932407809107078F5F809335
S1130A100707E0912607F09127078081811107C01D
S1130A208FEF9FEF909302018093010110C0E0913A
S1130A302607F09127070580F681E02D0680F781CF
S1130A40E02D828193819093020180930101209192
S1130A500E0730910F078091010190910201281730
S1130A60390708F466C0E0912607F09127078081D2
S1130A70882399F0E0912607F09127070580F681F5
S1130A80E02DC681D7818A819B8120910E07309108
S1130A900F0728173907F8F419C08FEF9FEF9093C9
S1130AA002018093010145C0E0912607F0912707D8
S1130AB00580F681E02DC681D7818A819B812091B2
S1130AC00E0730910F072817390728F49093020175
S1130AD0809301012EC08E010E5F1F4FC8018DDB74
S1130AE08C899D89892B19F0CE010C9686DB8E8921
S1130AF090910C07981710F480930C0790E09C01D8
S1130B00220F331F220F331F220F331F820F931F15
S1130B10B801865C984F0FDBE0912607F091270718
S1130B2080818111C1CFB9CF809109078F5F8093F4
S1130B300907DF91CF911F910F910895CF92DF9212
S1130B40EF92FF920F931F93CF93DF930FB6F89416
S1130B500F9280910A07815080930A0780910A07B7
S1130B6081115FC08091100781112FC05DC0D70132
S1130B701596ED91FC911697C681D781CE010C96FE
S1130B803CDB8E010E5F1F4FC80137DB8E899091CD
S1130B900C07981710F480930C0790E09C01220F27
S1130BA0331F220F331F220F331F820F931FB801ED
S1130BB0865C984FC0DAE0915E07F0915F079E89EA
S1130BC08689981758F0DC2C09C0D12C0F2EFBE134
S1130BD0EF2EF7E0FF2EF02DCC24C394F701808193
S1130BE08111C5CF80910907882379F08091090785
S1130BF0882391F0E2DE80910907815080930907F0
S1130C00809109078111F6CF07C0F1E0DF1621F0CA
S1130C1080910807813039F410920807C4DC81E020
S1130C2003C080E001C080E00F900FBEDF91CF9140
S1130C301F910F91FF90EF90DF90CF900895CF9385
S1130C40DF93EC01892B91F0B2DE80910E07909135
S1130C500F07C80FD91F80915E0790915F07029616
S1130C60CCDACE0153DD6ADF811101C09CDCDF9157
S1130C70CF9108950F2EF2E1EF2EF7E0FF2EF02D25
S1130C80CAE3D7E080911107882329F190DED701C8
S1130C901C9154DF1123F9F00FB6F8940F92D70189
S1130CA01596ED91FC91169706811781C80102965D
S1130CB0A4DA809110078150809310078091110766
S1130CC08150809311070F900FBEF8018789908D92
S1130CD01FDAC8011DDA88818230A0F264DCD2CF29
S1130CE080910A07811113C080910C0790E0FC01E8
S1130CF0EE0FFF1FEE0FFF1FEE0FFF1F8E0F9F1F44
S1130D00FC01E65CF84F8081882329F01BC081E058
S1130D1080930807089580910C07815080930C07F5
S1130D2080910C0790E0FC01EE0FFF1FEE0FFF1FF8
S1130D30EE0FFF1F8E0F9F1FFC01E65CF84F8081B2
S1130D40882349F380910C0790E09C01220F331F04
S1130D50220F331F220F331F280F391FD901A65C1E
S1130D60B84F1196ED91FC9112970280F381E02D1A
S1130D701296FC93EE931197235C384FE217F30716
S1130D8029F422813381FD0132832183FC01EE0F9A
S1130D90FF1FEE0FFF1FEE0FFF1F8E0F9F1FFC01A3
S1130DA0E65CF84F0180F281E02D86819781909373
S1130DB05F0780935E070895A29FB001B39FC001AF
S1130DC0A39F700D811D1124911DB29F700D811D73
S1130DD01124911D0895DC0101C06D9341505040D0
S1130DE0E0F70895FB01DC014150504048F00190C8
S1130DF00D920020C9F701C01D9241505040E0F708
S1090E000895F894FFCFF1
S1130E0601FFFF54656D705365635461736B004154
S1130E16524D5365635461736B0049444C4500005D
S9030000FC
