:1000000045C0000061C000005FC000005DC000008E
:100010005BC0000059C0000057C0000055C0000080
:1000200053C0000051C000004FC000004DC0000090
:100030004BC0000082C5000047C0000045C0000062
:1000400043C0000041C000003FC000003DC00000B0
:100050003BC0000039C0000037C0000035C00000C0
:1000600033C0000031C000002FC000002DC00000D0
:100070002BC0000029C0000027C0000025C00000E0
:1000800023C0000021C000001FC0000011241FBEBB
:10009000CFEFD0E4DEBFCDBF11E0A0E0B1E0E8E3F8
:1000A000F2E100E00BBF02C007900D92AE34B10741
:1000B000D9F727E0AEE4B1E001C01D92AB39B20739
:1000C000E1F7CED30C941A099BCFCF93DF93EC01C9
:1000D00087D620914E0130914F01C9018C0F9D1F91
:1000E0008C3D45E0940758F42817390758F4E90186
:1000F000C05BDE4F90934F0180934E0105C0C0E07E
:10010000D0E002C0C0E0D0E032D7CE01DF91CF9185
:1001100008950895FC010396928381832FEF3FEFAA
:100120003483238396838583908787831082089501
:10013000FC01118610860895CF93DF93FC01DB014B
:1001400021813281E9018A819B8113969C938E9350
:1001500012978181928115969C938E9314978A8130
:100160009B81EC017D836C83E9017B836A837283CD
:1001700061831996FC93EE93189780818F5F80833B
:10018000DF91CF910895CF93DF93EB01488159819F
:100190004F3F2FEF520731F4DC011796ED91FC91A0
:1001A000189717C0FC013396DC0115962D913C91F0
:1001B0001697D9012D913C914217530750F00280B8
:1001C000F381E02DA281B3812D913C914217530719
:1001D000B0F7A281B381BB83AA831596DC93CE933B
:1001E0001497FD83EC83D383C28399878887FC01AE
:1001F00020812F5F2083DF91CF910895FC01A281A0
:10020000B3818481958115969C938E931497A481D4
:10021000B5818281938113969C938E931297A085CA
:10022000B18511968D919C911297E817F90731F4D9
:100230008481958112969C938E93119711861086D6
:100240008C9181508C930895EAE7F0E08081806E74
:1002500080830895809199078130D1F420917800AE
:1002600030917900220F331F220F331F30933B0749
:1002700020933A07245F3140ADECBCECB6D796959D
:100280008795969587959695879580933C078BB92A
:1002900080919907882319F0813049F00FC080912F
:1002A000130181110DC081E0809399070895809119
:1002B0001301882329F01092990708951092990745
:1002C000089510929907C6DF8AE090E0D1D6FBCF5F
:1002D000AF92BF92CF92DF92EF92FF920F93A12C39
:1002E000B12CC12CD12CE12CF12C082F20E030E0D6
:1002F00045E550E066E171E081E691E055D40F916B
:10030000FF90EF90DF90CF90BF90AF9008958091D5
:100310009A07882319F0813061F04FC01092390795
:10032000109238071092370710923607109235074F
:100330004BC02091780030917900220F331F220F9B
:10034000331F30933B0720933A07245F3140ADECD5
:10035000BCEC4BD7969587959695879596958795FE
:1003600080933C071BB880913C07803220F081E0ED
:10037000809339078BB986B1809583FF05C081E0F2
:100380008093370782E08BB986B1809582FF05C0E4
:1003900081E08093380784E08BB986B1809581FF36
:1003A00005C081E08093350788E08BB9309905C09E
:1003B00081E08093360780E18BB980919A0788238A
:1003C00019F0813041F00EC080911301813061F449
:1003D00080939A07089580911301813029F010923B
:1003E0009A07089510929A07089510929A078FDF3E
:1003F0008AE090E03DD6FBCFAF92BF92CF92DF92E2
:10040000EF92FF920F93A12CB12CC12CD12CE12C97
:10041000F12C082F20E030E045E550E062E271E089
:1004200085EF91E0C1D30F91FF90EF90DF90CF90D7
:10043000BF90AF90089580919707813089F020F0A8
:10044000823009F469C0B6C01092310710923407A7
:10045000109233071092320781E080930801B2C0F6
:1004600080910801882359F18091320790913307D8
:10047000209111013091120182179307BCF401966B
:100480009093330780933207E0913407F0E0E75F01
:10049000FE4F808185B980913407873019F410921E
:1004A000340788C08F5F8093340784C0109233076D
:1004B0001092320710920801109234078BC080917D
:1004C0003207909133072091110130911201821768
:1004D0009307C4F401969093330780933207E09119
:1004E0003407F0E0E75FFE4F808185B980913407E3
:1004F000811104C087E0809334075CC081508093F1
:10050000340758C0109233071092320781E080936D
:100510000801109234075EC080910801882319F108
:10052000809132079091330718161906C4F4019789
:100530009093330780933207E0913407F0E0E75F50
:10054000FE4F808185B980913407811104C087E016
:10055000809334072FC08150809334072BC081E0F3
:100560008093310743C080913207909133072091E7
:1005700011013091120182179307C4F401969093F0
:10058000330780933207E0913407F0E0E75FFE4FD6
:10059000808185B980913407811104C087E0809300
:1005A000340708C081508093340704C081E08093F1
:1005B00031071CC080919707813061F018F08230BC
:1005C000C1F410C0809113018823A9F081E08093C9
:1005D0009707089580911301813069F082E080933C
:1005E0009707089580913107813029F41092970779
:1005F000089510929707089581E0809397071BDF75
:1006000083E090E035D5FBCFAF92BF92CF92DF92DF
:10061000EF92FF920F93A12CB12CC12CD12CE12C85
:10062000F12C082F20E030E045E550E06DE271E06C
:100630008CEF92E0B9D20F91FF90EF90DF90CF90C6
:10064000BF90AF90089580919807813081F020F09D
:10065000823009F46CC0BBC010922C0710922F0797
:1006600010922E0710922D0710923007B8C080917B
:100670003007882369F180912D0790912E072091F2
:1006800011013091120182179307CCF401969093D7
:100690002E0780932D0795B1E0912F07F0E0E050F1
:1006A000FF4F8081892B85B980912F07873019F4FE
:1006B00010922F078CC08F5F80932F0788C01092F5
:1006C0002E0710922D071092300710922F078FC01F
:1006D00080912D0790912E072091110130911201E8
:1006E00082179307D4F4019690932E0780932D07D9
:1006F00095B1E0912F07F0E0E050FF4F8081892B0A
:1007000085B980912F07811104C087E080932F075E
:100710005EC0815080932F075AC010922E0710920E
:100720002D0781E08093300710922F0760C08091E1
:100730003007811124C080912D0790912E07181643
:100740001906CCF4019790932E0780932D0795B14D
:10075000E0912F07F0E0E050FF4F8081892B85B9B1
:1007600080912F07873019F410922F0730C08F5FC8
:1007700080932F072CC081E080932C0744C0809188
:100780002D0790912E0720911101309112018217AF
:100790009307CCF4019690932E0780932D0795B183
:1007A000E0912F07F0E0E050FF4F8081892B85B961
:1007B00080912F07873019F410922F0708C08F5FA0
:1007C00080932F0704C081E080932C071CC0809188
:1007D0009807813061F018F08230C1F410C0809128
:1007E00013018823A9F081E08093980708958091F0
:1007F0001301813069F082E0809398070895809119
:100800002C07813029F410929807089510929807C8
:10081000089581E08093980716DF83E090E028D464
:10082000FBCFAF92BF92CF92DF92EF92FF920F93E6
:10083000A12CB12CC12CD12CE12CF12C082F20E0C3
:1008400030E045E550E06AE371E089E094E0ACD146
:100850000F91FF90EF90DF90CF90BF90AF900895F1
:10086000F3DC11B88FEF82B984B915B817B888B91D
:100870008AB91BB881E0C8DE81E0D3DF81E028DDE2
:1008800081E0BADD84D280E090E0089531E1FC019E
:100890003083319722E220833197A3E3A0833197FD
:1008A00060833197708331971082319760E860835D
:1008B00031971082319762E06083319763E0608303
:1008C000319764E06083319765E06083319766E03B
:1008D0006083319767E06083319768E06083319788
:1008E00069E06083319760E16083319730833197AD
:1008F00032E13083319733E13083319734E1308313
:10090000319735E13083319736E13083319737E1E4
:100910003083319738E13083319739E13083319733
:1009200030E23083319731E2308331972083319741
:1009300023E220833197408331975083319726E219
:100940002083319727E22083319728E22083319753
:1009500029E22083319720E32083319721E320830C
:1009600086970895109289008CE7809388008BE029
:1009700080938100EFE6F0E0808182608083A09127
:100980009507B0919607CD91CDBFDD91DEBFFF9168
:10099000EF91DF91CF91BF91AF919F918F917F9117
:1009A0006F915F914F913F912F911F910F91FF9008
:1009B000EF90DF90CF90BF90AF909F908F907F90FF
:1009C0006F905F904F903F902F901F900F900FBEB1
:1009D0000F90089581E008950F920FB6F8940F924A
:1009E0001F9211242F923F924F925F926F927F92AB
:1009F0008F929F92AF92BF92CF92DF92EF92FF922F
:100A00000F931F932F933F934F935F936F937F9316
:100A10008F939F93AF93BF93CF93DF93EF93FF9306
:100A2000A0919507B09196070DB60D920EB60D9256
:100A300070D3A0919507B0919607CD91CDBFDD9170
:100A4000DEBFFF91EF91DF91CF91BF91AF919F9169
:100A50008F917F916F915F914F913F912F911F9156
:100A60000F91FF90EF90DF90CF90BF90AF909F904D
:100A70008F907F906F905F904F903F902F901F903E
:100A80000F900FBE0F9008950F920FB6F8940F922B
:100A90001F9211242F923F924F925F926F927F92FA
:100AA0008F929F92AF92BF92CF92DF92EF92FF927E
:100AB0000F931F932F933F934F935F936F937F9366
:100AC0008F939F93AF93BF93CF93DF93EF93FF9356
:100AD000A0919507B09196070DB60D920EB60D92A6
:100AE00085D117D3A0919507B0919607CD91CDBF31
:100AF000DD91DEBFFF91EF91DF91CF91BF91AF917B
:100B00009F918F917F916F915F914F913F912F9125
:100B10001F910F91FF90EF90DF90CF90BF90AF901B
:100B20009F908F907F906F905F904F903F902F900D
:100B30001F900F900FBE0F900895A6DF1895CF93CA
:100B4000DF93EC01E0919507F09196079383828300
:100B50008091450790914607C817D90760F46091C6
:100B600095077091960780915B0790915C076E5F87
:100B70007F4F09DB16C060919507709196078091B1
:100B80005D0790915E076E5F7F4FFDDA80911401E3
:100B900090911501C817D90720F4D0931501C0937F
:100BA0001401DF91CF9108954F925F926F927F92DF
:100BB0008F929F92AF92BF92CF92DF92EF92FF926D
:100BC0000F931F93CF93DF935C014B013A012901EF
:100BD00081E290E07ADAEC01892B09F4C6C0C114F5
:100BE000D10409F0BEC0C30170DA988F8F8B0097D3
:100BF00019F4CE018EDAB9C0A30165EA70E004D31E
:100C00009301215031098F89988D3C01620E731E2A
:100C100048E050E0B401CE014996FDD218A2102F51
:100C2000043008F013E01E8B6E0182E0C80ED11C68
:100C3000C6017EDACE010C967BDAD987C88784E0BC
:100C400090E0811B91099D878C87DB8BCA8BA20169
:100C5000B501C3011BDE99838883E114F10419F007
:100C6000F701D183C0830FB6F8940F9280914707A4
:100C70008F5F809347078091950790919607892B06
:100C800069F5D0939607C093950780914707813007
:100C9000A1F581E797E03EDA8AE797E03BDA83E85F
:100CA00097E038DA8CE897E035DA88E697E032DAD0
:100CB0008FE597E02FDA82E597E02CDA89E497E078
:100CC00029DA88E697E090935E0780935D078FE5C9
:100CD00097E090935C0780935B070FC08091420779
:100CE00081110BC0E0919507F0919607868908174E
:100CF00020F0D0939607C09395078E899091440772
:100D0000981710F48093440790913D079F5F90934C
:100D10003D0790914307981710F48093430790E0A4
:100D20009C01220F331F220F331F220F331F820F0C
:100D3000931FB6018F58984FFFD90F900FBE809127
:100D40004207882351F0E0919507F0919607868934
:100D5000801728F441DE81E009C081E007C081E00E
:100D600005C0D88ECF8AC60147CF8FEFDF91CF91D4
:100D70001F910F91FF90EF90DF90CF90BF90AF90B9
:100D80009F908F907F906F905F904F900895AF925B
:100D9000BF92CF92DF92EF92FF920F93A12CB12CD2
:100DA000C12CD12CE12CF12C00E020E030E045E515
:100DB00050E069E471E083E598E0F6DE813041F4CB
:100DC000F894809342071092460710924507CADDB7
:100DD0000F91FF90EF90DF90CF90BF90AF9008956C
:100DE000809141078F5F8093410708950F931F9370
:100DF000CF93DF93809141078111AFC08091450768
:100E000090914607019690934607809345078091FD
:100E1000450790914607892B99F580915D07909140
:100E20005E0720915B0730915C0730935E0720934B
:100E30005D0790935C0780935B0780913E078F5F0F
:100E400080933E07E0915D07F0915E0780818111FC
:100E500007C08FEF9FEF909315018093140110C08E
:100E6000E0915D07F0915E070580F681E02D068038
:100E7000F781E02D82819381909315018093140175
:100E800020914507309146078091140190911501FA
:100E90002817390708F466C0E0915D07F0915E07F6
:100EA0008081882399F0E0915D07F0915E070580CD
:100EB000F681E02DC681D7818A819B8120914507EB
:100EC0003091460728173907F8F419C08FEF9FEFC4
:100ED000909315018093140145C0E0915D07F09156
:100EE0005E070580F681E02DC681D7818A819B81CE
:100EF00020914507309146072817390728F4909329
:100F00001501809314012EC08E010E5F1F4FC80182
:100F100075D98C899D89892B19F0CE010C966ED9D3
:100F20008E8990914307981710F48093430790E0BF
:100F30009C01220F331F220F331F220F331F820FFA
:100F4000931FB8018F58984FF7D8E0915D07F09143
:100F50005E0780818111C1CFB9CF809140078F5F3B
:100F600080934007DF91CF911F910F910895CF9209
:100F7000DF92EF92FF920F931F93CF93DF930FB601
:100F8000F8940F928091410781508093410780919E
:100F9000410781115FC08091470781112FC05DC05B
:100FA000D7011596ED91FC911697C681D781CE0198
:100FB0000C9624D98E010E5F1F4FC8011FD98E8950
:100FC00090914307981710F48093430790E09C0199
:100FD000220F331F220F331F220F331F820F931F45
:100FE000B8018F58984FA8D8E0919507F0919607CF
:100FF0009E898689981758F0DC2C09C0D12C0F2EB9
:10100000F2E5EF2EF7E0FF2EF02DCC24C394F7018C
:1010100080818111C5CF80914007882379F080912C
:101020004007882391F0E2DE809140078150809351
:101030004007809140078111F6CF07C0F1E0DF162D
:1010400021F080913F07813039F410923F07C4DCD2
:1010500081E003C080E001C080E00F900FBEDF910F
:10106000CF911F910F91FF90EF90DF90CF90089557
:10107000CF93DF93EC01892B91F0B2DE809145078D
:1010800090914607C80FD91F8091950790919607B8
:101090000296B4D8CE0153DD6ADF811101C09CDC19
:1010A000DF91CF9108950F2EF9E4EF2EF7E0FF2E98
:1010B000F02DC1E7D7E080914807882329F190DE21
:1010C000D7011C9154DF1123F9F00FB6F8940F9259
:1010D000D7011596ED91FC91169706811781C801ED
:1010E00002968CD880914707815080934707809162
:1010F00048078150809348070F900FBEF8018789F9
:10110000908D07D8C80105D888818230A0F264DCB0
:10111000D2CF80914107811113C08091430790E0A5
:10112000FC01EE0FFF1FEE0FFF1FEE0FFF1F8E0FD4
:101130009F1FFC01EF58F84F8081882329F01BC0C6
:1011400081E080933F070895809143078150809309
:1011500043078091430790E0FC01EE0FFF1FEE0F65
:10116000FF1FEE0FFF1F8E0F9F1FFC01EF58F84F60
:101170008081882349F38091430790E09C01220FEE
:10118000331F220F331F220F331F280F391FD9019E
:10119000AF58B84F1196ED91FC9112970280F381F0
:1011A000E02D1296FC93EE9311972C58384FE217CE
:1011B000F30729F422813381FD0132832183FC016D
:1011C000EE0FFF1FEE0FFF1FEE0FFF1F8E0F9F1F73
:1011D000FC01EF58F84F0180F281E02D8681978164
:1011E00090939607809395070895A29FB001B39FAF
:1011F000C001A39F700D811D1124911DB29F700D20
:10120000811D1124911D0895DC0101C06D93415091
:101210005040E0F70895FB01DC014150504048F098
:1012200001900D920020C9F701C01D92415050401D
:08123000E0F70895F894FFCFE8
:101238001030206040C080900101030206040C08B1
:1012480009000801FFFF54656D70536563546173AD
:101258006B0041524D5365635461736B004D6F745D
:101268006F725365635461736B004D6F746F725383
:0E12780065635461736B5F320049444C45005E
:00000001FF
